Component: ARM Compiler 5.05 update 1 (build 106) Tool: armlink [4d0efa]

==============================================================================

Section Cross References

    main.o(.text) refers to ch395cmd.o(.text) for CH395SetSocketProtType
    main.o(.text) refers to printf8.o(i.__0printf$8) for __2printf
    main.o(.text) refers to looplist.o(.text) for PutData
    main.o(.text) refers to stm32f10x_usart.o(.text) for USART_ITConfig
    main.o(.text) refers to printf8.o(i.__0sprintf$8) for __2sprintf
    main.o(.text) refers to delay.o(.text) for delay_ms
    main.o(.text) refers to mcu_api.o(.text) for NVIC_Configuration
    main.o(.text) refers to usart.o(.text) for uart_init
    main.o(.text) refers to timer.o(.text) for timer2_config
    main.o(.text) refers to ch395spi.o(.text) for CH395_PORT_INIT
    main.o(.text) refers to iwdg.o(.text) for IWDG_Init
    main.o(.text) refers to main.o(.bss) for recv_buff
    main.o(.text) refers to usart.o(.bss) for rb_t_usart1_send
    main.o(.text) refers to main.o(.data) for http_html_data
    delay.o(.text) refers to misc.o(.text) for SysTick_CLKSourceConfig
    delay.o(.text) refers to system_stm32f10x.o(.data) for SystemCoreClock
    delay.o(.text) refers to delay.o(.data) for fac_us
    usart.o(.text) refers to looplist.o(.text) for rbCreate
==============================================================================

Removing Unused input sections from the image.

    Removing core_cm3.o(.emb_text), (32 bytes).
    Removing stm32f10x_flash.o(.text), (1468 bytes).
    Removing startup_stm32f10x_hd.o(HEAP), (512 bytes).
    Removing buffermanage.o(.text), (212 bytes).
    Removing dadd.o(.text), (334 bytes).
    Removing dmul.o(.text), (228 bytes).
    Removing ddiv.o(.text), (222 bytes).
    Removing dfixul.o(.text), (48 bytes).
    Removing cdrcmple.o(.text), (48 bytes).
    Removing depilogue.o(.text), (186 bytes).

10 unused section(s) (total 3290 bytes) removed from the image.

==============================================================================

Image Symbol Table

    Local Symbols

    Symbol Name                              Value     Ov Type        Size  Object(Section)

    ../clib/../cmprslib/lz77c.c              0x00000000   Number         0  __dclz77c.o ABSOLUTE
    ../clib/microlib/division.c              0x00000000   Number         0  uidiv.o ABSOLUTE
    ../clib/microlib/division.c              0x00000000   Number         0  uldiv.o ABSOLUTE
    ../clib/microlib/init/entry.s            0x00000000   Number         0  entry11a.o ABSOLUTE
    ../clib/microlib/init/entry.s            0x00000000   Number         0  entry2.o ABSOLUTE
    ../clib/microlib/init/entry.s            0x00000000   Number         0  entry8a.o ABSOLUTE
    ../clib/microlib/init/entry.s            0x00000000   Number         0  entry9b.o ABSOLUTE
    ../clib/microlib/init/entry.s            0x00000000   Number         0  entry11b.o ABSOLUTE
    ../clib/microlib/init/entry.s            0x00000000   Number         0  entry5.o ABSOLUTE
    ../clib/microlib/init/entry.s            0x00000000   Number         0  entry7a.o ABSOLUTE
    ../clib/microlib/init/entry.s            0x00000000   Number         0  entry.o ABSOLUTE
    ../clib/microlib/init/entry.s            0x00000000   Number         0  entry9a.o ABSOLUTE
    ../clib/microlib/init/entry.s            0x00000000   Number         0  entry10b.o ABSOLUTE
    ../clib/microlib/init/entry.s            0x00000000   Number         0  entry7b.o ABSOLUTE
    ../clib/microlib/init/entry.s            0x00000000   Number         0  entry10a.o ABSOLUTE
    ../clib/microlib/init/entry.s            0x00000000   Number         0  entry8b.o ABSOLUTE
    ../clib/microlib/longlong.c              0x00000000   Number         0  llushr.o ABSOLUTE
    ../clib/microlib/longlong.c              0x00000000   Number         0  llshl.o ABSOLUTE
    ../clib/microlib/longlong.c              0x00000000   Number         0  llsshr.o ABSOLUTE
    ../clib/microlib/printf/printf.c         0x00000000   Number         0  printfb.o ABSOLUTE
    ../clib/microlib/printf/printf.c         0x00000000   Number         0  printf0.o ABSOLUTE
    ../clib/microlib/printf/printf.c         0x00000000   Number         0  printf3.o ABSOLUTE
    ../clib/microlib/printf/printf.c         0x00000000   Number         0  printf4.o ABSOLUTE
    ../clib/microlib/printf/printf.c         0x00000000   Number         0  printf2.o ABSOLUTE
    ../clib/microlib/printf/printf.c         0x00000000   Number         0  printf5.o ABSOLUTE
    ../clib/microlib/printf/printf.c         0x00000000   Number         0  printf6.o ABSOLUTE
    ../clib/microlib/printf/printf.c         0x00000000   Number         0  printf7.o ABSOLUTE
    ../clib/microlib/printf/printf.c         0x00000000   Number         0  printf8.o ABSOLUTE
    ../clib/microlib/printf/printf.c         0x00000000   Number         0  printfa.o ABSOLUTE
    ../clib/microlib/printf/printf.c         0x00000000   Number         0  printf1.o ABSOLUTE
    ../clib/microlib/printf/stubs.s          0x00000000   Number         0  stubs.o ABSOLUTE
    ../clib/microlib/stdio/streams.c         0x00000000   Number         0  stdout.o ABSOLUTE
    ../clib/microlib/string/memcpy.c         0x00000000   Number         0  memcpya.o ABSOLUTE
    ../clib/microlib/string/memcpy.c         0x00000000   Number         0  memcpyb.o ABSOLUTE
    ../clib/microlib/stubs.s                 0x00000000   Number         0  iusefp.o ABSOLUTE
    ../fplib/microlib/fpadd.c                0x00000000   Number         0  dadd.o ABSOLUTE
    ../fplib/microlib/fpdiv.c                0x00000000   Number         0  ddiv.o ABSOLUTE
    ../fplib/microlib/fpepilogue.c           0x00000000   Number         0  depilogue.o ABSOLUTE
    ../fplib/microlib/fpfix.c                0x00000000   Number         0  dfixul.o ABSOLUTE
    ../fplib/microlib/fpmul.c                0x00000000   Number         0  dmul.o ABSOLUTE
    ..\CH395\CH395CMD.C                      0x00000000   Number         0  ch395cmd.o ABSOLUTE
    ..\CH395\CH395SPI.C                      0x00000000   Number         0  ch395spi.o ABSOLUTE
    ..\CMSIS\core_cm3.c                      0x00000000   Number         0  core_cm3.o ABSOLUTE
    ..\CMSIS\system_stm32f10x.c              0x00000000   Number         0  system_stm32f10x.o ABSOLUTE
    ..\Libraries\src\misc.c                  0x00000000   Number         0  misc.o ABSOLUTE
    ..\Libraries\src\stm32f10x_flash.c       0x00000000   Number         0  stm32f10x_flash.o ABSOLUTE
    ..\Libraries\src\stm32f10x_gpio.c        0x00000000   Number         0  stm32f10x_gpio.o ABSOLUTE
    ..\Libraries\src\stm32f10x_iwdg.c        0x00000000   Number         0  stm32f10x_iwdg.o ABSOLUTE
    ..\Libraries\src\stm32f10x_rcc.c         0x00000000   Number         0  stm32f10x_rcc.o ABSOLUTE
    ..\Libraries\src\stm32f10x_spi.c         0x00000000   Number         0  stm32f10x_spi.o ABSOLUTE
    ..\Libraries\src\stm32f10x_tim.c         0x00000000   Number         0  stm32f10x_tim.o ABSOLUTE
    ..\Libraries\src\stm32f10x_usart.c       0x00000000   Number         0  stm32f10x_usart.o ABSOLUTE
    ..\Startup\startup_stm32f10x_hd.s        0x00000000   Number         0  startup_stm32f10x_hd.o ABSOLUTE
    ..\User\delay.c                          0x00000000   Number         0  delay.o ABSOLUTE
    ..\User\iwdg.c                           0x00000000   Number         0  iwdg.o ABSOLUTE
    ..\User\main.c                           0x00000000   Number         0  main.o ABSOLUTE
    ..\User\mcu_api.c                        0x00000000   Number         0  mcu_api.o ABSOLUTE
    ..\User\stm32f10x_it.c                   0x00000000   Number         0  stm32f10x_it.o ABSOLUTE
    ..\User\timer.c                          0x00000000   Number         0  timer.o ABSOLUTE
    ..\User\usart.c                          0x00000000   Number         0  usart.o ABSOLUTE
    ..\\CMSIS\\core_cm3.c                    0x00000000   Number         0  core_cm3.o ABSOLUTE
    ..\mem\BufferManage.c                    0x00000000   Number         0  buffermanage.o ABSOLUTE
    ..\mem\LoopList.c                        0x00000000   Number         0  looplist.o ABSOLUTE
    cdrcmple.s                               0x00000000   Number         0  cdrcmple.o ABSOLUTE
    dc.s                                     0x00000000   Number         0  dc.o ABSOLUTE
    handlers.s                               0x00000000   Number         0  handlers.o ABSOLUTE
    init.s                                   0x00000000   Number         0  init.o ABSOLUTE
    RESET                                    0x08000000   Section      304  startup_stm32f10x_hd.o(RESET)
    .ARM.Collect$$$$00000000                 0x08000130   Section        0  entry.o(.ARM.Collect$$$$00000000)
    .ARM.Collect$$$$00000001                 0x08000130   Section        4  entry2.o(.ARM.Collect$$$$00000001)
    .ARM.Collect$$$$00000004                 0x08000134   Section        4  entry5.o(.ARM.Collect$$$$00000004)
    .ARM.Collect$$$$00000008                 0x08000138   Section        0  entry7b.o(.ARM.Collect$$$$00000008)
    .ARM.Collect$$$$0000000A                 0x08000138   Section        0  entry8b.o(.ARM.Collect$$$$0000000A)
    .ARM.Collect$$$$0000000B                 0x08000138   Section        8  entry9a.o(.ARM.Collect$$$$0000000B)
    .ARM.Collect$$$$0000000D                 0x08000140   Section        0  entry10a.o(.ARM.Collect$$$$0000000D)
    .ARM.Collect$$$$0000000F                 0x08000140   Section        0  entry11a.o(.ARM.Collect$$$$0000000F)
    .ARM.Collect$$$$00002712                 0x08000140   Section        4  entry2.o(.ARM.Collect$$$$00002712)
    __lit__00000000                          0x08000140   Data           4  entry2.o(.ARM.Collect$$$$00002712)
    .text                                    0x08000144   Section        0  stm32f10x_it.o(.text)
    .text                                    0x08000184   Section        0  main.o(.text)
    .text                                    0x0800064c   Section        0  delay.o(.text)
    .text                                    0x08000720   Section        0  usart.o(.text)
    .text                                    0x08000974   Section        0  iwdg.o(.text)
    .text                                    0x080009a0   Section        0  timer.o(.text)
    .text                                    0x08000a34   Section        0  mcu_api.o(.text)
    .text                                    0x08000abc   Section        0  system_stm32f10x.o(.text)
    SetSysClockTo72                          0x08000abd   Thumb Code   214  system_stm32f10x.o(.text)
    SetSysClock                              0x08000b93   Thumb Code     8  system_stm32f10x.o(.text)
    .text                                    0x08000c9c   Section        0  misc.o(.text)
    .text                                    0x08000d78   Section        0  stm32f10x_rcc.o(.text)
    .text                                    0x0800111c   Section        0  stm32f10x_usart.o(.text)
    .text                                    0x08001524   Section        0  stm32f10x_gpio.o(.text)
    .text                                    0x08001880   Section        0  stm32f10x_tim.o(.text)
    TI4_Config                               0x08001d27   Thumb Code   130  stm32f10x_tim.o(.text)
    TI3_Config                               0x08001dbb   Thumb Code   122  stm32f10x_tim.o(.text)
    TI2_Config                               0x08001e4f   Thumb Code   130  stm32f10x_tim.o(.text)
    TI1_Config                               0x08001ee3   Thumb Code   108  stm32f10x_tim.o(.text)
    .text                                    0x0800269c   Section        0  stm32f10x_iwdg.o(.text)
    .text                                    0x080026dc   Section        0  stm32f10x_spi.o(.text)
    .text                                    0x080029e8   Section       36  startup_stm32f10x_hd.o(.text)
    .text                                    0x08002a0c   Section        0  looplist.o(.text)
    .text                                    0x08002c08   Section        0  ch395spi.o(.text)
    .text                                    0x08002de4   Section        0  ch395cmd.o(.text)
    .text                                    0x0800358c   Section        0  memcpya.o(.text)
    .text                                    0x080035b0   Section        0  uldiv.o(.text)
    .text                                    0x08003614   Section       36  init.o(.text)
    .text                                    0x08003638   Section        0  llshl.o(.text)
    .text                                    0x08003656   Section        0  llushr.o(.text)
    .text                                    0x08003676   Section        0  __dclz77c.o(.text)
    i.__0printf$8                            0x080036d4   Section        0  printf8.o(i.__0printf$8)
    i.__0sprintf$8                           0x080036f4   Section        0  printf8.o(i.__0sprintf$8)
    i.__scatterload_copy                     0x0800371c   Section       14  handlers.o(i.__scatterload_copy)
    i.__scatterload_null                     0x0800372a   Section        2  handlers.o(i.__scatterload_null)
    i.__scatterload_zeroinit                 0x0800372c   Section       14  handlers.o(i.__scatterload_zeroinit)
    i._printf_core                           0x0800373c   Section        0  printf8.o(i._printf_core)
    _printf_core                             0x0800373d   Thumb Code   996  printf8.o(i._printf_core)
    i._printf_post_padding                   0x08003b4c   Section        0  printf8.o(i._printf_post_padding)
    _printf_post_padding                     0x08003b4d   Thumb Code    36  printf8.o(i._printf_post_padding)
    i._printf_pre_padding                    0x08003b70   Section        0  printf8.o(i._printf_pre_padding)
    _printf_pre_padding                      0x08003b71   Thumb Code    46  printf8.o(i._printf_pre_padding)
    i._sputc                                 0x08003b9e   Section        0  printf8.o(i._sputc)
    _sputc                                   0x08003b9f   Thumb Code    10  printf8.o(i._sputc)
    .data                                    0x20000000   Section     3751  main.o(.data)
    .data                                    0x20000ea8   Section        4  delay.o(.data)
    fac_us                                   0x20000ea8   Data           1  delay.o(.data)
    fac_ms                                   0x20000eaa   Data           2  delay.o(.data)
    .data                                    0x20000eac   Section       10  usart.o(.data)
    flage                                    0x20000eb5   Data           1  usart.o(.data)
    .data                                    0x20000eb8   Section        4  timer.o(.data)
    .data                                    0x20000ebc   Section       40  mcu_api.o(.data)
    .data                                    0x20000ee4   Section       20  system_stm32f10x.o(.data)
    .data                                    0x20000ef8   Section       20  stm32f10x_rcc.o(.data)
    APBAHBPrescTable                         0x20000ef8   Data          16  stm32f10x_rcc.o(.data)
    ADCPrescTable                            0x20000f08   Data           4  stm32f10x_rcc.o(.data)
    .data                                    0x20000f0c   Section        4  stdout.o(.data)
    .bss                                     0x20000f10   Section     1544  main.o(.bss)
    .bss                                     0x20001518   Section     3580  usart.o(.bss)
    STACK                                    0x20002318   Section     1024  startup_stm32f10x_hd.o(STACK)

    Global Symbols

    Symbol Name                              Value     Ov Type        Size  Object(Section)

    BuildAttributes$$THM_ISAv4$P$D$K$B$S$PE$A:L22UL41UL21$X:L11$S22US41US21$IEEE1$IW$USESV6$~STKCKD$USESV7$~SHL$OSPACE$ROPI$EBA8$MICROLIB$REQ8$PRES8$EABIv2 0x00000000   Number         0  anon$$obj.o ABSOLUTE
    __ARM_use_no_argv                        0x00000000   Number         0  main.o ABSOLUTE
    _printf_a                                0x00000000   Number         0  stubs.o ABSOLUTE
    _printf_c                                0x00000000   Number         0  stubs.o ABSOLUTE
    _printf_charcount                        0x00000000   Number         0  stubs.o ABSOLUTE
    _printf_d                                0x00000000   Number         0  stubs.o ABSOLUTE
    _printf_e                                0x00000000   Number         0  stubs.o ABSOLUTE
    _printf_f                                0x00000000   Number         0  stubs.o ABSOLUTE
    _printf_flags                            0x00000000   Number         0  stubs.o ABSOLUTE
    _printf_fp_dec                           0x00000000   Number         0  stubs.o ABSOLUTE
    _printf_fp_hex                           0x00000000   Number         0  stubs.o ABSOLUTE
    _printf_g                                0x00000000   Number         0  stubs.o ABSOLUTE
    _printf_i                                0x00000000   Number         0  stubs.o ABSOLUTE
    _printf_int_dec                          0x00000000   Number         0  stubs.o ABSOLUTE
    _printf_l                                0x00000000   Number         0  stubs.o ABSOLUTE
    _printf_lc                               0x00000000   Number         0  stubs.o ABSOLUTE
    _printf_ll                               0x00000000   Number         0  stubs.o ABSOLUTE
    _printf_lld                              0x00000000   Number         0  stubs.o ABSOLUTE
    _printf_lli                              0x00000000   Number         0  stubs.o ABSOLUTE
    _printf_llo                              0x00000000   Number         0  stubs.o ABSOLUTE
    _printf_llu                              0x00000000   Number         0  stubs.o ABSOLUTE
    _printf_llx                              0x00000000   Number         0  stubs.o ABSOLUTE
    _printf_longlong_dec                     0x00000000   Number         0  stubs.o ABSOLUTE
    _printf_longlong_hex                     0x00000000   Number         0  stubs.o ABSOLUTE
    _printf_longlong_oct                     0x00000000   Number         0  stubs.o ABSOLUTE
    _printf_ls                               0x00000000   Number         0  stubs.o ABSOLUTE
    _printf_mbtowc                           0x00000000   Number         0  stubs.o ABSOLUTE
    _printf_n                                0x00000000   Number         0  stubs.o ABSOLUTE
    _printf_o                                0x00000000   Number         0  stubs.o ABSOLUTE
    _printf_p                                0x00000000   Number         0  stubs.o ABSOLUTE
    _printf_percent                          0x00000000   Number         0  stubs.o ABSOLUTE
    _printf_pre_padding                      0x00000000   Number         0  stubs.o ABSOLUTE
    _printf_return_value                     0x00000000   Number         0  stubs.o ABSOLUTE
    _printf_s                                0x00000000   Number         0  stubs.o ABSOLUTE
    _printf_sizespec                         0x00000000   Number         0  stubs.o ABSOLUTE
    _printf_str                              0x00000000   Number         0  stubs.o ABSOLUTE
    _printf_truncate_signed                  0x00000000   Number         0  stubs.o ABSOLUTE
    _printf_truncate_unsigned                0x00000000   Number         0  stubs.o ABSOLUTE
    _printf_u                                0x00000000   Number         0  stubs.o ABSOLUTE
    _printf_wc                               0x00000000   Number         0  stubs.o ABSOLUTE
    _printf_wctomb                           0x00000000   Number         0  stubs.o ABSOLUTE
    _printf_widthprec                        0x00000000   Number         0  stubs.o ABSOLUTE
    _printf_x                                0x00000000   Number         0  stubs.o ABSOLUTE
    __cpp_initialize__aeabi_                  - Undefined Weak Reference
    __cxa_finalize                            - Undefined Weak Reference
    _clock_init                               - Undefined Weak Reference
    _microlib_exit                            - Undefined Weak Reference
    __Vectors_Size                           0x00000130   Number         0  startup_stm32f10x_hd.o ABSOLUTE
    __Vectors                                0x08000000   Data           4  startup_stm32f10x_hd.o(RESET)
    __Vectors_End                            0x08000130   Data           0  startup_stm32f10x_hd.o(RESET)
    __main                                   0x08000131   Thumb Code     0  entry.o(.ARM.Collect$$$$00000000)
    _main_stk                                0x08000131   Thumb Code     0  entry2.o(.ARM.Collect$$$$00000001)
    _main_scatterload                        0x08000135   Thumb Code     0  entry5.o(.ARM.Collect$$$$00000004)
    __main_after_scatterload                 0x08000139   Thumb Code     0  entry5.o(.ARM.Collect$$$$00000004)
    _main_clock                              0x08000139   Thumb Code     0  entry7b.o(.ARM.Collect$$$$00000008)
    _main_cpp_init                           0x08000139   Thumb Code     0  entry8b.o(.ARM.Collect$$$$0000000A)
    _main_init                               0x08000139   Thumb Code     0  entry9a.o(.ARM.Collect$$$$0000000B)
    __rt_final_cpp                           0x08000141   Thumb Code     0  entry10a.o(.ARM.Collect$$$$0000000D)
    __rt_final_exit                          0x08000141   Thumb Code     0  entry11a.o(.ARM.Collect$$$$0000000F)
    NMI_Handler                              0x08000145   Thumb Code     2  stm32f10x_it.o(.text)
    HardFault_Handler                        0x08000147   Thumb Code    36  stm32f10x_it.o(.text)
    MemManage_Handler                        0x0800016b   Thumb Code     4  stm32f10x_it.o(.text)
    BusFault_Handler                         0x0800016f   Thumb Code     4  stm32f10x_it.o(.text)
    UsageFault_Handler                       0x08000173   Thumb Code     4  stm32f10x_it.o(.text)
    SVC_Handler                              0x08000177   Thumb Code     2  stm32f10x_it.o(.text)
    DebugMon_Handler                         0x08000179   Thumb Code     2  stm32f10x_it.o(.text)
    PendSV_Handler                           0x0800017b   Thumb Code     2  stm32f10x_it.o(.text)
    ch395_socket_tcp_server_init             0x08000185   Thumb Code    38  main.o(.text)
    ch395_socket_tcp_client_interrupt        0x080001ab   Thumb Code   230  main.o(.text)
    main                                     0x08000291   Thumb Code   414  main.o(.text)
    delay_init                               0x0800064d   Thumb Code    50  delay.o(.text)
    delay_us                                 0x0800067f   Thumb Code    72  delay.o(.text)
    delay_ms                                 0x080006c7   Thumb Code    72  delay.o(.text)
    uart_init                                0x08000721   Thumb Code   198  usart.o(.text)
    UsartOutStrIT                            0x080007e7   Thumb Code    38  usart.o(.text)
    UsartOutStr                              0x0800080d   Thumb Code    44  usart.o(.text)
    UsartOutChar                             0x08000839   Thumb Code    30  usart.o(.text)
    USART1_IRQHandler                        0x08000857   Thumb Code   186  usart.o(.text)
    fputc                                    0x08000911   Thumb Code    58  usart.o(.text)
    IWDG_Init                                0x08000975   Thumb Code    36  iwdg.o(.text)
    IWDG_Feed                                0x08000999   Thumb Code     8  iwdg.o(.text)
    timer2_config                            0x080009a1   Thumb Code   108  timer.o(.text)
    TIM2_IRQHandler                          0x08000a0d   Thumb Code    34  timer.o(.text)
    NVIC_Configuration                       0x08000a35   Thumb Code    12  mcu_api.o(.text)
    Reset_MCU                                0x08000a41   Thumb Code    32  mcu_api.o(.text)
    GetSTM32MCUID                            0x08000a61   Thumb Code    50  mcu_api.o(.text)
    SystemInit                               0x08000b9b   Thumb Code    78  system_stm32f10x.o(.text)
    SystemCoreClockUpdate                    0x08000be9   Thumb Code   142  system_stm32f10x.o(.text)
    NVIC_PriorityGroupConfig                 0x08000c9d   Thumb Code    10  misc.o(.text)
    NVIC_Init                                0x08000ca7   Thumb Code   100  misc.o(.text)
    NVIC_SetVectorTable                      0x08000d0b   Thumb Code    14  misc.o(.text)
    NVIC_SystemLPConfig                      0x08000d19   Thumb Code    34  misc.o(.text)
    SysTick_CLKSourceConfig                  0x08000d3b   Thumb Code    40  misc.o(.text)
    RCC_DeInit                               0x08000d79   Thumb Code    64  stm32f10x_rcc.o(.text)
    RCC_HSEConfig                            0x08000db9   Thumb Code    70  stm32f10x_rcc.o(.text)
    RCC_GetFlagStatus                        0x08000dff   Thumb Code    56  stm32f10x_rcc.o(.text)
    RCC_WaitForHSEStartUp                    0x08000e37   Thumb Code    56  stm32f10x_rcc.o(.text)
    RCC_AdjustHSICalibrationValue            0x08000e6f   Thumb Code    20  stm32f10x_rcc.o(.text)
    RCC_HSICmd                               0x08000e83   Thumb Code     6  stm32f10x_rcc.o(.text)
    RCC_PLLConfig                            0x08000e89   Thumb Code    24  stm32f10x_rcc.o(.text)
    RCC_PLLCmd                               0x08000ea1   Thumb Code     6  stm32f10x_rcc.o(.text)
    RCC_SYSCLKConfig                         0x08000ea7   Thumb Code    18  stm32f10x_rcc.o(.text)
    RCC_GetSYSCLKSource                      0x08000eb9   Thumb Code    10  stm32f10x_rcc.o(.text)
    RCC_HCLKConfig                           0x08000ec3   Thumb Code    18  stm32f10x_rcc.o(.text)
    RCC_PCLK1Config                          0x08000ed5   Thumb Code    18  stm32f10x_rcc.o(.text)
    RCC_PCLK2Config                          0x08000ee7   Thumb Code    20  stm32f10x_rcc.o(.text)
    RCC_ITConfig                             0x08000efb   Thumb Code    26  stm32f10x_rcc.o(.text)
    RCC_USBCLKConfig                         0x08000f15   Thumb Code     8  stm32f10x_rcc.o(.text)
    RCC_ADCCLKConfig                         0x08000f1d   Thumb Code    18  stm32f10x_rcc.o(.text)
    RCC_LSEConfig                            0x08000f2f   Thumb Code    50  stm32f10x_rcc.o(.text)
    RCC_LSICmd                               0x08000f61   Thumb Code     6  stm32f10x_rcc.o(.text)
    RCC_RTCCLKConfig                         0x08000f67   Thumb Code    12  stm32f10x_rcc.o(.text)
    RCC_RTCCLKCmd                            0x08000f73   Thumb Code     8  stm32f10x_rcc.o(.text)
    RCC_GetClocksFreq                        0x08000f7b   Thumb Code   192  stm32f10x_rcc.o(.text)
    RCC_AHBPeriphClockCmd                    0x0800103b   Thumb Code    26  stm32f10x_rcc.o(.text)
    RCC_APB2PeriphClockCmd                   0x08001055   Thumb Code    26  stm32f10x_rcc.o(.text)
    RCC_APB1PeriphClockCmd                   0x0800106f   Thumb Code    26  stm32f10x_rcc.o(.text)
    RCC_APB2PeriphResetCmd                   0x08001089   Thumb Code    26  stm32f10x_rcc.o(.text)
    RCC_APB1PeriphResetCmd                   0x080010a3   Thumb Code    26  stm32f10x_rcc.o(.text)
    RCC_BackupResetCmd                       0x080010bd   Thumb Code     8  stm32f10x_rcc.o(.text)
    RCC_ClockSecuritySystemCmd               0x080010c5   Thumb Code     6  stm32f10x_rcc.o(.text)
    RCC_MCOConfig                            0x080010cb   Thumb Code     6  stm32f10x_rcc.o(.text)
    RCC_ClearFlag                            0x080010d1   Thumb Code    14  stm32f10x_rcc.o(.text)
    RCC_GetITStatus                          0x080010df   Thumb Code    20  stm32f10x_rcc.o(.text)
    RCC_ClearITPendingBit                    0x080010f3   Thumb Code     6  stm32f10x_rcc.o(.text)
    USART_DeInit                             0x0800111d   Thumb Code   134  stm32f10x_usart.o(.text)
    USART_Init                               0x080011a3   Thumb Code   210  stm32f10x_usart.o(.text)
    USART_StructInit                         0x08001275   Thumb Code    24  stm32f10x_usart.o(.text)
    USART_ClockInit                          0x0800128d   Thumb Code    34  stm32f10x_usart.o(.text)
    USART_ClockStructInit                    0x080012af   Thumb Code    12  stm32f10x_usart.o(.text)
    USART_Cmd                                0x080012bb   Thumb Code    24  stm32f10x_usart.o(.text)
    USART_ITConfig                           0x080012d3   Thumb Code    74  stm32f10x_usart.o(.text)
    USART_DMACmd                             0x0800131d   Thumb Code    18  stm32f10x_usart.o(.text)
    USART_SetAddress                         0x0800132f   Thumb Code    18  stm32f10x_usart.o(.text)
    USART_WakeUpConfig                       0x08001341   Thumb Code    18  stm32f10x_usart.o(.text)
    USART_ReceiverWakeUpCmd                  0x08001353   Thumb Code    24  stm32f10x_usart.o(.text)
    USART_LINBreakDetectLengthConfig         0x0800136b   Thumb Code    18  stm32f10x_usart.o(.text)
    USART_LINCmd                             0x0800137d   Thumb Code    24  stm32f10x_usart.o(.text)
    USART_SendData                           0x08001395   Thumb Code     8  stm32f10x_usart.o(.text)
    USART_ReceiveData                        0x0800139d   Thumb Code    10  stm32f10x_usart.o(.text)
    USART_SendBreak                          0x080013a7   Thumb Code    10  stm32f10x_usart.o(.text)
    USART_SetGuardTime                       0x080013b1   Thumb Code    16  stm32f10x_usart.o(.text)
    USART_SetPrescaler                       0x080013c1   Thumb Code    16  stm32f10x_usart.o(.text)
    USART_SmartCardCmd                       0x080013d1   Thumb Code    24  stm32f10x_usart.o(.text)
    USART_SmartCardNACKCmd                   0x080013e9   Thumb Code    24  stm32f10x_usart.o(.text)
    USART_HalfDuplexCmd                      0x08001401   Thumb Code    24  stm32f10x_usart.o(.text)
    USART_OverSampling8Cmd                   0x08001419   Thumb Code    22  stm32f10x_usart.o(.text)
    USART_OneBitMethodCmd                    0x0800142f   Thumb Code    24  stm32f10x_usart.o(.text)
    USART_IrDAConfig                         0x08001447   Thumb Code    18  stm32f10x_usart.o(.text)
    USART_IrDACmd                            0x08001459   Thumb Code    24  stm32f10x_usart.o(.text)
    USART_GetFlagStatus                      0x08001471   Thumb Code    26  stm32f10x_usart.o(.text)
    USART_ClearFlag                          0x0800148b   Thumb Code    18  stm32f10x_usart.o(.text)
    USART_GetITStatus                        0x0800149d   Thumb Code    84  stm32f10x_usart.o(.text)
    USART_ClearITPendingBit                  0x080014f1   Thumb Code    52  stm32f10x_usart.o(.text)
    GPIO_DeInit                              0x08001525   Thumb Code   172  stm32f10x_gpio.o(.text)
    GPIO_AFIODeInit                          0x080015d1   Thumb Code    20  stm32f10x_gpio.o(.text)
    GPIO_Init                                0x080015e5   Thumb Code   278  stm32f10x_gpio.o(.text)
    GPIO_StructInit                          0x080016fb   Thumb Code    16  stm32f10x_gpio.o(.text)
    GPIO_ReadInputDataBit                    0x0800170b   Thumb Code    18  stm32f10x_gpio.o(.text)
    GPIO_ReadInputData                       0x0800171d   Thumb Code     8  stm32f10x_gpio.o(.text)
    GPIO_ReadOutputDataBit                   0x08001725   Thumb Code    18  stm32f10x_gpio.o(.text)
    GPIO_ReadOutputData                      0x08001737   Thumb Code     8  stm32f10x_gpio.o(.text)
    GPIO_SetBits                             0x0800173f   Thumb Code     4  stm32f10x_gpio.o(.text)
    GPIO_ResetBits                           0x08001743   Thumb Code     4  stm32f10x_gpio.o(.text)
    GPIO_WriteBit                            0x08001747   Thumb Code    10  stm32f10x_gpio.o(.text)
    GPIO_Write                               0x08001751   Thumb Code     4  stm32f10x_gpio.o(.text)
    GPIO_PinLockConfig                       0x08001755   Thumb Code    18  stm32f10x_gpio.o(.text)
    GPIO_EventOutputConfig                   0x08001767   Thumb Code    26  stm32f10x_gpio.o(.text)
    GPIO_EventOutputCmd                      0x08001781   Thumb Code     6  stm32f10x_gpio.o(.text)
    GPIO_PinRemapConfig                      0x08001787   Thumb Code   138  stm32f10x_gpio.o(.text)
    GPIO_EXTILineConfig                      0x08001811   Thumb Code    66  stm32f10x_gpio.o(.text)
    GPIO_ETH_MediaInterfaceConfig            0x08001853   Thumb Code     8  stm32f10x_gpio.o(.text)
    TIM_DeInit                               0x08001881   Thumb Code   424  stm32f10x_tim.o(.text)
    TIM_TimeBaseInit                         0x08001a29   Thumb Code   122  stm32f10x_tim.o(.text)
    TIM_OC1Init                              0x08001aa3   Thumb Code   132  stm32f10x_tim.o(.text)
    TIM_OC2Init                              0x08001b27   Thumb Code   154  stm32f10x_tim.o(.text)
    TIM_OC3Init                              0x08001bc1   Thumb Code   150  stm32f10x_tim.o(.text)
    TIM_OC4Init                              0x08001c57   Thumb Code   182  stm32f10x_tim.o(.text)
    TIM_SetIC4Prescaler                      0x08001d0d   Thumb Code    26  stm32f10x_tim.o(.text)
    TIM_SetIC3Prescaler                      0x08001da9   Thumb Code    18  stm32f10x_tim.o(.text)
    TIM_SetIC2Prescaler                      0x08001e35   Thumb Code    26  stm32f10x_tim.o(.text)
    TIM_SetIC1Prescaler                      0x08001ed1   Thumb Code    18  stm32f10x_tim.o(.text)
    TIM_ICInit                               0x08001f4f   Thumb Code   150  stm32f10x_tim.o(.text)
    TIM_PWMIConfig                           0x08001fe5   Thumb Code   124  stm32f10x_tim.o(.text)
    TIM_BDTRConfig                           0x08002061   Thumb Code    32  stm32f10x_tim.o(.text)
    TIM_TimeBaseStructInit                   0x08002081   Thumb Code    18  stm32f10x_tim.o(.text)
    TIM_OCStructInit                         0x08002093   Thumb Code    20  stm32f10x_tim.o(.text)
    TIM_ICStructInit                         0x080020a7   Thumb Code    18  stm32f10x_tim.o(.text)
    TIM_BDTRStructInit                       0x080020b9   Thumb Code    40  stm32f10x_tim.o(.text)
    TIM_Cmd                                  0x080020e1   Thumb Code    24  stm32f10x_tim.o(.text)
    TIM_CtrlPWMOutputs                       0x080020f9   Thumb Code    30  stm32f10x_tim.o(.text)
    TIM_ITConfig                             0x08002117   Thumb Code    18  stm32f10x_tim.o(.text)
    TIM_GenerateEvent                        0x08002129   Thumb Code     4  stm32f10x_tim.o(.text)
    TIM_DMAConfig                            0x0800212d   Thumb Code    10  stm32f10x_tim.o(.text)
    TIM_DMACmd                               0x08002137   Thumb Code    18  stm32f10x_tim.o(.text)
    TIM_InternalClockConfig                  0x08002149   Thumb Code    12  stm32f10x_tim.o(.text)
    TIM_SelectInputTrigger                   0x08002155   Thumb Code    18  stm32f10x_tim.o(.text)
    TIM_ITRxExternalClockConfig              0x08002167   Thumb Code    24  stm32f10x_tim.o(.text)
    TIM_TIxExternalClockConfig               0x0800217f   Thumb Code    62  stm32f10x_tim.o(.text)
    TIM_ETRConfig                            0x080021bd   Thumb Code    28  stm32f10x_tim.o(.text)
    TIM_ETRClockMode1Config                  0x080021d9   Thumb Code    54  stm32f10x_tim.o(.text)
    TIM_ETRClockMode2Config                  0x0800220f   Thumb Code    32  stm32f10x_tim.o(.text)
    TIM_PrescalerConfig                      0x0800222f   Thumb Code     6  stm32f10x_tim.o(.text)
    TIM_CounterModeConfig                    0x08002235   Thumb Code    18  stm32f10x_tim.o(.text)
    TIM_EncoderInterfaceConfig               0x08002247   Thumb Code    66  stm32f10x_tim.o(.text)
    TIM_ForcedOC1Config                      0x08002289   Thumb Code    18  stm32f10x_tim.o(.text)
    TIM_ForcedOC2Config                      0x0800229b   Thumb Code    26  stm32f10x_tim.o(.text)
    TIM_ForcedOC3Config                      0x080022b5   Thumb Code    18  stm32f10x_tim.o(.text)
    TIM_ForcedOC4Config                      0x080022c7   Thumb Code    26  stm32f10x_tim.o(.text)
    TIM_ARRPreloadConfig                     0x080022e1   Thumb Code    24  stm32f10x_tim.o(.text)
    TIM_SelectCOM                            0x080022f9   Thumb Code    24  stm32f10x_tim.o(.text)
    TIM_SelectCCDMA                          0x08002311   Thumb Code    24  stm32f10x_tim.o(.text)
    TIM_CCPreloadControl                     0x08002329   Thumb Code    24  stm32f10x_tim.o(.text)
    TIM_OC1PreloadConfig                     0x08002341   Thumb Code    18  stm32f10x_tim.o(.text)
    TIM_OC2PreloadConfig                     0x08002353   Thumb Code    26  stm32f10x_tim.o(.text)
    TIM_OC3PreloadConfig                     0x0800236d   Thumb Code    18  stm32f10x_tim.o(.text)
    TIM_OC4PreloadConfig                     0x0800237f   Thumb Code    26  stm32f10x_tim.o(.text)
    TIM_OC1FastConfig                        0x08002399   Thumb Code    18  stm32f10x_tim.o(.text)
    TIM_OC2FastConfig                        0x080023ab   Thumb Code    26  stm32f10x_tim.o(.text)
    TIM_OC3FastConfig                        0x080023c5   Thumb Code    18  stm32f10x_tim.o(.text)
    TIM_OC4FastConfig                        0x080023d7   Thumb Code    26  stm32f10x_tim.o(.text)
    TIM_ClearOC1Ref                          0x080023f1   Thumb Code    18  stm32f10x_tim.o(.text)
    TIM_ClearOC2Ref                          0x08002403   Thumb Code    24  stm32f10x_tim.o(.text)
    TIM_ClearOC3Ref                          0x0800241b   Thumb Code    18  stm32f10x_tim.o(.text)
    TIM_ClearOC4Ref                          0x0800242d   Thumb Code    24  stm32f10x_tim.o(.text)
    TIM_OC1PolarityConfig                    0x08002445   Thumb Code    18  stm32f10x_tim.o(.text)
    TIM_OC1NPolarityConfig                   0x08002457   Thumb Code    18  stm32f10x_tim.o(.text)
    TIM_OC2PolarityConfig                    0x08002469   Thumb Code    26  stm32f10x_tim.o(.text)
    TIM_OC2NPolarityConfig                   0x08002483   Thumb Code    26  stm32f10x_tim.o(.text)
    TIM_OC3PolarityConfig                    0x0800249d   Thumb Code    26  stm32f10x_tim.o(.text)
    TIM_OC3NPolarityConfig                   0x080024b7   Thumb Code    26  stm32f10x_tim.o(.text)
    TIM_OC4PolarityConfig                    0x080024d1   Thumb Code    26  stm32f10x_tim.o(.text)
    TIM_CCxCmd                               0x080024eb   Thumb Code    30  stm32f10x_tim.o(.text)
    TIM_CCxNCmd                              0x08002509   Thumb Code    30  stm32f10x_tim.o(.text)
    TIM_SelectOCxM                           0x08002527   Thumb Code    82  stm32f10x_tim.o(.text)
    TIM_UpdateDisableConfig                  0x08002579   Thumb Code    24  stm32f10x_tim.o(.text)
    TIM_UpdateRequestConfig                  0x08002591   Thumb Code    24  stm32f10x_tim.o(.text)
    TIM_SelectHallSensor                     0x080025a9   Thumb Code    24  stm32f10x_tim.o(.text)
    TIM_SelectOnePulseMode                   0x080025c1   Thumb Code    18  stm32f10x_tim.o(.text)
    TIM_SelectOutputTrigger                  0x080025d3   Thumb Code    18  stm32f10x_tim.o(.text)
    TIM_SelectSlaveMode                      0x080025e5   Thumb Code    18  stm32f10x_tim.o(.text)
    TIM_SelectMasterSlaveMode                0x080025f7   Thumb Code    18  stm32f10x_tim.o(.text)
    TIM_SetCounter                           0x08002609   Thumb Code     4  stm32f10x_tim.o(.text)
    TIM_SetAutoreload                        0x0800260d   Thumb Code     4  stm32f10x_tim.o(.text)
    TIM_SetCompare1                          0x08002611   Thumb Code     4  stm32f10x_tim.o(.text)
    TIM_SetCompare2                          0x08002615   Thumb Code     4  stm32f10x_tim.o(.text)
    TIM_SetCompare3                          0x08002619   Thumb Code     4  stm32f10x_tim.o(.text)
    TIM_SetCompare4                          0x0800261d   Thumb Code     6  stm32f10x_tim.o(.text)
    TIM_SetClockDivision                     0x08002623   Thumb Code    18  stm32f10x_tim.o(.text)
    TIM_GetCapture1                          0x08002635   Thumb Code     6  stm32f10x_tim.o(.text)
    TIM_GetCapture2                          0x0800263b   Thumb Code     6  stm32f10x_tim.o(.text)
    TIM_GetCapture3                          0x08002641   Thumb Code     6  stm32f10x_tim.o(.text)
    TIM_GetCapture4                          0x08002647   Thumb Code     8  stm32f10x_tim.o(.text)
    TIM_GetCounter                           0x0800264f   Thumb Code     6  stm32f10x_tim.o(.text)
    TIM_GetPrescaler                         0x08002655   Thumb Code     6  stm32f10x_tim.o(.text)
    TIM_GetFlagStatus                        0x0800265b   Thumb Code    18  stm32f10x_tim.o(.text)
    TIM_ClearFlag                            0x0800266d   Thumb Code     6  stm32f10x_tim.o(.text)
    TIM_GetITStatus                          0x08002673   Thumb Code    34  stm32f10x_tim.o(.text)
    TIM_ClearITPendingBit                    0x08002695   Thumb Code     6  stm32f10x_tim.o(.text)
    IWDG_WriteAccessCmd                      0x0800269d   Thumb Code     6  stm32f10x_iwdg.o(.text)
    IWDG_SetPrescaler                        0x080026a3   Thumb Code     6  stm32f10x_iwdg.o(.text)
    IWDG_SetReload                           0x080026a9   Thumb Code     6  stm32f10x_iwdg.o(.text)
    IWDG_ReloadCounter                       0x080026af   Thumb Code    10  stm32f10x_iwdg.o(.text)
    IWDG_Enable                              0x080026b9   Thumb Code    10  stm32f10x_iwdg.o(.text)
    IWDG_GetFlagStatus                       0x080026c3   Thumb Code    20  stm32f10x_iwdg.o(.text)
    SPI_I2S_DeInit                           0x080026dd   Thumb Code    76  stm32f10x_spi.o(.text)
    SPI_Init                                 0x08002729   Thumb Code    60  stm32f10x_spi.o(.text)
    I2S_Init                                 0x08002765   Thumb Code   226  stm32f10x_spi.o(.text)
    SPI_StructInit                           0x08002847   Thumb Code    24  stm32f10x_spi.o(.text)
    I2S_StructInit                           0x0800285f   Thumb Code    20  stm32f10x_spi.o(.text)
    SPI_Cmd                                  0x08002873   Thumb Code    24  stm32f10x_spi.o(.text)
    I2S_Cmd                                  0x0800288b   Thumb Code    24  stm32f10x_spi.o(.text)
    SPI_I2S_ITConfig                         0x080028a3   Thumb Code    32  stm32f10x_spi.o(.text)
    SPI_I2S_DMACmd                           0x080028c3   Thumb Code    18  stm32f10x_spi.o(.text)
    SPI_I2S_SendData                         0x080028d5   Thumb Code     4  stm32f10x_spi.o(.text)
    SPI_I2S_ReceiveData                      0x080028d9   Thumb Code     6  stm32f10x_spi.o(.text)
    SPI_NSSInternalSoftwareConfig            0x080028df   Thumb Code    30  stm32f10x_spi.o(.text)
    SPI_SSOutputCmd                          0x080028fd   Thumb Code    24  stm32f10x_spi.o(.text)
    SPI_DataSizeConfig                       0x08002915   Thumb Code    18  stm32f10x_spi.o(.text)
    SPI_TransmitCRC                          0x08002927   Thumb Code    10  stm32f10x_spi.o(.text)
    SPI_CalculateCRC                         0x08002931   Thumb Code    24  stm32f10x_spi.o(.text)
    SPI_GetCRC                               0x08002949   Thumb Code    16  stm32f10x_spi.o(.text)
    SPI_GetCRCPolynomial                     0x08002959   Thumb Code     6  stm32f10x_spi.o(.text)
    SPI_BiDirectionalLineConfig              0x0800295f   Thumb Code    28  stm32f10x_spi.o(.text)
    SPI_I2S_GetFlagStatus                    0x0800297b   Thumb Code    18  stm32f10x_spi.o(.text)
    SPI_I2S_ClearFlag                        0x0800298d   Thumb Code     6  stm32f10x_spi.o(.text)
    SPI_I2S_GetITStatus                      0x08002993   Thumb Code    52  stm32f10x_spi.o(.text)
    SPI_I2S_ClearITPendingBit                0x080029c7   Thumb Code    20  stm32f10x_spi.o(.text)
    Reset_Handler                            0x080029e9   Thumb Code     8  startup_stm32f10x_hd.o(.text)
    SysTick_Handler                          0x08002a01   Thumb Code     2  startup_stm32f10x_hd.o(.text)
    ADC1_2_IRQHandler                        0x08002a03   Thumb Code     0  startup_stm32f10x_hd.o(.text)
    ADC3_IRQHandler                          0x08002a03   Thumb Code     0  startup_stm32f10x_hd.o(.text)
    CAN1_RX1_IRQHandler                      0x08002a03   Thumb Code     0  startup_stm32f10x_hd.o(.text)
    CAN1_SCE_IRQHandler                      0x08002a03   Thumb Code     0  startup_stm32f10x_hd.o(.text)
    DMA1_Channel1_IRQHandler                 0x08002a03   Thumb Code     0  startup_stm32f10x_hd.o(.text)
    DMA1_Channel2_IRQHandler                 0x08002a03   Thumb Code     0  startup_stm32f10x_hd.o(.text)
    DMA1_Channel3_IRQHandler                 0x08002a03   Thumb Code     0  startup_stm32f10x_hd.o(.text)
    DMA1_Channel4_IRQHandler                 0x08002a03   Thumb Code     0  startup_stm32f10x_hd.o(.text)
    DMA1_Channel5_IRQHandler                 0x08002a03   Thumb Code     0  startup_stm32f10x_hd.o(.text)
    DMA1_Channel6_IRQHandler                 0x08002a03   Thumb Code     0  startup_stm32f10x_hd.o(.text)
    DMA1_Channel7_IRQHandler                 0x08002a03   Thumb Code     0  startup_stm32f10x_hd.o(.text)
    DMA2_Channel1_IRQHandler                 0x08002a03   Thumb Code     0  startup_stm32f10x_hd.o(.text)
    DMA2_Channel2_IRQHandler                 0x08002a03   Thumb Code     0  startup_stm32f10x_hd.o(.text)
    DMA2_Channel3_IRQHandler                 0x08002a03   Thumb Code     0  startup_stm32f10x_hd.o(.text)
    DMA2_Channel4_5_IRQHandler               0x08002a03   Thumb Code     0  startup_stm32f10x_hd.o(.text)
    EXTI0_IRQHandler                         0x08002a03   Thumb Code     0  startup_stm32f10x_hd.o(.text)
    EXTI15_10_IRQHandler                     0x08002a03   Thumb Code     0  startup_stm32f10x_hd.o(.text)
    EXTI1_IRQHandler                         0x08002a03   Thumb Code     0  startup_stm32f10x_hd.o(.text)
    EXTI2_IRQHandler                         0x08002a03   Thumb Code     0  startup_stm32f10x_hd.o(.text)
    EXTI3_IRQHandler                         0x08002a03   Thumb Code     0  startup_stm32f10x_hd.o(.text)
    EXTI4_IRQHandler                         0x08002a03   Thumb Code     0  startup_stm32f10x_hd.o(.text)
    EXTI9_5_IRQHandler                       0x08002a03   Thumb Code     0  startup_stm32f10x_hd.o(.text)
    FLASH_IRQHandler                         0x08002a03   Thumb Code     0  startup_stm32f10x_hd.o(.text)
    FSMC_IRQHandler                          0x08002a03   Thumb Code     0  startup_stm32f10x_hd.o(.text)
    I2C1_ER_IRQHandler                       0x08002a03   Thumb Code     0  startup_stm32f10x_hd.o(.text)
    I2C1_EV_IRQHandler                       0x08002a03   Thumb Code     0  startup_stm32f10x_hd.o(.text)
    I2C2_ER_IRQHandler                       0x08002a03   Thumb Code     0  startup_stm32f10x_hd.o(.text)
    I2C2_EV_IRQHandler                       0x08002a03   Thumb Code     0  startup_stm32f10x_hd.o(.text)
    PVD_IRQHandler                           0x08002a03   Thumb Code     0  startup_stm32f10x_hd.o(.text)
    RCC_IRQHandler                           0x08002a03   Thumb Code     0  startup_stm32f10x_hd.o(.text)
    RTCAlarm_IRQHandler                      0x08002a03   Thumb Code     0  startup_stm32f10x_hd.o(.text)
    RTC_IRQHandler                           0x08002a03   Thumb Code     0  startup_stm32f10x_hd.o(.text)
    SDIO_IRQHandler                          0x08002a03   Thumb Code     0  startup_stm32f10x_hd.o(.text)
    SPI1_IRQHandler                          0x08002a03   Thumb Code     0  startup_stm32f10x_hd.o(.text)
    SPI2_IRQHandler                          0x08002a03   Thumb Code     0  startup_stm32f10x_hd.o(.text)
    SPI3_IRQHandler                          0x08002a03   Thumb Code     0  startup_stm32f10x_hd.o(.text)
    TAMPER_IRQHandler                        0x08002a03   Thumb Code     0  startup_stm32f10x_hd.o(.text)
    TIM1_BRK_IRQHandler                      0x08002a03   Thumb Code     0  startup_stm32f10x_hd.o(.text)
    TIM1_CC_IRQHandler                       0x08002a03   Thumb Code     0  startup_stm32f10x_hd.o(.text)
    TIM1_TRG_COM_IRQHandler                  0x08002a03   Thumb Code     0  startup_stm32f10x_hd.o(.text)
    TIM1_UP_IRQHandler                       0x08002a03   Thumb Code     0  startup_stm32f10x_hd.o(.text)
    TIM3_IRQHandler                          0x08002a03   Thumb Code     0  startup_stm32f10x_hd.o(.text)
    TIM4_IRQHandler                          0x08002a03   Thumb Code     0  startup_stm32f10x_hd.o(.text)
    TIM5_IRQHandler                          0x08002a03   Thumb Code     0  startup_stm32f10x_hd.o(.text)
    TIM6_IRQHandler                          0x08002a03   Thumb Code     0  startup_stm32f10x_hd.o(.text)
    TIM7_IRQHandler                          0x08002a03   Thumb Code     0  startup_stm32f10x_hd.o(.text)
    TIM8_BRK_IRQHandler                      0x08002a03   Thumb Code     0  startup_stm32f10x_hd.o(.text)
    TIM8_CC_IRQHandler                       0x08002a03   Thumb Code     0  startup_stm32f10x_hd.o(.text)
    TIM8_TRG_COM_IRQHandler                  0x08002a03   Thumb Code     0  startup_stm32f10x_hd.o(.text)
    TIM8_UP_IRQHandler                       0x08002a03   Thumb Code     0  startup_stm32f10x_hd.o(.text)
    UART4_IRQHandler                         0x08002a03   Thumb Code     0  startup_stm32f10x_hd.o(.text)
    UART5_IRQHandler                         0x08002a03   Thumb Code     0  startup_stm32f10x_hd.o(.text)
    USART2_IRQHandler                        0x08002a03   Thumb Code     0  startup_stm32f10x_hd.o(.text)
    USART3_IRQHandler                        0x08002a03   Thumb Code     0  startup_stm32f10x_hd.o(.text)
    USBWakeUp_IRQHandler                     0x08002a03   Thumb Code     0  startup_stm32f10x_hd.o(.text)
    USB_HP_CAN1_TX_IRQHandler                0x08002a03   Thumb Code     0  startup_stm32f10x_hd.o(.text)
    USB_LP_CAN1_RX0_IRQHandler               0x08002a03   Thumb Code     0  startup_stm32f10x_hd.o(.text)
    WWDG_IRQHandler                          0x08002a03   Thumb Code     0  startup_stm32f10x_hd.o(.text)
    rbCreate                                 0x08002a0d   Thumb Code    20  looplist.o(.text)
    rbDelete                                 0x08002a21   Thumb Code    18  looplist.o(.text)
    rbCapacity                               0x08002a33   Thumb Code    14  looplist.o(.text)
    rbCanRead                                0x08002a41   Thumb Code    56  looplist.o(.text)
    rbCanWrite                               0x08002a79   Thumb Code    30  looplist.o(.text)
    rbRead                                   0x08002a97   Thumb Code   164  looplist.o(.text)
    rbWrite                                  0x08002b3b   Thumb Code   160  looplist.o(.text)
    PutData                                  0x08002bdb   Thumb Code    46  looplist.o(.text)
    mDelayuS                                 0x08002c09   Thumb Code    12  ch395spi.o(.text)
    mDelaymS                                 0x08002c15   Thumb Code    12  ch395spi.o(.text)
    CH395_PORT_INIT                          0x08002c21   Thumb Code   282  ch395spi.o(.text)
    Spi395Exchange                           0x08002d3b   Thumb Code    50  ch395spi.o(.text)
    xWriteCH395Cmd                           0x08002d6d   Thumb Code    34  ch395spi.o(.text)
    xWriteCH395Data                          0x08002d8f   Thumb Code    12  ch395spi.o(.text)
    xReadCH395Data                           0x08002d9b   Thumb Code    10  ch395spi.o(.text)
    Query395Interrupt                        0x08002da5   Thumb Code    16  ch395spi.o(.text)
    CH395_RST                                0x08002db5   Thumb Code    36  ch395spi.o(.text)
    CH395CMDReset                            0x08002de5   Thumb Code    10  ch395cmd.o(.text)
    CH395CMDSleep                            0x08002def   Thumb Code    10  ch395cmd.o(.text)
    CH395CMDGetVer                           0x08002df9   Thumb Code    18  ch395cmd.o(.text)
    CH395CMDCheckExist                       0x08002e0b   Thumb Code    26  ch395cmd.o(.text)
    CH395CMDSetPHY                           0x08002e25   Thumb Code    18  ch395cmd.o(.text)
    CH395CMDGetPHYStatus                     0x08002e37   Thumb Code    18  ch395cmd.o(.text)
    CH395CMDGetGlobIntStatus                 0x08002e49   Thumb Code    18  ch395cmd.o(.text)
    CH395GetCmdStatus                        0x08002e5b   Thumb Code    18  ch395cmd.o(.text)
    CH395CMDInitCH395                        0x08002e6d   Thumb Code    54  ch395cmd.o(.text)
    CH395CMDSetUartBaudRate                  0x08002ea3   Thumb Code    34  ch395cmd.o(.text)
    CH395CMDSetIPAddr                        0x08002ec5   Thumb Code    32  ch395cmd.o(.text)
    CH395CMDSetGWIPAddr                      0x08002ee5   Thumb Code    32  ch395cmd.o(.text)
    CH395CMDSetMASKAddr                      0x08002f05   Thumb Code    32  ch395cmd.o(.text)
    CH395CMDSetMACAddr                       0x08002f25   Thumb Code    38  ch395cmd.o(.text)
    CH395CMDGetMACAddr                       0x08002f4b   Thumb Code    32  ch395cmd.o(.text)
    CH395CMDSetMACFilt                       0x08002f6b   Thumb Code    78  ch395cmd.o(.text)
    CH395CMDGetUnreachIPPT                   0x08002fb9   Thumb Code    32  ch395cmd.o(.text)
    CH395CMDGetRemoteIPP                     0x08002fd9   Thumb Code    40  ch395cmd.o(.text)
    CH395SetSocketDesIP                      0x08003001   Thumb Code    52  ch395cmd.o(.text)
    CH395SetSocketProtType                   0x08003035   Thumb Code    26  ch395cmd.o(.text)
    CH395SetSocketDesPort                    0x0800304f   Thumb Code    32  ch395cmd.o(.text)
    CH395SetSocketSourPort                   0x0800306f   Thumb Code    32  ch395cmd.o(.text)
    CH395SetSocketIPRAWProto                 0x0800308f   Thumb Code    26  ch395cmd.o(.text)
    CH395EnablePing                          0x080030a9   Thumb Code    18  ch395cmd.o(.text)
    CH395SendData                            0x080030bb   Thumb Code    58  ch395cmd.o(.text)
    CH395GetRecvLength                       0x080030f5   Thumb Code    36  ch395cmd.o(.text)
    CH395ClearRecvBuf                        0x08003119   Thumb Code    18  ch395cmd.o(.text)
    CH395GetRecvData                         0x0800312b   Thumb Code    70  ch395cmd.o(.text)
    CH395CMDSetRetryCount                    0x08003171   Thumb Code    18  ch395cmd.o(.text)
    CH395CMDSetRetryPeriod                   0x08003183   Thumb Code    24  ch395cmd.o(.text)
    CH395CMDGetSocketStatus                  0x0800319b   Thumb Code    36  ch395cmd.o(.text)
    CH395OpenSocket                          0x080031bf   Thumb Code    62  ch395cmd.o(.text)
    CH395CloseSocket                         0x080031fd   Thumb Code    62  ch395cmd.o(.text)
    CH395TCPConnect                          0x0800323b   Thumb Code    62  ch395cmd.o(.text)
    CH395TCPListen                           0x08003279   Thumb Code    62  ch395cmd.o(.text)
    CH395TCPDisconnect                       0x080032b7   Thumb Code    62  ch395cmd.o(.text)
    CH395GetSocketInt                        0x080032f5   Thumb Code    32  ch395cmd.o(.text)
    CH395CRCRet6Bit                          0x08003315   Thumb Code    62  ch395cmd.o(.text)
    CH395DHCPEnable                          0x08003353   Thumb Code    60  ch395cmd.o(.text)
    CH395GetDHCPStatus                       0x0800338f   Thumb Code    18  ch395cmd.o(.text)
    CH395GetIPInf                            0x080033a1   Thumb Code    32  ch395cmd.o(.text)
    CH395WriteGPIOAddr                       0x080033c1   Thumb Code    26  ch395cmd.o(.text)
    CH395ReadGPIOAddr                        0x080033db   Thumb Code    32  ch395cmd.o(.text)
    CH395EEPROMErase                         0x080033fb   Thumb Code    38  ch395cmd.o(.text)
    CH395EEPROMWrite                         0x08003421   Thumb Code    86  ch395cmd.o(.text)
    CH395EEPROMRead                          0x08003477   Thumb Code    60  ch395cmd.o(.text)
    CH395SetTCPMss                           0x080034b3   Thumb Code    24  ch395cmd.o(.text)
    CH395SetSocketRecvBuf                    0x080034cb   Thumb Code    34  ch395cmd.o(.text)
    CH395SetSocketSendBuf                    0x080034ed   Thumb Code    34  ch395cmd.o(.text)
    CH395UDPSendTo                           0x0800350f   Thumb Code    46  ch395cmd.o(.text)
    CH395SetStartPara                        0x0800353d   Thumb Code    40  ch395cmd.o(.text)
    CH395CMDGetGlobIntStatus_ALL             0x08003565   Thumb Code    34  ch395cmd.o(.text)
    __aeabi_memcpy                           0x0800358d   Thumb Code    36  memcpya.o(.text)
    __aeabi_memcpy4                          0x0800358d   Thumb Code     0  memcpya.o(.text)
    __aeabi_memcpy8                          0x0800358d   Thumb Code     0  memcpya.o(.text)
    __aeabi_uldivmod                         0x080035b1   Thumb Code    98  uldiv.o(.text)
    __scatterload                            0x08003615   Thumb Code    28  init.o(.text)
    __scatterload_rt2                        0x08003615   Thumb Code     0  init.o(.text)
    __aeabi_llsl                             0x08003639   Thumb Code    30  llshl.o(.text)
    _ll_shift_l                              0x08003639   Thumb Code     0  llshl.o(.text)
    __aeabi_llsr                             0x08003657   Thumb Code    32  llushr.o(.text)
    _ll_ushift_r                             0x08003657   Thumb Code     0  llushr.o(.text)
    __decompress                             0x08003677   Thumb Code     0  __dclz77c.o(.text)
    __decompress2                            0x08003677   Thumb Code    94  __dclz77c.o(.text)
    __0printf$8                              0x080036d5   Thumb Code    22  printf8.o(i.__0printf$8)
    __1printf$8                              0x080036d5   Thumb Code     0  printf8.o(i.__0printf$8)
    __2printf                                0x080036d5   Thumb Code     0  printf8.o(i.__0printf$8)
    __0sprintf$8                             0x080036f5   Thumb Code    34  printf8.o(i.__0sprintf$8)
    __1sprintf$8                             0x080036f5   Thumb Code     0  printf8.o(i.__0sprintf$8)
    __2sprintf                               0x080036f5   Thumb Code     0  printf8.o(i.__0sprintf$8)
    __scatterload_copy                       0x0800371d   Thumb Code    14  handlers.o(i.__scatterload_copy)
    __scatterload_null                       0x0800372b   Thumb Code     2  handlers.o(i.__scatterload_null)
    __scatterload_zeroinit                   0x0800372d   Thumb Code    14  handlers.o(i.__scatterload_zeroinit)
    Region$$Table$$Base                      0x08003ba8   Number         0  anon$$obj.o(Region$$Table)
    Region$$Table$$Limit                     0x08003bc8   Number         0  anon$$obj.o(Region$$Table)
    HtmlBuffer                               0x20000000   Data        2716  main.o(.data)
    ch395_version                            0x20000a9c   Data           1  main.o(.data)
    ch395_status                             0x20000aa0   Data           4  main.o(.data)
    SocketServerPort                         0x20000aa4   Data           2  main.o(.data)
    SocketServerStatus                       0x20000aa6   Data           1  main.o(.data)
    http_html_data                           0x20000aa7   Data        1024  main.o(.data)
    rb_t_usart1_send_byte                    0x20000eac   Data           1  usart.o(.data)
    usart1_read_count                        0x20000eb0   Data           4  usart.o(.data)
    usart1_idle_flag                         0x20000eb4   Data           1  usart.o(.data)
    Timer2Cnt                                0x20000eb8   Data           4  timer.o(.data)
    idAddr                                   0x20000ebc   Data          40  mcu_api.o(.data)
    SystemCoreClock                          0x20000ee4   Data           4  system_stm32f10x.o(.data)
    AHBPrescTable                            0x20000ee8   Data          16  system_stm32f10x.o(.data)
    __stdout                                 0x20000f0c   Data           4  stdout.o(.data)
    recv_buff                                0x20000f10   Data         500  main.o(.bss)
    buf                                      0x20001104   Data          20  main.o(.bss)
    http_response_data                       0x20001118   Data        1024  main.o(.bss)
    rb_t_usart1_read                         0x20001518   Data          16  usart.o(.bss)
    rb_t_usart1_read_buff                    0x20001528   Data        1024  usart.o(.bss)
    usart1_read_buff_copy                    0x20001928   Data        1024  usart.o(.bss)
    rb_t_usart1_send                         0x20001d28   Data          16  usart.o(.bss)
    rb_t_usart1_send_buff                    0x20001d38   Data        1500  usart.o(.bss)
    __initial_sp                             0x20002718   Data           0  startup_stm32f10x_hd.o(STACK)



==============================================================================

Memory Map of the image

  Image Entry point : 0x08000131

  Load Region LR_IROM1 (Base: 0x08000000, Size: 0x00004ad8, Max: 0x00020000, ABSOLUTE, COMPRESSED[0x0000409c])

    Execution Region ER_IROM1 (Base: 0x08000000, Size: 0x00003bc8, Max: 0x00020000, ABSOLUTE)

    Base Addr    Size         Type   Attr      Idx    E Section Name        Object

    0x08000000   0x00000130   Data   RO          396    RESET               startup_stm32f10x_hd.o
    0x08000130   0x00000000   Code   RO          461  * .ARM.Collect$$$$00000000  mc_w.l(entry.o)
    0x08000130   0x00000004   Code   RO          729    .ARM.Collect$$$$00000001  mc_w.l(entry2.o)
    0x08000134   0x00000004   Code   RO          732    .ARM.Collect$$$$00000004  mc_w.l(entry5.o)
    0x08000138   0x00000000   Code   RO          734    .ARM.Collect$$$$00000008  mc_w.l(entry7b.o)
    0x08000138   0x00000000   Code   RO          736    .ARM.Collect$$$$0000000A  mc_w.l(entry8b.o)
    0x08000138   0x00000008   Code   RO          737    .ARM.Collect$$$$0000000B  mc_w.l(entry9a.o)
    0x08000140   0x00000000   Code   RO          739    .ARM.Collect$$$$0000000D  mc_w.l(entry10a.o)
    0x08000140   0x00000000   Code   RO          741    .ARM.Collect$$$$0000000F  mc_w.l(entry11a.o)
    0x08000140   0x00000004   Code   RO          730    .ARM.Collect$$$$00002712  mc_w.l(entry2.o)
    0x08000144   0x00000040   Code   RO            1    .text               stm32f10x_it.o
    0x08000184   0x000004c8   Code   RO          104    .text               main.o
    0x0800064c   0x000000d4   Code   RO          172    .text               delay.o
    0x08000720   0x00000254   Code   RO          189    .text               usart.o
    0x08000974   0x0000002c   Code   RO          212    .text               iwdg.o
    0x080009a0   0x00000094   Code   RO          227    .text               timer.o
    0x08000a34   0x00000088   Code   RO          245    .text               mcu_api.o
    0x08000abc   0x000001e0   Code   RO          278    .text               system_stm32f10x.o
    0x08000c9c   0x000000dc   Code   RO          296    .text               misc.o
    0x08000d78   0x000003a4   Code   RO          308    .text               stm32f10x_rcc.o
    0x0800111c   0x00000408   Code   RO          322    .text               stm32f10x_usart.o
    0x08001524   0x0000035c   Code   RO          346    .text               stm32f10x_gpio.o
    0x08001880   0x00000e1a   Code   RO          358    .text               stm32f10x_tim.o
    0x0800269a   0x00000002   PAD
    0x0800269c   0x00000040   Code   RO          370    .text               stm32f10x_iwdg.o
    0x080026dc   0x0000030c   Code   RO          382    .text               stm32f10x_spi.o
    0x080029e8   0x00000024   Code   RO          397    .text               startup_stm32f10x_hd.o
    0x08002a0c   0x000001fc   Code   RO          416    .text               looplist.o
    0x08002c08   0x000001dc   Code   RO          431    .text               ch395spi.o
    0x08002de4   0x000007a8   Code   RO          446    .text               ch395cmd.o
    0x0800358c   0x00000024   Code   RO          464    .text               mc_w.l(memcpya.o)
    0x080035b0   0x00000062   Code   RO          746    .text               mc_w.l(uldiv.o)
    0x08003612   0x00000002   PAD
    0x08003614   0x00000024   Code   RO          759    .text               mc_w.l(init.o)
    0x08003638   0x0000001e   Code   RO          761    .text               mc_w.l(llshl.o)
    0x08003656   0x00000020   Code   RO          763    .text               mc_w.l(llushr.o)
    0x08003676   0x0000005e   Code   RO          777    .text               mc_w.l(__dclz77c.o)
    0x080036d4   0x00000020   Code   RO          675    i.__0printf$8       mc_w.l(printf8.o)
    0x080036f4   0x00000028   Code   RO          677    i.__0sprintf$8      mc_w.l(printf8.o)
    0x0800371c   0x0000000e   Code   RO          771    i.__scatterload_copy  mc_w.l(handlers.o)
    0x0800372a   0x00000002   Code   RO          772    i.__scatterload_null  mc_w.l(handlers.o)
    0x0800372c   0x0000000e   Code   RO          773    i.__scatterload_zeroinit  mc_w.l(handlers.o)
    0x0800373a   0x00000002   PAD
    0x0800373c   0x00000410   Code   RO          682    i._printf_core      mc_w.l(printf8.o)
    0x08003b4c   0x00000024   Code   RO          683    i._printf_post_padding  mc_w.l(printf8.o)
    0x08003b70   0x0000002e   Code   RO          684    i._printf_pre_padding  mc_w.l(printf8.o)
    0x08003b9e   0x0000000a   Code   RO          686    i._sputc            mc_w.l(printf8.o)
    0x08003ba8   0x00000020   Data   RO          769    Region$$Table       anon$$obj.o


    Execution Region RW_IRAM1 (Base: 0x20000000, Size: 0x00002718, Max: 0x00005000, ABSOLUTE, COMPRESSED[0x000004d4])

    Base Addr    Size         Type   Attr      Idx    E Section Name        Object

    0x20000000   0x00000ea7   Data   RW          106    .data               main.o
    0x20000ea7   0x00000001   PAD
    0x20000ea8   0x00000004   Data   RW          173    .data               delay.o
    0x20000eac   0x0000000a   Data   RW          191    .data               usart.o
    0x20000eb6   0x00000002   PAD
    0x20000eb8   0x00000004   Data   RW          228    .data               timer.o
    0x20000ebc   0x00000028   Data   RW          246    .data               mcu_api.o
    0x20000ee4   0x00000014   Data   RW          279    .data               system_stm32f10x.o
    0x20000ef8   0x00000014   Data   RW          309    .data               stm32f10x_rcc.o
    0x20000f0c   0x00000004   Data   RW          743    .data               mc_w.l(stdout.o)
    0x20000f10   0x00000608   Zero   RW          105    .bss                main.o
    0x20001518   0x00000dfc   Zero   RW          190    .bss                usart.o
    0x20002314   0x00000004   PAD
    0x20002318   0x00000400   Zero   RW          394    STACK               startup_stm32f10x_hd.o


==============================================================================

Image component sizes


      Code (inc. data)   RO Data    RW Data    ZI Data      Debug   Object Name

      1960          6          0          0          0      12896   ch395cmd.o
       476         12          0          0          0       6385   ch395spi.o
         0          0          0          0          0         32   core_cm3.o
       212         18          0          4          0       1103   delay.o
        44          0          0          0          0        686   iwdg.o
       508          0          0          0          0       3423   looplist.o
      1224        542          0       3751       1544       7890   main.o
       136         42          0         40          0       1622   mcu_api.o
       220         22          0          0          0       1885   misc.o
        36          8        304          0       1024        836   startup_stm32f10x_hd.o
       860         38          0          0          0       5733   stm32f10x_gpio.o
        64          8          0          0          0     275041   stm32f10x_it.o
        64          6          0          0          0       1313   stm32f10x_iwdg.o
       932         36          0         20          0       8952   stm32f10x_rcc.o
       780         14          0          0          0       6610   stm32f10x_spi.o
      3610         88          0          0          0      22216   stm32f10x_tim.o
      1032         22          0          0          0       8452   stm32f10x_usart.o
       480         38          0         20          0       1959   system_stm32f10x.o
       148          6          0          4          0       1024   timer.o
       596         42          0         10       3580       4806   usart.o

    ----------------------------------------------------------------------
     13384        948        336       3852       6152     372864   Object Totals
         0          0         32          0          0          0   (incl. Generated)
         2          0          0          3          4          0   (incl. Padding)

    ----------------------------------------------------------------------

      Code (inc. data)   RO Data    RW Data    ZI Data      Debug   Library Member Name

        94          0          0          0          0          0   __dclz77c.o
         0          0          0          0          0          0   entry.o
         0          0          0          0          0          0   entry10a.o
         0          0          0          0          0          0   entry11a.o
         8          4          0          0          0          0   entry2.o
         4          0          0          0          0          0   entry5.o
         0          0          0          0          0          0   entry7b.o
         0          0          0          0          0          0   entry8b.o
         8          4          0          0          0          0   entry9a.o
        30          0          0          0          0          0   handlers.o
        36          8          0          0          0         68   init.o
        30          0          0          0          0         68   llshl.o
        32          0          0          0          0         68   llushr.o
        36          0          0          0          0         68   memcpya.o
      1204         60          0          0          0        504   printf8.o
         0          0          0          4          0          0   stdout.o
        98          0          0          0          0         92   uldiv.o

    ----------------------------------------------------------------------
      1584         76          0          4          0        868   Library Totals
         4          0          0          0          0          0   (incl. Padding)

    ----------------------------------------------------------------------

      Code (inc. data)   RO Data    RW Data    ZI Data      Debug   Library Name

      1580         76          0          4          0        868   mc_w.l

    ----------------------------------------------------------------------
      1584         76          0          4          0        868   Library Totals

    ----------------------------------------------------------------------

==============================================================================


      Code (inc. data)   RO Data    RW Data    ZI Data      Debug   

     14968       1024        336       3856       6152     371832   Grand Totals
     14968       1024        336       1236       6152     371832   ELF Image Totals (compressed)
     14968       1024        336       1236          0          0   ROM Totals

==============================================================================

    Total RO  Size (Code + RO Data)                15304 (  14.95kB)
    Total RW  Size (RW Data + ZI Data)             10008 (   9.77kB)
    Total ROM Size (Code + RO Data + RW Data)      16540 (  16.15kB)

==============================================================================

