Component: ARM Compiler 5.05 update 1 (build 106) Tool: armlink [4d0efa]

==============================================================================

Section Cross References

    main.o(.text) refers to ch395cmd.o(.text) for CH395SetSocketDesIP
    main.o(.text) refers to printf5.o(i.__0printf$5) for __2printf
    main.o(.text) refers to looplist.o(.text) for PutData
    main.o(.text) refers to stm32f10x_usart.o(.text) for USART_ITConfig
    main.o(.text) refers to mcu_api.o(.text) for NVIC_Configuration
    main.o(.text) refers to usart.o(.text) for uart_init
    main.o(.text) refers to delay.o(.text) for delay_init
    main.o(.text) refers to timer.o(.text) for timer2_config
    main.o(.text) refers to ch395spi.o(.text) for CH395_PORT_INIT
    main.o(.text) refers to iwdg.o(.text) for IWDG_Init
    main.o(.text) refers to main.o(.data) for SocketLocalPort
    main.o(.text) refers to main.o(.bss) for recv_buff
    main.o(.text) refers to usart.o(.bss) for rb_t_usart1_send
    main.o(.text) refers to timer.o(.data) for Timer2Cnt
    delay.o(.text) refers to misc.o(.text) for SysTick_CLKSourceConfig
    delay.o(.text) refers to system_stm32f10x.o(.data) for SystemCoreClock
    delay.o(.text) refers to delay.o(.data) for fac_us
    usart.o(.text) refers to looplist.o(.text) for rbCreate
==============================================================================

Removing Unused input sections from the image.

    Removing core_cm3.o(.emb_text), (32 bytes).
    Removing stm32f10x_flash.o(.text), (1468 bytes).
    Removing startup_stm32f10x_hd.o(HEAP), (512 bytes).
    Removing buffermanage.o(.text), (212 bytes).
    Removing dadd.o(.text), (334 bytes).
    Removing dmul.o(.text), (228 bytes).
    Removing ddiv.o(.text), (222 bytes).
    Removing dfixul.o(.text), (48 bytes).
    Removing cdrcmple.o(.text), (48 bytes).
    Removing depilogue.o(.text), (186 bytes).

10 unused section(s) (total 3290 bytes) removed from the image.

==============================================================================

Image Symbol Table

    Local Symbols

    Symbol Name                              Value     Ov Type        Size  Object(Section)

    ../clib/microlib/division.c              0x00000000   Number         0  uldiv.o ABSOLUTE
    ../clib/microlib/division.c              0x00000000   Number         0  uidiv.o ABSOLUTE
    ../clib/microlib/init/entry.s            0x00000000   Number         0  entry7b.o ABSOLUTE
    ../clib/microlib/init/entry.s            0x00000000   Number         0  entry8a.o ABSOLUTE
    ../clib/microlib/init/entry.s            0x00000000   Number         0  entry10b.o ABSOLUTE
    ../clib/microlib/init/entry.s            0x00000000   Number         0  entry9a.o ABSOLUTE
    ../clib/microlib/init/entry.s            0x00000000   Number         0  entry8b.o ABSOLUTE
    ../clib/microlib/init/entry.s            0x00000000   Number         0  entry11b.o ABSOLUTE
    ../clib/microlib/init/entry.s            0x00000000   Number         0  entry9b.o ABSOLUTE
    ../clib/microlib/init/entry.s            0x00000000   Number         0  entry10a.o ABSOLUTE
    ../clib/microlib/init/entry.s            0x00000000   Number         0  entry2.o ABSOLUTE
    ../clib/microlib/init/entry.s            0x00000000   Number         0  entry5.o ABSOLUTE
    ../clib/microlib/init/entry.s            0x00000000   Number         0  entry.o ABSOLUTE
    ../clib/microlib/init/entry.s            0x00000000   Number         0  entry11a.o ABSOLUTE
    ../clib/microlib/init/entry.s            0x00000000   Number         0  entry7a.o ABSOLUTE
    ../clib/microlib/longlong.c              0x00000000   Number         0  llshl.o ABSOLUTE
    ../clib/microlib/longlong.c              0x00000000   Number         0  llsshr.o ABSOLUTE
    ../clib/microlib/longlong.c              0x00000000   Number         0  llushr.o ABSOLUTE
    ../clib/microlib/printf/printf.c         0x00000000   Number         0  printf2.o ABSOLUTE
    ../clib/microlib/printf/printf.c         0x00000000   Number         0  printfa.o ABSOLUTE
    ../clib/microlib/printf/printf.c         0x00000000   Number         0  printf1.o ABSOLUTE
    ../clib/microlib/printf/printf.c         0x00000000   Number         0  printf0.o ABSOLUTE
    ../clib/microlib/printf/printf.c         0x00000000   Number         0  printfb.o ABSOLUTE
    ../clib/microlib/printf/printf.c         0x00000000   Number         0  printf8.o ABSOLUTE
    ../clib/microlib/printf/printf.c         0x00000000   Number         0  printf7.o ABSOLUTE
    ../clib/microlib/printf/printf.c         0x00000000   Number         0  printf5.o ABSOLUTE
    ../clib/microlib/printf/printf.c         0x00000000   Number         0  printf4.o ABSOLUTE
    ../clib/microlib/printf/printf.c         0x00000000   Number         0  printf6.o ABSOLUTE
    ../clib/microlib/printf/printf.c         0x00000000   Number         0  printf3.o ABSOLUTE
    ../clib/microlib/printf/stubs.s          0x00000000   Number         0  stubs.o ABSOLUTE
    ../clib/microlib/stdio/streams.c         0x00000000   Number         0  stdout.o ABSOLUTE
    ../clib/microlib/string/memcpy.c         0x00000000   Number         0  memcpyb.o ABSOLUTE
    ../clib/microlib/string/memcpy.c         0x00000000   Number         0  memcpya.o ABSOLUTE
    ../clib/microlib/stubs.s                 0x00000000   Number         0  iusefp.o ABSOLUTE
    ../fplib/microlib/fpadd.c                0x00000000   Number         0  dadd.o ABSOLUTE
    ../fplib/microlib/fpdiv.c                0x00000000   Number         0  ddiv.o ABSOLUTE
    ../fplib/microlib/fpepilogue.c           0x00000000   Number         0  depilogue.o ABSOLUTE
    ../fplib/microlib/fpfix.c                0x00000000   Number         0  dfixul.o ABSOLUTE
    ../fplib/microlib/fpmul.c                0x00000000   Number         0  dmul.o ABSOLUTE
    ..\CH395\CH395CMD.C                      0x00000000   Number         0  ch395cmd.o ABSOLUTE
    ..\CH395\CH395SPI.C                      0x00000000   Number         0  ch395spi.o ABSOLUTE
    ..\CMSIS\core_cm3.c                      0x00000000   Number         0  core_cm3.o ABSOLUTE
    ..\CMSIS\system_stm32f10x.c              0x00000000   Number         0  system_stm32f10x.o ABSOLUTE
    ..\Libraries\src\misc.c                  0x00000000   Number         0  misc.o ABSOLUTE
    ..\Libraries\src\stm32f10x_flash.c       0x00000000   Number         0  stm32f10x_flash.o ABSOLUTE
    ..\Libraries\src\stm32f10x_gpio.c        0x00000000   Number         0  stm32f10x_gpio.o ABSOLUTE
    ..\Libraries\src\stm32f10x_iwdg.c        0x00000000   Number         0  stm32f10x_iwdg.o ABSOLUTE
    ..\Libraries\src\stm32f10x_rcc.c         0x00000000   Number         0  stm32f10x_rcc.o ABSOLUTE
    ..\Libraries\src\stm32f10x_spi.c         0x00000000   Number         0  stm32f10x_spi.o ABSOLUTE
    ..\Libraries\src\stm32f10x_tim.c         0x00000000   Number         0  stm32f10x_tim.o ABSOLUTE
    ..\Libraries\src\stm32f10x_usart.c       0x00000000   Number         0  stm32f10x_usart.o ABSOLUTE
    ..\Startup\startup_stm32f10x_hd.s        0x00000000   Number         0  startup_stm32f10x_hd.o ABSOLUTE
    ..\User\delay.c                          0x00000000   Number         0  delay.o ABSOLUTE
    ..\User\iwdg.c                           0x00000000   Number         0  iwdg.o ABSOLUTE
    ..\User\main.c                           0x00000000   Number         0  main.o ABSOLUTE
    ..\User\mcu_api.c                        0x00000000   Number         0  mcu_api.o ABSOLUTE
    ..\User\stm32f10x_it.c                   0x00000000   Number         0  stm32f10x_it.o ABSOLUTE
    ..\User\timer.c                          0x00000000   Number         0  timer.o ABSOLUTE
    ..\User\usart.c                          0x00000000   Number         0  usart.o ABSOLUTE
    ..\\CMSIS\\core_cm3.c                    0x00000000   Number         0  core_cm3.o ABSOLUTE
    ..\mem\BufferManage.c                    0x00000000   Number         0  buffermanage.o ABSOLUTE
    ..\mem\LoopList.c                        0x00000000   Number         0  looplist.o ABSOLUTE
    cdrcmple.s                               0x00000000   Number         0  cdrcmple.o ABSOLUTE
    dc.s                                     0x00000000   Number         0  dc.o ABSOLUTE
    handlers.s                               0x00000000   Number         0  handlers.o ABSOLUTE
    init.s                                   0x00000000   Number         0  init.o ABSOLUTE
    RESET                                    0x08000000   Section      304  startup_stm32f10x_hd.o(RESET)
    .ARM.Collect$$$$00000000                 0x08000130   Section        0  entry.o(.ARM.Collect$$$$00000000)
    .ARM.Collect$$$$00000001                 0x08000130   Section        4  entry2.o(.ARM.Collect$$$$00000001)
    .ARM.Collect$$$$00000004                 0x08000134   Section        4  entry5.o(.ARM.Collect$$$$00000004)
    .ARM.Collect$$$$00000008                 0x08000138   Section        0  entry7b.o(.ARM.Collect$$$$00000008)
    .ARM.Collect$$$$0000000A                 0x08000138   Section        0  entry8b.o(.ARM.Collect$$$$0000000A)
    .ARM.Collect$$$$0000000B                 0x08000138   Section        8  entry9a.o(.ARM.Collect$$$$0000000B)
    .ARM.Collect$$$$0000000D                 0x08000140   Section        0  entry10a.o(.ARM.Collect$$$$0000000D)
    .ARM.Collect$$$$0000000F                 0x08000140   Section        0  entry11a.o(.ARM.Collect$$$$0000000F)
    .ARM.Collect$$$$00002712                 0x08000140   Section        4  entry2.o(.ARM.Collect$$$$00002712)
    __lit__00000000                          0x08000140   Data           4  entry2.o(.ARM.Collect$$$$00002712)
    .text                                    0x08000144   Section        0  stm32f10x_it.o(.text)
    .text                                    0x08000184   Section        0  main.o(.text)
    .text                                    0x080005e4   Section        0  delay.o(.text)
    .text                                    0x080006b8   Section        0  usart.o(.text)
    .text                                    0x0800090c   Section        0  iwdg.o(.text)
    .text                                    0x08000938   Section        0  timer.o(.text)
    .text                                    0x080009cc   Section        0  mcu_api.o(.text)
    .text                                    0x08000a54   Section        0  system_stm32f10x.o(.text)
    SetSysClockTo72                          0x08000a55   Thumb Code   214  system_stm32f10x.o(.text)
    SetSysClock                              0x08000b2b   Thumb Code     8  system_stm32f10x.o(.text)
    .text                                    0x08000c34   Section        0  misc.o(.text)
    .text                                    0x08000d10   Section        0  stm32f10x_rcc.o(.text)
    .text                                    0x080010b4   Section        0  stm32f10x_usart.o(.text)
    .text                                    0x080014bc   Section        0  stm32f10x_gpio.o(.text)
    .text                                    0x08001818   Section        0  stm32f10x_tim.o(.text)
    TI4_Config                               0x08001cbf   Thumb Code   130  stm32f10x_tim.o(.text)
    TI3_Config                               0x08001d53   Thumb Code   122  stm32f10x_tim.o(.text)
    TI2_Config                               0x08001de7   Thumb Code   130  stm32f10x_tim.o(.text)
    TI1_Config                               0x08001e7b   Thumb Code   108  stm32f10x_tim.o(.text)
    .text                                    0x08002634   Section        0  stm32f10x_iwdg.o(.text)
    .text                                    0x08002674   Section        0  stm32f10x_spi.o(.text)
    .text                                    0x08002980   Section       36  startup_stm32f10x_hd.o(.text)
    .text                                    0x080029a4   Section        0  looplist.o(.text)
    .text                                    0x08002ba0   Section        0  ch395spi.o(.text)
    .text                                    0x08002d7c   Section        0  ch395cmd.o(.text)
    .text                                    0x08003524   Section        0  memcpya.o(.text)
    .text                                    0x08003548   Section        0  uldiv.o(.text)
    .text                                    0x080035ac   Section       36  init.o(.text)
    .text                                    0x080035d0   Section        0  llshl.o(.text)
    .text                                    0x080035ee   Section        0  llushr.o(.text)
    i.__0printf$5                            0x08003610   Section        0  printf5.o(i.__0printf$5)
    i.__scatterload_copy                     0x08003630   Section       14  handlers.o(i.__scatterload_copy)
    i.__scatterload_null                     0x0800363e   Section        2  handlers.o(i.__scatterload_null)
    i.__scatterload_zeroinit                 0x08003640   Section       14  handlers.o(i.__scatterload_zeroinit)
    i._printf_core                           0x08003650   Section        0  printf5.o(i._printf_core)
    _printf_core                             0x08003651   Thumb Code   658  printf5.o(i._printf_core)
    .data                                    0x20000000   Section       20  main.o(.data)
    .data                                    0x20000014   Section        4  delay.o(.data)
    fac_us                                   0x20000014   Data           1  delay.o(.data)
    fac_ms                                   0x20000016   Data           2  delay.o(.data)
    .data                                    0x20000018   Section       10  usart.o(.data)
    flage                                    0x20000021   Data           1  usart.o(.data)
    .data                                    0x20000024   Section        4  timer.o(.data)
    .data                                    0x20000028   Section       40  mcu_api.o(.data)
    .data                                    0x20000050   Section       20  system_stm32f10x.o(.data)
    .data                                    0x20000064   Section       20  stm32f10x_rcc.o(.data)
    APBAHBPrescTable                         0x20000064   Data          16  stm32f10x_rcc.o(.data)
    ADCPrescTable                            0x20000074   Data           4  stm32f10x_rcc.o(.data)
    .data                                    0x20000078   Section        4  stdout.o(.data)
    .bss                                     0x2000007c   Section     1520  main.o(.bss)
    .bss                                     0x2000066c   Section     3104  usart.o(.bss)
    STACK                                    0x20001290   Section     1024  startup_stm32f10x_hd.o(STACK)

    Global Symbols

    Symbol Name                              Value     Ov Type        Size  Object(Section)

    BuildAttributes$$THM_ISAv4$P$D$K$B$S$PE$A:L22UL41UL21$X:L11$S22US41US21$IEEE1$IW$USESV6$~STKCKD$USESV7$~SHL$OSPACE$ROPI$EBA8$MICROLIB$REQ8$PRES8$EABIv2 0x00000000   Number         0  anon$$obj.o ABSOLUTE
    __ARM_use_no_argv                        0x00000000   Number         0  main.o ABSOLUTE
    _printf_a                                0x00000000   Number         0  stubs.o ABSOLUTE
    _printf_c                                0x00000000   Number         0  stubs.o ABSOLUTE
    _printf_charcount                        0x00000000   Number         0  stubs.o ABSOLUTE
    _printf_d                                0x00000000   Number         0  stubs.o ABSOLUTE
    _printf_e                                0x00000000   Number         0  stubs.o ABSOLUTE
    _printf_f                                0x00000000   Number         0  stubs.o ABSOLUTE
    _printf_flags                            0x00000000   Number         0  stubs.o ABSOLUTE
    _printf_fp_dec                           0x00000000   Number         0  stubs.o ABSOLUTE
    _printf_fp_hex                           0x00000000   Number         0  stubs.o ABSOLUTE
    _printf_g                                0x00000000   Number         0  stubs.o ABSOLUTE
    _printf_i                                0x00000000   Number         0  stubs.o ABSOLUTE
    _printf_int_dec                          0x00000000   Number         0  stubs.o ABSOLUTE
    _printf_l                                0x00000000   Number         0  stubs.o ABSOLUTE
    _printf_lc                               0x00000000   Number         0  stubs.o ABSOLUTE
    _printf_ll                               0x00000000   Number         0  stubs.o ABSOLUTE
    _printf_lld                              0x00000000   Number         0  stubs.o ABSOLUTE
    _printf_lli                              0x00000000   Number         0  stubs.o ABSOLUTE
    _printf_llo                              0x00000000   Number         0  stubs.o ABSOLUTE
    _printf_llu                              0x00000000   Number         0  stubs.o ABSOLUTE
    _printf_llx                              0x00000000   Number         0  stubs.o ABSOLUTE
    _printf_longlong_dec                     0x00000000   Number         0  stubs.o ABSOLUTE
    _printf_longlong_hex                     0x00000000   Number         0  stubs.o ABSOLUTE
    _printf_longlong_oct                     0x00000000   Number         0  stubs.o ABSOLUTE
    _printf_ls                               0x00000000   Number         0  stubs.o ABSOLUTE
    _printf_mbtowc                           0x00000000   Number         0  stubs.o ABSOLUTE
    _printf_n                                0x00000000   Number         0  stubs.o ABSOLUTE
    _printf_o                                0x00000000   Number         0  stubs.o ABSOLUTE
    _printf_p                                0x00000000   Number         0  stubs.o ABSOLUTE
    _printf_percent                          0x00000000   Number         0  stubs.o ABSOLUTE
    _printf_pre_padding                      0x00000000   Number         0  stubs.o ABSOLUTE
    _printf_return_value                     0x00000000   Number         0  stubs.o ABSOLUTE
    _printf_s                                0x00000000   Number         0  stubs.o ABSOLUTE
    _printf_sizespec                         0x00000000   Number         0  stubs.o ABSOLUTE
    _printf_str                              0x00000000   Number         0  stubs.o ABSOLUTE
    _printf_truncate_signed                  0x00000000   Number         0  stubs.o ABSOLUTE
    _printf_truncate_unsigned                0x00000000   Number         0  stubs.o ABSOLUTE
    _printf_u                                0x00000000   Number         0  stubs.o ABSOLUTE
    _printf_wc                               0x00000000   Number         0  stubs.o ABSOLUTE
    _printf_wctomb                           0x00000000   Number         0  stubs.o ABSOLUTE
    _printf_widthprec                        0x00000000   Number         0  stubs.o ABSOLUTE
    _printf_x                                0x00000000   Number         0  stubs.o ABSOLUTE
    __cpp_initialize__aeabi_                  - Undefined Weak Reference
    __cxa_finalize                            - Undefined Weak Reference
    __decompress                              - Undefined Weak Reference
    _clock_init                               - Undefined Weak Reference
    _microlib_exit                            - Undefined Weak Reference
    __Vectors_Size                           0x00000130   Number         0  startup_stm32f10x_hd.o ABSOLUTE
    __Vectors                                0x08000000   Data           4  startup_stm32f10x_hd.o(RESET)
    __Vectors_End                            0x08000130   Data           0  startup_stm32f10x_hd.o(RESET)
    __main                                   0x08000131   Thumb Code     0  entry.o(.ARM.Collect$$$$00000000)
    _main_stk                                0x08000131   Thumb Code     0  entry2.o(.ARM.Collect$$$$00000001)
    _main_scatterload                        0x08000135   Thumb Code     0  entry5.o(.ARM.Collect$$$$00000004)
    __main_after_scatterload                 0x08000139   Thumb Code     0  entry5.o(.ARM.Collect$$$$00000004)
    _main_clock                              0x08000139   Thumb Code     0  entry7b.o(.ARM.Collect$$$$00000008)
    _main_cpp_init                           0x08000139   Thumb Code     0  entry8b.o(.ARM.Collect$$$$0000000A)
    _main_init                               0x08000139   Thumb Code     0  entry9a.o(.ARM.Collect$$$$0000000B)
    __rt_final_cpp                           0x08000141   Thumb Code     0  entry10a.o(.ARM.Collect$$$$0000000D)
    __rt_final_exit                          0x08000141   Thumb Code     0  entry11a.o(.ARM.Collect$$$$0000000F)
    NMI_Handler                              0x08000145   Thumb Code     2  stm32f10x_it.o(.text)
    HardFault_Handler                        0x08000147   Thumb Code    36  stm32f10x_it.o(.text)
    MemManage_Handler                        0x0800016b   Thumb Code     4  stm32f10x_it.o(.text)
    BusFault_Handler                         0x0800016f   Thumb Code     4  stm32f10x_it.o(.text)
    UsageFault_Handler                       0x08000173   Thumb Code     4  stm32f10x_it.o(.text)
    SVC_Handler                              0x08000177   Thumb Code     2  stm32f10x_it.o(.text)
    DebugMon_Handler                         0x08000179   Thumb Code     2  stm32f10x_it.o(.text)
    PendSV_Handler                           0x0800017b   Thumb Code     2  stm32f10x_it.o(.text)
    ch395_socket_tcp_client_port             0x08000185   Thumb Code    32  main.o(.text)
    ch395_socket_tcp_client_init             0x080001a5   Thumb Code    62  main.o(.text)
    ch395_socket_tcp_client_interrupt        0x080001e3   Thumb Code   156  main.o(.text)
    main                                     0x0800027f   Thumb Code   476  main.o(.text)
    delay_init                               0x080005e5   Thumb Code    50  delay.o(.text)
    delay_us                                 0x08000617   Thumb Code    72  delay.o(.text)
    delay_ms                                 0x0800065f   Thumb Code    72  delay.o(.text)
    uart_init                                0x080006b9   Thumb Code   198  usart.o(.text)
    UsartOutStrIT                            0x0800077f   Thumb Code    38  usart.o(.text)
    UsartOutStr                              0x080007a5   Thumb Code    44  usart.o(.text)
    UsartOutChar                             0x080007d1   Thumb Code    30  usart.o(.text)
    USART1_IRQHandler                        0x080007ef   Thumb Code   186  usart.o(.text)
    fputc                                    0x080008a9   Thumb Code    58  usart.o(.text)
    IWDG_Init                                0x0800090d   Thumb Code    36  iwdg.o(.text)
    IWDG_Feed                                0x08000931   Thumb Code     8  iwdg.o(.text)
    timer2_config                            0x08000939   Thumb Code   108  timer.o(.text)
    TIM2_IRQHandler                          0x080009a5   Thumb Code    34  timer.o(.text)
    NVIC_Configuration                       0x080009cd   Thumb Code    12  mcu_api.o(.text)
    Reset_MCU                                0x080009d9   Thumb Code    32  mcu_api.o(.text)
    GetSTM32MCUID                            0x080009f9   Thumb Code    50  mcu_api.o(.text)
    SystemInit                               0x08000b33   Thumb Code    78  system_stm32f10x.o(.text)
    SystemCoreClockUpdate                    0x08000b81   Thumb Code   142  system_stm32f10x.o(.text)
    NVIC_PriorityGroupConfig                 0x08000c35   Thumb Code    10  misc.o(.text)
    NVIC_Init                                0x08000c3f   Thumb Code   100  misc.o(.text)
    NVIC_SetVectorTable                      0x08000ca3   Thumb Code    14  misc.o(.text)
    NVIC_SystemLPConfig                      0x08000cb1   Thumb Code    34  misc.o(.text)
    SysTick_CLKSourceConfig                  0x08000cd3   Thumb Code    40  misc.o(.text)
    RCC_DeInit                               0x08000d11   Thumb Code    64  stm32f10x_rcc.o(.text)
    RCC_HSEConfig                            0x08000d51   Thumb Code    70  stm32f10x_rcc.o(.text)
    RCC_GetFlagStatus                        0x08000d97   Thumb Code    56  stm32f10x_rcc.o(.text)
    RCC_WaitForHSEStartUp                    0x08000dcf   Thumb Code    56  stm32f10x_rcc.o(.text)
    RCC_AdjustHSICalibrationValue            0x08000e07   Thumb Code    20  stm32f10x_rcc.o(.text)
    RCC_HSICmd                               0x08000e1b   Thumb Code     6  stm32f10x_rcc.o(.text)
    RCC_PLLConfig                            0x08000e21   Thumb Code    24  stm32f10x_rcc.o(.text)
    RCC_PLLCmd                               0x08000e39   Thumb Code     6  stm32f10x_rcc.o(.text)
    RCC_SYSCLKConfig                         0x08000e3f   Thumb Code    18  stm32f10x_rcc.o(.text)
    RCC_GetSYSCLKSource                      0x08000e51   Thumb Code    10  stm32f10x_rcc.o(.text)
    RCC_HCLKConfig                           0x08000e5b   Thumb Code    18  stm32f10x_rcc.o(.text)
    RCC_PCLK1Config                          0x08000e6d   Thumb Code    18  stm32f10x_rcc.o(.text)
    RCC_PCLK2Config                          0x08000e7f   Thumb Code    20  stm32f10x_rcc.o(.text)
    RCC_ITConfig                             0x08000e93   Thumb Code    26  stm32f10x_rcc.o(.text)
    RCC_USBCLKConfig                         0x08000ead   Thumb Code     8  stm32f10x_rcc.o(.text)
    RCC_ADCCLKConfig                         0x08000eb5   Thumb Code    18  stm32f10x_rcc.o(.text)
    RCC_LSEConfig                            0x08000ec7   Thumb Code    50  stm32f10x_rcc.o(.text)
    RCC_LSICmd                               0x08000ef9   Thumb Code     6  stm32f10x_rcc.o(.text)
    RCC_RTCCLKConfig                         0x08000eff   Thumb Code    12  stm32f10x_rcc.o(.text)
    RCC_RTCCLKCmd                            0x08000f0b   Thumb Code     8  stm32f10x_rcc.o(.text)
    RCC_GetClocksFreq                        0x08000f13   Thumb Code   192  stm32f10x_rcc.o(.text)
    RCC_AHBPeriphClockCmd                    0x08000fd3   Thumb Code    26  stm32f10x_rcc.o(.text)
    RCC_APB2PeriphClockCmd                   0x08000fed   Thumb Code    26  stm32f10x_rcc.o(.text)
    RCC_APB1PeriphClockCmd                   0x08001007   Thumb Code    26  stm32f10x_rcc.o(.text)
    RCC_APB2PeriphResetCmd                   0x08001021   Thumb Code    26  stm32f10x_rcc.o(.text)
    RCC_APB1PeriphResetCmd                   0x0800103b   Thumb Code    26  stm32f10x_rcc.o(.text)
    RCC_BackupResetCmd                       0x08001055   Thumb Code     8  stm32f10x_rcc.o(.text)
    RCC_ClockSecuritySystemCmd               0x0800105d   Thumb Code     6  stm32f10x_rcc.o(.text)
    RCC_MCOConfig                            0x08001063   Thumb Code     6  stm32f10x_rcc.o(.text)
    RCC_ClearFlag                            0x08001069   Thumb Code    14  stm32f10x_rcc.o(.text)
    RCC_GetITStatus                          0x08001077   Thumb Code    20  stm32f10x_rcc.o(.text)
    RCC_ClearITPendingBit                    0x0800108b   Thumb Code     6  stm32f10x_rcc.o(.text)
    USART_DeInit                             0x080010b5   Thumb Code   134  stm32f10x_usart.o(.text)
    USART_Init                               0x0800113b   Thumb Code   210  stm32f10x_usart.o(.text)
    USART_StructInit                         0x0800120d   Thumb Code    24  stm32f10x_usart.o(.text)
    USART_ClockInit                          0x08001225   Thumb Code    34  stm32f10x_usart.o(.text)
    USART_ClockStructInit                    0x08001247   Thumb Code    12  stm32f10x_usart.o(.text)
    USART_Cmd                                0x08001253   Thumb Code    24  stm32f10x_usart.o(.text)
    USART_ITConfig                           0x0800126b   Thumb Code    74  stm32f10x_usart.o(.text)
    USART_DMACmd                             0x080012b5   Thumb Code    18  stm32f10x_usart.o(.text)
    USART_SetAddress                         0x080012c7   Thumb Code    18  stm32f10x_usart.o(.text)
    USART_WakeUpConfig                       0x080012d9   Thumb Code    18  stm32f10x_usart.o(.text)
    USART_ReceiverWakeUpCmd                  0x080012eb   Thumb Code    24  stm32f10x_usart.o(.text)
    USART_LINBreakDetectLengthConfig         0x08001303   Thumb Code    18  stm32f10x_usart.o(.text)
    USART_LINCmd                             0x08001315   Thumb Code    24  stm32f10x_usart.o(.text)
    USART_SendData                           0x0800132d   Thumb Code     8  stm32f10x_usart.o(.text)
    USART_ReceiveData                        0x08001335   Thumb Code    10  stm32f10x_usart.o(.text)
    USART_SendBreak                          0x0800133f   Thumb Code    10  stm32f10x_usart.o(.text)
    USART_SetGuardTime                       0x08001349   Thumb Code    16  stm32f10x_usart.o(.text)
    USART_SetPrescaler                       0x08001359   Thumb Code    16  stm32f10x_usart.o(.text)
    USART_SmartCardCmd                       0x08001369   Thumb Code    24  stm32f10x_usart.o(.text)
    USART_SmartCardNACKCmd                   0x08001381   Thumb Code    24  stm32f10x_usart.o(.text)
    USART_HalfDuplexCmd                      0x08001399   Thumb Code    24  stm32f10x_usart.o(.text)
    USART_OverSampling8Cmd                   0x080013b1   Thumb Code    22  stm32f10x_usart.o(.text)
    USART_OneBitMethodCmd                    0x080013c7   Thumb Code    24  stm32f10x_usart.o(.text)
    USART_IrDAConfig                         0x080013df   Thumb Code    18  stm32f10x_usart.o(.text)
    USART_IrDACmd                            0x080013f1   Thumb Code    24  stm32f10x_usart.o(.text)
    USART_GetFlagStatus                      0x08001409   Thumb Code    26  stm32f10x_usart.o(.text)
    USART_ClearFlag                          0x08001423   Thumb Code    18  stm32f10x_usart.o(.text)
    USART_GetITStatus                        0x08001435   Thumb Code    84  stm32f10x_usart.o(.text)
    USART_ClearITPendingBit                  0x08001489   Thumb Code    52  stm32f10x_usart.o(.text)
    GPIO_DeInit                              0x080014bd   Thumb Code   172  stm32f10x_gpio.o(.text)
    GPIO_AFIODeInit                          0x08001569   Thumb Code    20  stm32f10x_gpio.o(.text)
    GPIO_Init                                0x0800157d   Thumb Code   278  stm32f10x_gpio.o(.text)
    GPIO_StructInit                          0x08001693   Thumb Code    16  stm32f10x_gpio.o(.text)
    GPIO_ReadInputDataBit                    0x080016a3   Thumb Code    18  stm32f10x_gpio.o(.text)
    GPIO_ReadInputData                       0x080016b5   Thumb Code     8  stm32f10x_gpio.o(.text)
    GPIO_ReadOutputDataBit                   0x080016bd   Thumb Code    18  stm32f10x_gpio.o(.text)
    GPIO_ReadOutputData                      0x080016cf   Thumb Code     8  stm32f10x_gpio.o(.text)
    GPIO_SetBits                             0x080016d7   Thumb Code     4  stm32f10x_gpio.o(.text)
    GPIO_ResetBits                           0x080016db   Thumb Code     4  stm32f10x_gpio.o(.text)
    GPIO_WriteBit                            0x080016df   Thumb Code    10  stm32f10x_gpio.o(.text)
    GPIO_Write                               0x080016e9   Thumb Code     4  stm32f10x_gpio.o(.text)
    GPIO_PinLockConfig                       0x080016ed   Thumb Code    18  stm32f10x_gpio.o(.text)
    GPIO_EventOutputConfig                   0x080016ff   Thumb Code    26  stm32f10x_gpio.o(.text)
    GPIO_EventOutputCmd                      0x08001719   Thumb Code     6  stm32f10x_gpio.o(.text)
    GPIO_PinRemapConfig                      0x0800171f   Thumb Code   138  stm32f10x_gpio.o(.text)
    GPIO_EXTILineConfig                      0x080017a9   Thumb Code    66  stm32f10x_gpio.o(.text)
    GPIO_ETH_MediaInterfaceConfig            0x080017eb   Thumb Code     8  stm32f10x_gpio.o(.text)
    TIM_DeInit                               0x08001819   Thumb Code   424  stm32f10x_tim.o(.text)
    TIM_TimeBaseInit                         0x080019c1   Thumb Code   122  stm32f10x_tim.o(.text)
    TIM_OC1Init                              0x08001a3b   Thumb Code   132  stm32f10x_tim.o(.text)
    TIM_OC2Init                              0x08001abf   Thumb Code   154  stm32f10x_tim.o(.text)
    TIM_OC3Init                              0x08001b59   Thumb Code   150  stm32f10x_tim.o(.text)
    TIM_OC4Init                              0x08001bef   Thumb Code   182  stm32f10x_tim.o(.text)
    TIM_SetIC4Prescaler                      0x08001ca5   Thumb Code    26  stm32f10x_tim.o(.text)
    TIM_SetIC3Prescaler                      0x08001d41   Thumb Code    18  stm32f10x_tim.o(.text)
    TIM_SetIC2Prescaler                      0x08001dcd   Thumb Code    26  stm32f10x_tim.o(.text)
    TIM_SetIC1Prescaler                      0x08001e69   Thumb Code    18  stm32f10x_tim.o(.text)
    TIM_ICInit                               0x08001ee7   Thumb Code   150  stm32f10x_tim.o(.text)
    TIM_PWMIConfig                           0x08001f7d   Thumb Code   124  stm32f10x_tim.o(.text)
    TIM_BDTRConfig                           0x08001ff9   Thumb Code    32  stm32f10x_tim.o(.text)
    TIM_TimeBaseStructInit                   0x08002019   Thumb Code    18  stm32f10x_tim.o(.text)
    TIM_OCStructInit                         0x0800202b   Thumb Code    20  stm32f10x_tim.o(.text)
    TIM_ICStructInit                         0x0800203f   Thumb Code    18  stm32f10x_tim.o(.text)
    TIM_BDTRStructInit                       0x08002051   Thumb Code    40  stm32f10x_tim.o(.text)
    TIM_Cmd                                  0x08002079   Thumb Code    24  stm32f10x_tim.o(.text)
    TIM_CtrlPWMOutputs                       0x08002091   Thumb Code    30  stm32f10x_tim.o(.text)
    TIM_ITConfig                             0x080020af   Thumb Code    18  stm32f10x_tim.o(.text)
    TIM_GenerateEvent                        0x080020c1   Thumb Code     4  stm32f10x_tim.o(.text)
    TIM_DMAConfig                            0x080020c5   Thumb Code    10  stm32f10x_tim.o(.text)
    TIM_DMACmd                               0x080020cf   Thumb Code    18  stm32f10x_tim.o(.text)
    TIM_InternalClockConfig                  0x080020e1   Thumb Code    12  stm32f10x_tim.o(.text)
    TIM_SelectInputTrigger                   0x080020ed   Thumb Code    18  stm32f10x_tim.o(.text)
    TIM_ITRxExternalClockConfig              0x080020ff   Thumb Code    24  stm32f10x_tim.o(.text)
    TIM_TIxExternalClockConfig               0x08002117   Thumb Code    62  stm32f10x_tim.o(.text)
    TIM_ETRConfig                            0x08002155   Thumb Code    28  stm32f10x_tim.o(.text)
    TIM_ETRClockMode1Config                  0x08002171   Thumb Code    54  stm32f10x_tim.o(.text)
    TIM_ETRClockMode2Config                  0x080021a7   Thumb Code    32  stm32f10x_tim.o(.text)
    TIM_PrescalerConfig                      0x080021c7   Thumb Code     6  stm32f10x_tim.o(.text)
    TIM_CounterModeConfig                    0x080021cd   Thumb Code    18  stm32f10x_tim.o(.text)
    TIM_EncoderInterfaceConfig               0x080021df   Thumb Code    66  stm32f10x_tim.o(.text)
    TIM_ForcedOC1Config                      0x08002221   Thumb Code    18  stm32f10x_tim.o(.text)
    TIM_ForcedOC2Config                      0x08002233   Thumb Code    26  stm32f10x_tim.o(.text)
    TIM_ForcedOC3Config                      0x0800224d   Thumb Code    18  stm32f10x_tim.o(.text)
    TIM_ForcedOC4Config                      0x0800225f   Thumb Code    26  stm32f10x_tim.o(.text)
    TIM_ARRPreloadConfig                     0x08002279   Thumb Code    24  stm32f10x_tim.o(.text)
    TIM_SelectCOM                            0x08002291   Thumb Code    24  stm32f10x_tim.o(.text)
    TIM_SelectCCDMA                          0x080022a9   Thumb Code    24  stm32f10x_tim.o(.text)
    TIM_CCPreloadControl                     0x080022c1   Thumb Code    24  stm32f10x_tim.o(.text)
    TIM_OC1PreloadConfig                     0x080022d9   Thumb Code    18  stm32f10x_tim.o(.text)
    TIM_OC2PreloadConfig                     0x080022eb   Thumb Code    26  stm32f10x_tim.o(.text)
    TIM_OC3PreloadConfig                     0x08002305   Thumb Code    18  stm32f10x_tim.o(.text)
    TIM_OC4PreloadConfig                     0x08002317   Thumb Code    26  stm32f10x_tim.o(.text)
    TIM_OC1FastConfig                        0x08002331   Thumb Code    18  stm32f10x_tim.o(.text)
    TIM_OC2FastConfig                        0x08002343   Thumb Code    26  stm32f10x_tim.o(.text)
    TIM_OC3FastConfig                        0x0800235d   Thumb Code    18  stm32f10x_tim.o(.text)
    TIM_OC4FastConfig                        0x0800236f   Thumb Code    26  stm32f10x_tim.o(.text)
    TIM_ClearOC1Ref                          0x08002389   Thumb Code    18  stm32f10x_tim.o(.text)
    TIM_ClearOC2Ref                          0x0800239b   Thumb Code    24  stm32f10x_tim.o(.text)
    TIM_ClearOC3Ref                          0x080023b3   Thumb Code    18  stm32f10x_tim.o(.text)
    TIM_ClearOC4Ref                          0x080023c5   Thumb Code    24  stm32f10x_tim.o(.text)
    TIM_OC1PolarityConfig                    0x080023dd   Thumb Code    18  stm32f10x_tim.o(.text)
    TIM_OC1NPolarityConfig                   0x080023ef   Thumb Code    18  stm32f10x_tim.o(.text)
    TIM_OC2PolarityConfig                    0x08002401   Thumb Code    26  stm32f10x_tim.o(.text)
    TIM_OC2NPolarityConfig                   0x0800241b   Thumb Code    26  stm32f10x_tim.o(.text)
    TIM_OC3PolarityConfig                    0x08002435   Thumb Code    26  stm32f10x_tim.o(.text)
    TIM_OC3NPolarityConfig                   0x0800244f   Thumb Code    26  stm32f10x_tim.o(.text)
    TIM_OC4PolarityConfig                    0x08002469   Thumb Code    26  stm32f10x_tim.o(.text)
    TIM_CCxCmd                               0x08002483   Thumb Code    30  stm32f10x_tim.o(.text)
    TIM_CCxNCmd                              0x080024a1   Thumb Code    30  stm32f10x_tim.o(.text)
    TIM_SelectOCxM                           0x080024bf   Thumb Code    82  stm32f10x_tim.o(.text)
    TIM_UpdateDisableConfig                  0x08002511   Thumb Code    24  stm32f10x_tim.o(.text)
    TIM_UpdateRequestConfig                  0x08002529   Thumb Code    24  stm32f10x_tim.o(.text)
    TIM_SelectHallSensor                     0x08002541   Thumb Code    24  stm32f10x_tim.o(.text)
    TIM_SelectOnePulseMode                   0x08002559   Thumb Code    18  stm32f10x_tim.o(.text)
    TIM_SelectOutputTrigger                  0x0800256b   Thumb Code    18  stm32f10x_tim.o(.text)
    TIM_SelectSlaveMode                      0x0800257d   Thumb Code    18  stm32f10x_tim.o(.text)
    TIM_SelectMasterSlaveMode                0x0800258f   Thumb Code    18  stm32f10x_tim.o(.text)
    TIM_SetCounter                           0x080025a1   Thumb Code     4  stm32f10x_tim.o(.text)
    TIM_SetAutoreload                        0x080025a5   Thumb Code     4  stm32f10x_tim.o(.text)
    TIM_SetCompare1                          0x080025a9   Thumb Code     4  stm32f10x_tim.o(.text)
    TIM_SetCompare2                          0x080025ad   Thumb Code     4  stm32f10x_tim.o(.text)
    TIM_SetCompare3                          0x080025b1   Thumb Code     4  stm32f10x_tim.o(.text)
    TIM_SetCompare4                          0x080025b5   Thumb Code     6  stm32f10x_tim.o(.text)
    TIM_SetClockDivision                     0x080025bb   Thumb Code    18  stm32f10x_tim.o(.text)
    TIM_GetCapture1                          0x080025cd   Thumb Code     6  stm32f10x_tim.o(.text)
    TIM_GetCapture2                          0x080025d3   Thumb Code     6  stm32f10x_tim.o(.text)
    TIM_GetCapture3                          0x080025d9   Thumb Code     6  stm32f10x_tim.o(.text)
    TIM_GetCapture4                          0x080025df   Thumb Code     8  stm32f10x_tim.o(.text)
    TIM_GetCounter                           0x080025e7   Thumb Code     6  stm32f10x_tim.o(.text)
    TIM_GetPrescaler                         0x080025ed   Thumb Code     6  stm32f10x_tim.o(.text)
    TIM_GetFlagStatus                        0x080025f3   Thumb Code    18  stm32f10x_tim.o(.text)
    TIM_ClearFlag                            0x08002605   Thumb Code     6  stm32f10x_tim.o(.text)
    TIM_GetITStatus                          0x0800260b   Thumb Code    34  stm32f10x_tim.o(.text)
    TIM_ClearITPendingBit                    0x0800262d   Thumb Code     6  stm32f10x_tim.o(.text)
    IWDG_WriteAccessCmd                      0x08002635   Thumb Code     6  stm32f10x_iwdg.o(.text)
    IWDG_SetPrescaler                        0x0800263b   Thumb Code     6  stm32f10x_iwdg.o(.text)
    IWDG_SetReload                           0x08002641   Thumb Code     6  stm32f10x_iwdg.o(.text)
    IWDG_ReloadCounter                       0x08002647   Thumb Code    10  stm32f10x_iwdg.o(.text)
    IWDG_Enable                              0x08002651   Thumb Code    10  stm32f10x_iwdg.o(.text)
    IWDG_GetFlagStatus                       0x0800265b   Thumb Code    20  stm32f10x_iwdg.o(.text)
    SPI_I2S_DeInit                           0x08002675   Thumb Code    76  stm32f10x_spi.o(.text)
    SPI_Init                                 0x080026c1   Thumb Code    60  stm32f10x_spi.o(.text)
    I2S_Init                                 0x080026fd   Thumb Code   226  stm32f10x_spi.o(.text)
    SPI_StructInit                           0x080027df   Thumb Code    24  stm32f10x_spi.o(.text)
    I2S_StructInit                           0x080027f7   Thumb Code    20  stm32f10x_spi.o(.text)
    SPI_Cmd                                  0x0800280b   Thumb Code    24  stm32f10x_spi.o(.text)
    I2S_Cmd                                  0x08002823   Thumb Code    24  stm32f10x_spi.o(.text)
    SPI_I2S_ITConfig                         0x0800283b   Thumb Code    32  stm32f10x_spi.o(.text)
    SPI_I2S_DMACmd                           0x0800285b   Thumb Code    18  stm32f10x_spi.o(.text)
    SPI_I2S_SendData                         0x0800286d   Thumb Code     4  stm32f10x_spi.o(.text)
    SPI_I2S_ReceiveData                      0x08002871   Thumb Code     6  stm32f10x_spi.o(.text)
    SPI_NSSInternalSoftwareConfig            0x08002877   Thumb Code    30  stm32f10x_spi.o(.text)
    SPI_SSOutputCmd                          0x08002895   Thumb Code    24  stm32f10x_spi.o(.text)
    SPI_DataSizeConfig                       0x080028ad   Thumb Code    18  stm32f10x_spi.o(.text)
    SPI_TransmitCRC                          0x080028bf   Thumb Code    10  stm32f10x_spi.o(.text)
    SPI_CalculateCRC                         0x080028c9   Thumb Code    24  stm32f10x_spi.o(.text)
    SPI_GetCRC                               0x080028e1   Thumb Code    16  stm32f10x_spi.o(.text)
    SPI_GetCRCPolynomial                     0x080028f1   Thumb Code     6  stm32f10x_spi.o(.text)
    SPI_BiDirectionalLineConfig              0x080028f7   Thumb Code    28  stm32f10x_spi.o(.text)
    SPI_I2S_GetFlagStatus                    0x08002913   Thumb Code    18  stm32f10x_spi.o(.text)
    SPI_I2S_ClearFlag                        0x08002925   Thumb Code     6  stm32f10x_spi.o(.text)
    SPI_I2S_GetITStatus                      0x0800292b   Thumb Code    52  stm32f10x_spi.o(.text)
    SPI_I2S_ClearITPendingBit                0x0800295f   Thumb Code    20  stm32f10x_spi.o(.text)
    Reset_Handler                            0x08002981   Thumb Code     8  startup_stm32f10x_hd.o(.text)
    SysTick_Handler                          0x08002999   Thumb Code     2  startup_stm32f10x_hd.o(.text)
    ADC1_2_IRQHandler                        0x0800299b   Thumb Code     0  startup_stm32f10x_hd.o(.text)
    ADC3_IRQHandler                          0x0800299b   Thumb Code     0  startup_stm32f10x_hd.o(.text)
    CAN1_RX1_IRQHandler                      0x0800299b   Thumb Code     0  startup_stm32f10x_hd.o(.text)
    CAN1_SCE_IRQHandler                      0x0800299b   Thumb Code     0  startup_stm32f10x_hd.o(.text)
    DMA1_Channel1_IRQHandler                 0x0800299b   Thumb Code     0  startup_stm32f10x_hd.o(.text)
    DMA1_Channel2_IRQHandler                 0x0800299b   Thumb Code     0  startup_stm32f10x_hd.o(.text)
    DMA1_Channel3_IRQHandler                 0x0800299b   Thumb Code     0  startup_stm32f10x_hd.o(.text)
    DMA1_Channel4_IRQHandler                 0x0800299b   Thumb Code     0  startup_stm32f10x_hd.o(.text)
    DMA1_Channel5_IRQHandler                 0x0800299b   Thumb Code     0  startup_stm32f10x_hd.o(.text)
    DMA1_Channel6_IRQHandler                 0x0800299b   Thumb Code     0  startup_stm32f10x_hd.o(.text)
    DMA1_Channel7_IRQHandler                 0x0800299b   Thumb Code     0  startup_stm32f10x_hd.o(.text)
    DMA2_Channel1_IRQHandler                 0x0800299b   Thumb Code     0  startup_stm32f10x_hd.o(.text)
    DMA2_Channel2_IRQHandler                 0x0800299b   Thumb Code     0  startup_stm32f10x_hd.o(.text)
    DMA2_Channel3_IRQHandler                 0x0800299b   Thumb Code     0  startup_stm32f10x_hd.o(.text)
    DMA2_Channel4_5_IRQHandler               0x0800299b   Thumb Code     0  startup_stm32f10x_hd.o(.text)
    EXTI0_IRQHandler                         0x0800299b   Thumb Code     0  startup_stm32f10x_hd.o(.text)
    EXTI15_10_IRQHandler                     0x0800299b   Thumb Code     0  startup_stm32f10x_hd.o(.text)
    EXTI1_IRQHandler                         0x0800299b   Thumb Code     0  startup_stm32f10x_hd.o(.text)
    EXTI2_IRQHandler                         0x0800299b   Thumb Code     0  startup_stm32f10x_hd.o(.text)
    EXTI3_IRQHandler                         0x0800299b   Thumb Code     0  startup_stm32f10x_hd.o(.text)
    EXTI4_IRQHandler                         0x0800299b   Thumb Code     0  startup_stm32f10x_hd.o(.text)
    EXTI9_5_IRQHandler                       0x0800299b   Thumb Code     0  startup_stm32f10x_hd.o(.text)
    FLASH_IRQHandler                         0x0800299b   Thumb Code     0  startup_stm32f10x_hd.o(.text)
    FSMC_IRQHandler                          0x0800299b   Thumb Code     0  startup_stm32f10x_hd.o(.text)
    I2C1_ER_IRQHandler                       0x0800299b   Thumb Code     0  startup_stm32f10x_hd.o(.text)
    I2C1_EV_IRQHandler                       0x0800299b   Thumb Code     0  startup_stm32f10x_hd.o(.text)
    I2C2_ER_IRQHandler                       0x0800299b   Thumb Code     0  startup_stm32f10x_hd.o(.text)
    I2C2_EV_IRQHandler                       0x0800299b   Thumb Code     0  startup_stm32f10x_hd.o(.text)
    PVD_IRQHandler                           0x0800299b   Thumb Code     0  startup_stm32f10x_hd.o(.text)
    RCC_IRQHandler                           0x0800299b   Thumb Code     0  startup_stm32f10x_hd.o(.text)
    RTCAlarm_IRQHandler                      0x0800299b   Thumb Code     0  startup_stm32f10x_hd.o(.text)
    RTC_IRQHandler                           0x0800299b   Thumb Code     0  startup_stm32f10x_hd.o(.text)
    SDIO_IRQHandler                          0x0800299b   Thumb Code     0  startup_stm32f10x_hd.o(.text)
    SPI1_IRQHandler                          0x0800299b   Thumb Code     0  startup_stm32f10x_hd.o(.text)
    SPI2_IRQHandler                          0x0800299b   Thumb Code     0  startup_stm32f10x_hd.o(.text)
    SPI3_IRQHandler                          0x0800299b   Thumb Code     0  startup_stm32f10x_hd.o(.text)
    TAMPER_IRQHandler                        0x0800299b   Thumb Code     0  startup_stm32f10x_hd.o(.text)
    TIM1_BRK_IRQHandler                      0x0800299b   Thumb Code     0  startup_stm32f10x_hd.o(.text)
    TIM1_CC_IRQHandler                       0x0800299b   Thumb Code     0  startup_stm32f10x_hd.o(.text)
    TIM1_TRG_COM_IRQHandler                  0x0800299b   Thumb Code     0  startup_stm32f10x_hd.o(.text)
    TIM1_UP_IRQHandler                       0x0800299b   Thumb Code     0  startup_stm32f10x_hd.o(.text)
    TIM3_IRQHandler                          0x0800299b   Thumb Code     0  startup_stm32f10x_hd.o(.text)
    TIM4_IRQHandler                          0x0800299b   Thumb Code     0  startup_stm32f10x_hd.o(.text)
    TIM5_IRQHandler                          0x0800299b   Thumb Code     0  startup_stm32f10x_hd.o(.text)
    TIM6_IRQHandler                          0x0800299b   Thumb Code     0  startup_stm32f10x_hd.o(.text)
    TIM7_IRQHandler                          0x0800299b   Thumb Code     0  startup_stm32f10x_hd.o(.text)
    TIM8_BRK_IRQHandler                      0x0800299b   Thumb Code     0  startup_stm32f10x_hd.o(.text)
    TIM8_CC_IRQHandler                       0x0800299b   Thumb Code     0  startup_stm32f10x_hd.o(.text)
    TIM8_TRG_COM_IRQHandler                  0x0800299b   Thumb Code     0  startup_stm32f10x_hd.o(.text)
    TIM8_UP_IRQHandler                       0x0800299b   Thumb Code     0  startup_stm32f10x_hd.o(.text)
    UART4_IRQHandler                         0x0800299b   Thumb Code     0  startup_stm32f10x_hd.o(.text)
    UART5_IRQHandler                         0x0800299b   Thumb Code     0  startup_stm32f10x_hd.o(.text)
    USART2_IRQHandler                        0x0800299b   Thumb Code     0  startup_stm32f10x_hd.o(.text)
    USART3_IRQHandler                        0x0800299b   Thumb Code     0  startup_stm32f10x_hd.o(.text)
    USBWakeUp_IRQHandler                     0x0800299b   Thumb Code     0  startup_stm32f10x_hd.o(.text)
    USB_HP_CAN1_TX_IRQHandler                0x0800299b   Thumb Code     0  startup_stm32f10x_hd.o(.text)
    USB_LP_CAN1_RX0_IRQHandler               0x0800299b   Thumb Code     0  startup_stm32f10x_hd.o(.text)
    WWDG_IRQHandler                          0x0800299b   Thumb Code     0  startup_stm32f10x_hd.o(.text)
    rbCreate                                 0x080029a5   Thumb Code    20  looplist.o(.text)
    rbDelete                                 0x080029b9   Thumb Code    18  looplist.o(.text)
    rbCapacity                               0x080029cb   Thumb Code    14  looplist.o(.text)
    rbCanRead                                0x080029d9   Thumb Code    56  looplist.o(.text)
    rbCanWrite                               0x08002a11   Thumb Code    30  looplist.o(.text)
    rbRead                                   0x08002a2f   Thumb Code   164  looplist.o(.text)
    rbWrite                                  0x08002ad3   Thumb Code   160  looplist.o(.text)
    PutData                                  0x08002b73   Thumb Code    46  looplist.o(.text)
    mDelayuS                                 0x08002ba1   Thumb Code    12  ch395spi.o(.text)
    mDelaymS                                 0x08002bad   Thumb Code    12  ch395spi.o(.text)
    CH395_PORT_INIT                          0x08002bb9   Thumb Code   282  ch395spi.o(.text)
    Spi395Exchange                           0x08002cd3   Thumb Code    50  ch395spi.o(.text)
    xWriteCH395Cmd                           0x08002d05   Thumb Code    34  ch395spi.o(.text)
    xWriteCH395Data                          0x08002d27   Thumb Code    12  ch395spi.o(.text)
    xReadCH395Data                           0x08002d33   Thumb Code    10  ch395spi.o(.text)
    Query395Interrupt                        0x08002d3d   Thumb Code    16  ch395spi.o(.text)
    CH395_RST                                0x08002d4d   Thumb Code    36  ch395spi.o(.text)
    CH395CMDReset                            0x08002d7d   Thumb Code    10  ch395cmd.o(.text)
    CH395CMDSleep                            0x08002d87   Thumb Code    10  ch395cmd.o(.text)
    CH395CMDGetVer                           0x08002d91   Thumb Code    18  ch395cmd.o(.text)
    CH395CMDCheckExist                       0x08002da3   Thumb Code    26  ch395cmd.o(.text)
    CH395CMDSetPHY                           0x08002dbd   Thumb Code    18  ch395cmd.o(.text)
    CH395CMDGetPHYStatus                     0x08002dcf   Thumb Code    18  ch395cmd.o(.text)
    CH395CMDGetGlobIntStatus                 0x08002de1   Thumb Code    18  ch395cmd.o(.text)
    CH395GetCmdStatus                        0x08002df3   Thumb Code    18  ch395cmd.o(.text)
    CH395CMDInitCH395                        0x08002e05   Thumb Code    54  ch395cmd.o(.text)
    CH395CMDSetUartBaudRate                  0x08002e3b   Thumb Code    34  ch395cmd.o(.text)
    CH395CMDSetIPAddr                        0x08002e5d   Thumb Code    32  ch395cmd.o(.text)
    CH395CMDSetGWIPAddr                      0x08002e7d   Thumb Code    32  ch395cmd.o(.text)
    CH395CMDSetMASKAddr                      0x08002e9d   Thumb Code    32  ch395cmd.o(.text)
    CH395CMDSetMACAddr                       0x08002ebd   Thumb Code    38  ch395cmd.o(.text)
    CH395CMDGetMACAddr                       0x08002ee3   Thumb Code    32  ch395cmd.o(.text)
    CH395CMDSetMACFilt                       0x08002f03   Thumb Code    78  ch395cmd.o(.text)
    CH395CMDGetUnreachIPPT                   0x08002f51   Thumb Code    32  ch395cmd.o(.text)
    CH395CMDGetRemoteIPP                     0x08002f71   Thumb Code    40  ch395cmd.o(.text)
    CH395SetSocketDesIP                      0x08002f99   Thumb Code    52  ch395cmd.o(.text)
    CH395SetSocketProtType                   0x08002fcd   Thumb Code    26  ch395cmd.o(.text)
    CH395SetSocketDesPort                    0x08002fe7   Thumb Code    32  ch395cmd.o(.text)
    CH395SetSocketSourPort                   0x08003007   Thumb Code    32  ch395cmd.o(.text)
    CH395SetSocketIPRAWProto                 0x08003027   Thumb Code    26  ch395cmd.o(.text)
    CH395EnablePing                          0x08003041   Thumb Code    18  ch395cmd.o(.text)
    CH395SendData                            0x08003053   Thumb Code    58  ch395cmd.o(.text)
    CH395GetRecvLength                       0x0800308d   Thumb Code    36  ch395cmd.o(.text)
    CH395ClearRecvBuf                        0x080030b1   Thumb Code    18  ch395cmd.o(.text)
    CH395GetRecvData                         0x080030c3   Thumb Code    70  ch395cmd.o(.text)
    CH395CMDSetRetryCount                    0x08003109   Thumb Code    18  ch395cmd.o(.text)
    CH395CMDSetRetryPeriod                   0x0800311b   Thumb Code    24  ch395cmd.o(.text)
    CH395CMDGetSocketStatus                  0x08003133   Thumb Code    36  ch395cmd.o(.text)
    CH395OpenSocket                          0x08003157   Thumb Code    62  ch395cmd.o(.text)
    CH395CloseSocket                         0x08003195   Thumb Code    62  ch395cmd.o(.text)
    CH395TCPConnect                          0x080031d3   Thumb Code    62  ch395cmd.o(.text)
    CH395TCPListen                           0x08003211   Thumb Code    62  ch395cmd.o(.text)
    CH395TCPDisconnect                       0x0800324f   Thumb Code    62  ch395cmd.o(.text)
    CH395GetSocketInt                        0x0800328d   Thumb Code    32  ch395cmd.o(.text)
    CH395CRCRet6Bit                          0x080032ad   Thumb Code    62  ch395cmd.o(.text)
    CH395DHCPEnable                          0x080032eb   Thumb Code    60  ch395cmd.o(.text)
    CH395GetDHCPStatus                       0x08003327   Thumb Code    18  ch395cmd.o(.text)
    CH395GetIPInf                            0x08003339   Thumb Code    32  ch395cmd.o(.text)
    CH395WriteGPIOAddr                       0x08003359   Thumb Code    26  ch395cmd.o(.text)
    CH395ReadGPIOAddr                        0x08003373   Thumb Code    32  ch395cmd.o(.text)
    CH395EEPROMErase                         0x08003393   Thumb Code    38  ch395cmd.o(.text)
    CH395EEPROMWrite                         0x080033b9   Thumb Code    86  ch395cmd.o(.text)
    CH395EEPROMRead                          0x0800340f   Thumb Code    60  ch395cmd.o(.text)
    CH395SetTCPMss                           0x0800344b   Thumb Code    24  ch395cmd.o(.text)
    CH395SetSocketRecvBuf                    0x08003463   Thumb Code    34  ch395cmd.o(.text)
    CH395SetSocketSendBuf                    0x08003485   Thumb Code    34  ch395cmd.o(.text)
    CH395UDPSendTo                           0x080034a7   Thumb Code    46  ch395cmd.o(.text)
    CH395SetStartPara                        0x080034d5   Thumb Code    40  ch395cmd.o(.text)
    CH395CMDGetGlobIntStatus_ALL             0x080034fd   Thumb Code    34  ch395cmd.o(.text)
    __aeabi_memcpy                           0x08003525   Thumb Code    36  memcpya.o(.text)
    __aeabi_memcpy4                          0x08003525   Thumb Code     0  memcpya.o(.text)
    __aeabi_memcpy8                          0x08003525   Thumb Code     0  memcpya.o(.text)
    __aeabi_uldivmod                         0x08003549   Thumb Code    98  uldiv.o(.text)
    __scatterload                            0x080035ad   Thumb Code    28  init.o(.text)
    __scatterload_rt2                        0x080035ad   Thumb Code     0  init.o(.text)
    __aeabi_llsl                             0x080035d1   Thumb Code    30  llshl.o(.text)
    _ll_shift_l                              0x080035d1   Thumb Code     0  llshl.o(.text)
    __aeabi_llsr                             0x080035ef   Thumb Code    32  llushr.o(.text)
    _ll_ushift_r                             0x080035ef   Thumb Code     0  llushr.o(.text)
    __0printf$5                              0x08003611   Thumb Code    22  printf5.o(i.__0printf$5)
    __1printf$5                              0x08003611   Thumb Code     0  printf5.o(i.__0printf$5)
    __2printf                                0x08003611   Thumb Code     0  printf5.o(i.__0printf$5)
    __scatterload_copy                       0x08003631   Thumb Code    14  handlers.o(i.__scatterload_copy)
    __scatterload_null                       0x0800363f   Thumb Code     2  handlers.o(i.__scatterload_null)
    __scatterload_zeroinit                   0x08003641   Thumb Code    14  handlers.o(i.__scatterload_zeroinit)
    Region$$Table$$Base                      0x08003910   Number         0  anon$$obj.o(Region$$Table)
    Region$$Table$$Limit                     0x08003930   Number         0  anon$$obj.o(Region$$Table)
    ch395_version                            0x20000000   Data           1  main.o(.data)
    ch395_status                             0x20000004   Data           4  main.o(.data)
    SocketDesIP                              0x20000008   Data           4  main.o(.data)
    SocketDesPort                            0x2000000c   Data           2  main.o(.data)
    SocketStatus                             0x2000000e   Data           4  main.o(.data)
    SocketLocalPort                          0x20000012   Data           2  main.o(.data)
    rb_t_usart1_send_byte                    0x20000018   Data           1  usart.o(.data)
    usart1_read_count                        0x2000001c   Data           4  usart.o(.data)
    usart1_idle_flag                         0x20000020   Data           1  usart.o(.data)
    Timer2Cnt                                0x20000024   Data           4  timer.o(.data)
    idAddr                                   0x20000028   Data          40  mcu_api.o(.data)
    SystemCoreClock                          0x20000050   Data           4  system_stm32f10x.o(.data)
    AHBPrescTable                            0x20000054   Data          16  system_stm32f10x.o(.data)
    __stdout                                 0x20000078   Data           4  stdout.o(.data)
    recv_buff                                0x2000007c   Data        1500  main.o(.bss)
    buf                                      0x20000658   Data          20  main.o(.bss)
    rb_t_usart1_read                         0x2000066c   Data          16  usart.o(.bss)
    rb_t_usart1_read_buff                    0x2000067c   Data        1024  usart.o(.bss)
    usart1_read_buff_copy                    0x20000a7c   Data        1024  usart.o(.bss)
    rb_t_usart1_send                         0x20000e7c   Data          16  usart.o(.bss)
    rb_t_usart1_send_buff                    0x20000e8c   Data        1024  usart.o(.bss)
    __initial_sp                             0x20001690   Data           0  startup_stm32f10x_hd.o(STACK)



==============================================================================

Memory Map of the image

  Image Entry point : 0x08000131

  Load Region LR_IROM1 (Base: 0x08000000, Size: 0x000039ac, Max: 0x00010000, ABSOLUTE)

    Execution Region ER_IROM1 (Base: 0x08000000, Size: 0x00003930, Max: 0x00010000, ABSOLUTE)

    Base Addr    Size         Type   Attr      Idx    E Section Name        Object

    0x08000000   0x00000130   Data   RO          393    RESET               startup_stm32f10x_hd.o
    0x08000130   0x00000000   Code   RO          458  * .ARM.Collect$$$$00000000  mc_w.l(entry.o)
    0x08000130   0x00000004   Code   RO          726    .ARM.Collect$$$$00000001  mc_w.l(entry2.o)
    0x08000134   0x00000004   Code   RO          729    .ARM.Collect$$$$00000004  mc_w.l(entry5.o)
    0x08000138   0x00000000   Code   RO          731    .ARM.Collect$$$$00000008  mc_w.l(entry7b.o)
    0x08000138   0x00000000   Code   RO          733    .ARM.Collect$$$$0000000A  mc_w.l(entry8b.o)
    0x08000138   0x00000008   Code   RO          734    .ARM.Collect$$$$0000000B  mc_w.l(entry9a.o)
    0x08000140   0x00000000   Code   RO          736    .ARM.Collect$$$$0000000D  mc_w.l(entry10a.o)
    0x08000140   0x00000000   Code   RO          738    .ARM.Collect$$$$0000000F  mc_w.l(entry11a.o)
    0x08000140   0x00000004   Code   RO          727    .ARM.Collect$$$$00002712  mc_w.l(entry2.o)
    0x08000144   0x00000040   Code   RO            1    .text               stm32f10x_it.o
    0x08000184   0x00000460   Code   RO          104    .text               main.o
    0x080005e4   0x000000d4   Code   RO          169    .text               delay.o
    0x080006b8   0x00000254   Code   RO          186    .text               usart.o
    0x0800090c   0x0000002c   Code   RO          209    .text               iwdg.o
    0x08000938   0x00000094   Code   RO          224    .text               timer.o
    0x080009cc   0x00000088   Code   RO          242    .text               mcu_api.o
    0x08000a54   0x000001e0   Code   RO          275    .text               system_stm32f10x.o
    0x08000c34   0x000000dc   Code   RO          293    .text               misc.o
    0x08000d10   0x000003a4   Code   RO          305    .text               stm32f10x_rcc.o
    0x080010b4   0x00000408   Code   RO          319    .text               stm32f10x_usart.o
    0x080014bc   0x0000035c   Code   RO          343    .text               stm32f10x_gpio.o
    0x08001818   0x00000e1a   Code   RO          355    .text               stm32f10x_tim.o
    0x08002632   0x00000002   PAD
    0x08002634   0x00000040   Code   RO          367    .text               stm32f10x_iwdg.o
    0x08002674   0x0000030c   Code   RO          379    .text               stm32f10x_spi.o
    0x08002980   0x00000024   Code   RO          394    .text               startup_stm32f10x_hd.o
    0x080029a4   0x000001fc   Code   RO          413    .text               looplist.o
    0x08002ba0   0x000001dc   Code   RO          428    .text               ch395spi.o
    0x08002d7c   0x000007a8   Code   RO          443    .text               ch395cmd.o
    0x08003524   0x00000024   Code   RO          461    .text               mc_w.l(memcpya.o)
    0x08003548   0x00000062   Code   RO          743    .text               mc_w.l(uldiv.o)
    0x080035aa   0x00000002   PAD
    0x080035ac   0x00000024   Code   RO          756    .text               mc_w.l(init.o)
    0x080035d0   0x0000001e   Code   RO          758    .text               mc_w.l(llshl.o)
    0x080035ee   0x00000020   Code   RO          760    .text               mc_w.l(llushr.o)
    0x0800360e   0x00000002   PAD
    0x08003610   0x00000020   Code   RO          598    i.__0printf$5       mc_w.l(printf5.o)
    0x08003630   0x0000000e   Code   RO          768    i.__scatterload_copy  mc_w.l(handlers.o)
    0x0800363e   0x00000002   Code   RO          769    i.__scatterload_null  mc_w.l(handlers.o)
    0x08003640   0x0000000e   Code   RO          770    i.__scatterload_zeroinit  mc_w.l(handlers.o)
    0x0800364e   0x00000002   PAD
    0x08003650   0x000002c0   Code   RO          605    i._printf_core      mc_w.l(printf5.o)
    0x08003910   0x00000020   Data   RO          766    Region$$Table       anon$$obj.o


    Execution Region RW_IRAM1 (Base: 0x20000000, Size: 0x00001690, Max: 0x00005000, ABSOLUTE)

    Base Addr    Size         Type   Attr      Idx    E Section Name        Object

    0x20000000   0x00000014   Data   RW          106    .data               main.o
    0x20000014   0x00000004   Data   RW          170    .data               delay.o
    0x20000018   0x0000000a   Data   RW          188    .data               usart.o
    0x20000022   0x00000002   PAD
    0x20000024   0x00000004   Data   RW          225    .data               timer.o
    0x20000028   0x00000028   Data   RW          243    .data               mcu_api.o
    0x20000050   0x00000014   Data   RW          276    .data               system_stm32f10x.o
    0x20000064   0x00000014   Data   RW          306    .data               stm32f10x_rcc.o
    0x20000078   0x00000004   Data   RW          740    .data               mc_w.l(stdout.o)
    0x2000007c   0x000005f0   Zero   RW          105    .bss                main.o
    0x2000066c   0x00000c20   Zero   RW          187    .bss                usart.o
    0x2000128c   0x00000004   PAD
    0x20001290   0x00000400   Zero   RW          391    STACK               startup_stm32f10x_hd.o


==============================================================================

Image component sizes


      Code (inc. data)   RO Data    RW Data    ZI Data      Debug   Object Name

      1960          6          0          0          0      12928   ch395cmd.o
       476         12          0          0          0       6413   ch395spi.o
         0          0          0          0          0         32   core_cm3.o
       212         18          0          4          0       1131   delay.o
        44          0          0          0          0        702   iwdg.o
       508          0          0          0          0       3471   looplist.o
      1120        394          0         20       1520       7841   main.o
       136         42          0         40          0       1666   mcu_api.o
       220         22          0          0          0       1913   misc.o
        36          8        304          0       1024        848   startup_stm32f10x_hd.o
       860         38          0          0          0       5761   stm32f10x_gpio.o
        64          8          0          0          0     275169   stm32f10x_it.o
        64          6          0          0          0       1329   stm32f10x_iwdg.o
       932         36          0         20          0       9000   stm32f10x_rcc.o
       780         14          0          0          0       6642   stm32f10x_spi.o
      3610         88          0          0          0      22248   stm32f10x_tim.o
      1032         22          0          0          0       8484   stm32f10x_usart.o
       480         38          0         20          0       2007   system_stm32f10x.o
       148          6          0          4          0       1056   timer.o
       596         42          0         10       3104       4866   usart.o

    ----------------------------------------------------------------------
     13280        800        336        120       5652     373507   Object Totals
         0          0         32          0          0          0   (incl. Generated)
         2          0          0          2          4          0   (incl. Padding)

    ----------------------------------------------------------------------

      Code (inc. data)   RO Data    RW Data    ZI Data      Debug   Library Member Name

         0          0          0          0          0          0   entry.o
         0          0          0          0          0          0   entry10a.o
         0          0          0          0          0          0   entry11a.o
         8          4          0          0          0          0   entry2.o
         4          0          0          0          0          0   entry5.o
         0          0          0          0          0          0   entry7b.o
         0          0          0          0          0          0   entry8b.o
         8          4          0          0          0          0   entry9a.o
        30          0          0          0          0          0   handlers.o
        36          8          0          0          0         68   init.o
        30          0          0          0          0         68   llshl.o
        32          0          0          0          0         68   llushr.o
        36          0          0          0          0         68   memcpya.o
       736         56          0          0          0        184   printf5.o
         0          0          0          4          0          0   stdout.o
        98          0          0          0          0         92   uldiv.o

    ----------------------------------------------------------------------
      1024         72          0          4          0        548   Library Totals
         6          0          0          0          0          0   (incl. Padding)

    ----------------------------------------------------------------------

      Code (inc. data)   RO Data    RW Data    ZI Data      Debug   Library Name

      1018         72          0          4          0        548   mc_w.l

    ----------------------------------------------------------------------
      1024         72          0          4          0        548   Library Totals

    ----------------------------------------------------------------------

==============================================================================


      Code (inc. data)   RO Data    RW Data    ZI Data      Debug   

     14304        872        336        124       5652     372231   Grand Totals
     14304        872        336        124       5652     372231   ELF Image Totals
     14304        872        336        124          0          0   ROM Totals

==============================================================================

    Total RO  Size (Code + RO Data)                14640 (  14.30kB)
    Total RW  Size (RW Data + ZI Data)              5776 (   5.64kB)
    Total ROM Size (Code + RO Data + RW Data)      14764 (  14.42kB)

==============================================================================

