Component: ARM Compiler 5.05 update 1 (build 106) Tool: armlink [4d0efa]

==============================================================================

Section Cross References

    main.o(.text) refers to ch395cmd.o(.text) for CH395SetSocketProtType
    main.o(.text) refers to printf8.o(i.__0printf$8) for __2printf
    main.o(.text) refers to looplist.o(.text) for PutData
    main.o(.text) refers to stm32f10x_usart.o(.text) for USART_ITConfig
    main.o(.text) refers to http_help.o(.text) for ParseHttpRequest
    main.o(.text) refers to strcmp.o(.text) for strcmp
    main.o(.text) refers to memseta.o(.text) for __aeabi_memclr
    main.o(.text) refers to strlen.o(.text) for strlen
    main.o(.text) refers to delay.o(.text) for delay_ms
    main.o(.text) refers to mcu_api.o(.text) for NVIC_Configuration
    main.o(.text) refers to usart.o(.text) for uart_init
    main.o(.text) refers to timer.o(.text) for timer2_config
    main.o(.text) refers to ch395spi.o(.text) for CH395_PORT_INIT
    main.o(.text) refers to iwdg.o(.text) for IWDG_Init
    main.o(.text) refers to main.o(.bss) for recv_buff
    main.o(.text) refers to usart.o(.bss) for rb_t_usart1_send
    main.o(.text) refers to main.o(.conststring) for .conststring
    main.o(.text) refers to main.o(.data) for SocketServerStatus
==============================================================================

Removing Unused input sections from the image.

    Removing core_cm3.o(.emb_text), (32 bytes).
    Removing stm32f10x_flash.o(.text), (1468 bytes).
    Removing startup_stm32f10x_hd.o(HEAP), (512 bytes).
    Removing buffermanage.o(.text), (212 bytes).
    Removing dadd.o(.text), (334 bytes).
    Removing dmul.o(.text), (228 bytes).
    Removing ddiv.o(.text), (222 bytes).
    Removing dfixul.o(.text), (48 bytes).
    Removing cdrcmple.o(.text), (48 bytes).
    Removing depilogue.o(.text), (186 bytes).

10 unused section(s) (total 3290 bytes) removed from the image.

==============================================================================

Image Symbol Table

    Local Symbols

    Symbol Name                              Value     Ov Type        Size  Object(Section)

    ../clib/../cmprslib/lz77c.c              0x00000000   Number         0  __dclz77c.o ABSOLUTE
    ../clib/microlib/division.c              0x00000000   Number         0  uldiv.o ABSOLUTE
    ../clib/microlib/division.c              0x00000000   Number         0  uidiv.o ABSOLUTE
    ../clib/microlib/init/entry.s            0x00000000   Number         0  entry8a.o ABSOLUTE
    ../clib/microlib/init/entry.s            0x00000000   Number         0  entry10a.o ABSOLUTE
    ../clib/microlib/init/entry.s            0x00000000   Number         0  entry7b.o ABSOLUTE
    ../clib/microlib/init/entry.s            0x00000000   Number         0  entry9b.o ABSOLUTE
    ../clib/microlib/init/entry.s            0x00000000   Number         0  entry7a.o ABSOLUTE
    ../clib/microlib/init/entry.s            0x00000000   Number         0  entry9a.o ABSOLUTE
    ../clib/microlib/init/entry.s            0x00000000   Number         0  entry11b.o ABSOLUTE
    ../clib/microlib/init/entry.s            0x00000000   Number         0  entry.o ABSOLUTE
    ../clib/microlib/init/entry.s            0x00000000   Number         0  entry8b.o ABSOLUTE
    ../clib/microlib/init/entry.s            0x00000000   Number         0  entry11a.o ABSOLUTE
    ../clib/microlib/init/entry.s            0x00000000   Number         0  entry10b.o ABSOLUTE
    ../clib/microlib/init/entry.s            0x00000000   Number         0  entry2.o ABSOLUTE
    ../clib/microlib/init/entry.s            0x00000000   Number         0  entry5.o ABSOLUTE
    ../clib/microlib/longlong.c              0x00000000   Number         0  llsshr.o ABSOLUTE
    ../clib/microlib/longlong.c              0x00000000   Number         0  llushr.o ABSOLUTE
    ../clib/microlib/longlong.c              0x00000000   Number         0  llshl.o ABSOLUTE
    ../clib/microlib/printf/printf.c         0x00000000   Number         0  printf2.o ABSOLUTE
    ../clib/microlib/printf/printf.c         0x00000000   Number         0  printf7.o ABSOLUTE
    ../clib/microlib/printf/printf.c         0x00000000   Number         0  printf1.o ABSOLUTE
    ../clib/microlib/printf/printf.c         0x00000000   Number         0  printf0.o ABSOLUTE
    ../clib/microlib/printf/printf.c         0x00000000   Number         0  printfb.o ABSOLUTE
    ../clib/microlib/printf/printf.c         0x00000000   Number         0  printf3.o ABSOLUTE
    ../clib/microlib/printf/printf.c         0x00000000   Number         0  printfa.o ABSOLUTE
    ../clib/microlib/printf/printf.c         0x00000000   Number         0  printf8.o ABSOLUTE
    ../clib/microlib/printf/printf.c         0x00000000   Number         0  printf6.o ABSOLUTE
    ../clib/microlib/printf/printf.c         0x00000000   Number         0  printf5.o ABSOLUTE
    ../clib/microlib/printf/printf.c         0x00000000   Number         0  printf4.o ABSOLUTE
    ../clib/microlib/printf/stubs.s          0x00000000   Number         0  stubs.o ABSOLUTE
    ../clib/microlib/stdio/streams.c         0x00000000   Number         0  stdout.o ABSOLUTE
    ../clib/microlib/string/memcpy.c         0x00000000   Number         0  memcpyb.o ABSOLUTE
    ../clib/microlib/string/memcpy.c         0x00000000   Number         0  memcpya.o ABSOLUTE
    ../clib/microlib/string/memset.c         0x00000000   Number         0  memseta.o ABSOLUTE
    ../clib/microlib/string/strcat.c         0x00000000   Number         0  strcat.o ABSOLUTE
    ../clib/microlib/string/strcmp.c         0x00000000   Number         0  strcmp.o ABSOLUTE
    ../clib/microlib/string/strcpy.c         0x00000000   Number         0  strcpy.o ABSOLUTE
    ../clib/microlib/string/strlen.c         0x00000000   Number         0  strlen.o ABSOLUTE
    ../clib/microlib/string/strstr.c         0x00000000   Number         0  strstr.o ABSOLUTE
    ../clib/microlib/string/strtok.c         0x00000000   Number         0  strtok.o ABSOLUTE
    ../clib/microlib/string/strtok.c         0x00000000   Number         0  strtok_r.o ABSOLUTE
    ../clib/microlib/stubs.s                 0x00000000   Number         0  iusefp.o ABSOLUTE
    ../fplib/microlib/fpadd.c                0x00000000   Number         0  dadd.o ABSOLUTE
    ../fplib/microlib/fpdiv.c                0x00000000   Number         0  ddiv.o ABSOLUTE
    ../fplib/microlib/fpepilogue.c           0x00000000   Number         0  depilogue.o ABSOLUTE
    ../fplib/microlib/fpfix.c                0x00000000   Number         0  dfixul.o ABSOLUTE
    ../fplib/microlib/fpmul.c                0x00000000   Number         0  dmul.o ABSOLUTE
    ..\CH395\CH395CMD.C                      0x00000000   Number         0  ch395cmd.o ABSOLUTE
    ..\CH395\CH395SPI.C                      0x00000000   Number         0  ch395spi.o ABSOLUTE
    ..\CMSIS\core_cm3.c                      0x00000000   Number         0  core_cm3.o ABSOLUTE
    ..\CMSIS\system_stm32f10x.c              0x00000000   Number         0  system_stm32f10x.o ABSOLUTE
    ..\Libraries\src\misc.c                  0x00000000   Number         0  misc.o ABSOLUTE
    ..\Libraries\src\stm32f10x_flash.c       0x00000000   Number         0  stm32f10x_flash.o ABSOLUTE
    ..\Libraries\src\stm32f10x_gpio.c        0x00000000   Number         0  stm32f10x_gpio.o ABSOLUTE
    ..\Libraries\src\stm32f10x_iwdg.c        0x00000000   Number         0  stm32f10x_iwdg.o ABSOLUTE
    ..\Libraries\src\stm32f10x_rcc.c         0x00000000   Number         0  stm32f10x_rcc.o ABSOLUTE
    ..\Libraries\src\stm32f10x_spi.c         0x00000000   Number         0  stm32f10x_spi.o ABSOLUTE
    ..\Libraries\src\stm32f10x_tim.c         0x00000000   Number         0  stm32f10x_tim.o ABSOLUTE
    ..\Libraries\src\stm32f10x_usart.c       0x00000000   Number         0  stm32f10x_usart.o ABSOLUTE
    ..\Startup\startup_stm32f10x_hd.s        0x00000000   Number         0  startup_stm32f10x_hd.o ABSOLUTE
    ..\User\delay.c                          0x00000000   Number         0  delay.o ABSOLUTE
    ..\User\http_help.c                      0x00000000   Number         0  http_help.o ABSOLUTE
    ..\User\iwdg.c                           0x00000000   Number         0  iwdg.o ABSOLUTE
    ..\User\main.c                           0x00000000   Number         0  main.o ABSOLUTE
    ..\User\mcu_api.c                        0x00000000   Number         0  mcu_api.o ABSOLUTE
    ..\User\stm32f10x_it.c                   0x00000000   Number         0  stm32f10x_it.o ABSOLUTE
    ..\User\timer.c                          0x00000000   Number         0  timer.o ABSOLUTE
    ..\User\usart.c                          0x00000000   Number         0  usart.o ABSOLUTE
    ..\\CMSIS\\core_cm3.c                    0x00000000   Number         0  core_cm3.o ABSOLUTE
    ..\mem\BufferManage.c                    0x00000000   Number         0  buffermanage.o ABSOLUTE
    ..\mem\LoopList.c                        0x00000000   Number         0  looplist.o ABSOLUTE
    cdrcmple.s                               0x00000000   Number         0  cdrcmple.o ABSOLUTE
    dc.s                                     0x00000000   Number         0  dc.o ABSOLUTE
    handlers.s                               0x00000000   Number         0  handlers.o ABSOLUTE
    init.s                                   0x00000000   Number         0  init.o ABSOLUTE
    RESET                                    0x08000000   Section      304  startup_stm32f10x_hd.o(RESET)
    .ARM.Collect$$$$00000000                 0x08000130   Section        0  entry.o(.ARM.Collect$$$$00000000)
    .ARM.Collect$$$$00000001                 0x08000130   Section        4  entry2.o(.ARM.Collect$$$$00000001)
    .ARM.Collect$$$$00000004                 0x08000134   Section        4  entry5.o(.ARM.Collect$$$$00000004)
    .ARM.Collect$$$$00000008                 0x08000138   Section        0  entry7b.o(.ARM.Collect$$$$00000008)
    .ARM.Collect$$$$0000000A                 0x08000138   Section        0  entry8b.o(.ARM.Collect$$$$0000000A)
    .ARM.Collect$$$$0000000B                 0x08000138   Section        8  entry9a.o(.ARM.Collect$$$$0000000B)
    .ARM.Collect$$$$0000000D                 0x08000140   Section        0  entry10a.o(.ARM.Collect$$$$0000000D)
    .ARM.Collect$$$$0000000F                 0x08000140   Section        0  entry11a.o(.ARM.Collect$$$$0000000F)
    .ARM.Collect$$$$00002712                 0x08000140   Section        4  entry2.o(.ARM.Collect$$$$00002712)
    __lit__00000000                          0x08000140   Data           4  entry2.o(.ARM.Collect$$$$00002712)
    .text                                    0x08000144   Section        0  stm32f10x_it.o(.text)
    .text                                    0x08000184   Section        0  main.o(.text)
    .text                                    0x08000720   Section        0  delay.o(.text)
    .text                                    0x080007f4   Section        0  usart.o(.text)
    .text                                    0x08000a48   Section        0  iwdg.o(.text)
    .text                                    0x08000a74   Section        0  timer.o(.text)
    .text                                    0x08000b08   Section        0  mcu_api.o(.text)
    .text                                    0x08000b90   Section        0  http_help.o(.text)
    .text                                    0x08000ff4   Section        0  system_stm32f10x.o(.text)
    SetSysClockTo72                          0x08000ff5   Thumb Code   214  system_stm32f10x.o(.text)
    SetSysClock                              0x080010cb   Thumb Code     8  system_stm32f10x.o(.text)
    .text                                    0x080011d4   Section        0  misc.o(.text)
    .text                                    0x080012b0   Section        0  stm32f10x_rcc.o(.text)
    .text                                    0x08001654   Section        0  stm32f10x_usart.o(.text)
    .text                                    0x08001a5c   Section        0  stm32f10x_gpio.o(.text)
    .text                                    0x08001db8   Section        0  stm32f10x_tim.o(.text)
    TI4_Config                               0x0800225f   Thumb Code   130  stm32f10x_tim.o(.text)
    TI3_Config                               0x080022f3   Thumb Code   122  stm32f10x_tim.o(.text)
    TI2_Config                               0x08002387   Thumb Code   130  stm32f10x_tim.o(.text)
    TI1_Config                               0x0800241b   Thumb Code   108  stm32f10x_tim.o(.text)
    .text                                    0x08002bd4   Section        0  stm32f10x_iwdg.o(.text)
    .text                                    0x08002c14   Section        0  stm32f10x_spi.o(.text)
    .text                                    0x08002f20   Section       36  startup_stm32f10x_hd.o(.text)
    .text                                    0x08002f44   Section        0  looplist.o(.text)
    .text                                    0x08003140   Section        0  ch395spi.o(.text)
    .text                                    0x0800331c   Section        0  ch395cmd.o(.text)
    .text                                    0x08003ac4   Section        0  memcpya.o(.text)
    .text                                    0x08003ae8   Section        0  memseta.o(.text)
    .text                                    0x08003b0c   Section        0  strcat.o(.text)
    .text                                    0x08003b24   Section        0  strstr.o(.text)
    .text                                    0x08003b48   Section        0  strlen.o(.text)
    .text                                    0x08003b56   Section        0  strcmp.o(.text)
    .text                                    0x08003b72   Section        0  strcpy.o(.text)
    .text                                    0x08003b84   Section        0  strtok.o(.text)
    .text                                    0x08003bc8   Section        0  uldiv.o(.text)
    .text                                    0x08003c2c   Section       36  init.o(.text)
    .text                                    0x08003c50   Section        0  llshl.o(.text)
    .text                                    0x08003c6e   Section        0  llushr.o(.text)
    .text                                    0x08003c8e   Section        0  __dclz77c.o(.text)
    i.__0printf$8                            0x08003cec   Section        0  printf8.o(i.__0printf$8)
    i.__0sprintf$8                           0x08003d0c   Section        0  printf8.o(i.__0sprintf$8)
    i.__scatterload_copy                     0x08003d34   Section       14  handlers.o(i.__scatterload_copy)
    i.__scatterload_null                     0x08003d42   Section        2  handlers.o(i.__scatterload_null)
    i.__scatterload_zeroinit                 0x08003d44   Section       14  handlers.o(i.__scatterload_zeroinit)
    i._printf_core                           0x08003d54   Section        0  printf8.o(i._printf_core)
    _printf_core                             0x08003d55   Thumb Code   996  printf8.o(i._printf_core)
    i._printf_post_padding                   0x08004164   Section        0  printf8.o(i._printf_post_padding)
    _printf_post_padding                     0x08004165   Thumb Code    36  printf8.o(i._printf_post_padding)
    i._printf_pre_padding                    0x08004188   Section        0  printf8.o(i._printf_pre_padding)
    _printf_pre_padding                      0x08004189   Thumb Code    46  printf8.o(i._printf_pre_padding)
    i._sputc                                 0x080041b6   Section        0  printf8.o(i._sputc)
    _sputc                                   0x080041b7   Thumb Code    10  printf8.o(i._sputc)
    .conststring                             0x080041c0   Section      629  main.o(.conststring)
    .conststring                             0x08004438   Section      147  http_help.o(.conststring)
    .data                                    0x20000000   Section     2727  main.o(.data)
    .data                                    0x20000aa8   Section        4  delay.o(.data)
    fac_us                                   0x20000aa8   Data           1  delay.o(.data)
    fac_ms                                   0x20000aaa   Data           2  delay.o(.data)
    .data                                    0x20000aac   Section       10  usart.o(.data)
    flage                                    0x20000ab5   Data           1  usart.o(.data)
    .data                                    0x20000ab8   Section        4  timer.o(.data)
    .data                                    0x20000abc   Section       40  mcu_api.o(.data)
    .data                                    0x20000ae4   Section       20  system_stm32f10x.o(.data)
    .data                                    0x20000af8   Section       20  stm32f10x_rcc.o(.data)
    APBAHBPrescTable                         0x20000af8   Data          16  stm32f10x_rcc.o(.data)
    ADCPrescTable                            0x20000b08   Data           4  stm32f10x_rcc.o(.data)
    .data                                    0x20000b0c   Section        4  strtok.o(.data)
    state                                    0x20000b0c   Data           4  strtok.o(.data)
    .data                                    0x20000b10   Section        4  stdout.o(.data)
    .bss                                     0x20000b14   Section     1674  main.o(.bss)
    .bss                                     0x200011a0   Section     3580  usart.o(.bss)
    .bss                                     0x20001f9c   Section      128  http_help.o(.bss)
    STACK                                    0x20002020   Section     1024  startup_stm32f10x_hd.o(STACK)

    Global Symbols

    Symbol Name                              Value     Ov Type        Size  Object(Section)

    BuildAttributes$$THM_ISAv4$P$D$K$B$S$PE$A:L22UL41UL21$X:L11$S22US41US21$IEEE1$IW$USESV6$~STKCKD$USESV7$~SHL$OSPACE$ROPI$EBA8$MICROLIB$REQ8$PRES8$EABIv2 0x00000000   Number         0  anon$$obj.o ABSOLUTE
    __ARM_use_no_argv                        0x00000000   Number         0  main.o ABSOLUTE
    _printf_a                                0x00000000   Number         0  stubs.o ABSOLUTE
    _printf_c                                0x00000000   Number         0  stubs.o ABSOLUTE
    _printf_charcount                        0x00000000   Number         0  stubs.o ABSOLUTE
    _printf_d                                0x00000000   Number         0  stubs.o ABSOLUTE
    _printf_e                                0x00000000   Number         0  stubs.o ABSOLUTE
    _printf_f                                0x00000000   Number         0  stubs.o ABSOLUTE
    _printf_flags                            0x00000000   Number         0  stubs.o ABSOLUTE
    _printf_fp_dec                           0x00000000   Number         0  stubs.o ABSOLUTE
    _printf_fp_hex                           0x00000000   Number         0  stubs.o ABSOLUTE
    _printf_g                                0x00000000   Number         0  stubs.o ABSOLUTE
    _printf_i                                0x00000000   Number         0  stubs.o ABSOLUTE
    _printf_int_dec                          0x00000000   Number         0  stubs.o ABSOLUTE
    _printf_l                                0x00000000   Number         0  stubs.o ABSOLUTE
    _printf_lc                               0x00000000   Number         0  stubs.o ABSOLUTE
    _printf_ll                               0x00000000   Number         0  stubs.o ABSOLUTE
    _printf_lld                              0x00000000   Number         0  stubs.o ABSOLUTE
    _printf_lli                              0x00000000   Number         0  stubs.o ABSOLUTE
    _printf_llo                              0x00000000   Number         0  stubs.o ABSOLUTE
    _printf_llu                              0x00000000   Number         0  stubs.o ABSOLUTE
    _printf_llx                              0x00000000   Number         0  stubs.o ABSOLUTE
    _printf_longlong_dec                     0x00000000   Number         0  stubs.o ABSOLUTE
    _printf_longlong_hex                     0x00000000   Number         0  stubs.o ABSOLUTE
    _printf_longlong_oct                     0x00000000   Number         0  stubs.o ABSOLUTE
    _printf_ls                               0x00000000   Number         0  stubs.o ABSOLUTE
    _printf_mbtowc                           0x00000000   Number         0  stubs.o ABSOLUTE
    _printf_n                                0x00000000   Number         0  stubs.o ABSOLUTE
    _printf_o                                0x00000000   Number         0  stubs.o ABSOLUTE
    _printf_p                                0x00000000   Number         0  stubs.o ABSOLUTE
    _printf_percent                          0x00000000   Number         0  stubs.o ABSOLUTE
    _printf_pre_padding                      0x00000000   Number         0  stubs.o ABSOLUTE
    _printf_return_value                     0x00000000   Number         0  stubs.o ABSOLUTE
    _printf_s                                0x00000000   Number         0  stubs.o ABSOLUTE
    _printf_sizespec                         0x00000000   Number         0  stubs.o ABSOLUTE
    _printf_str                              0x00000000   Number         0  stubs.o ABSOLUTE
    _printf_truncate_signed                  0x00000000   Number         0  stubs.o ABSOLUTE
    _printf_truncate_unsigned                0x00000000   Number         0  stubs.o ABSOLUTE
    _printf_u                                0x00000000   Number         0  stubs.o ABSOLUTE
    _printf_wc                               0x00000000   Number         0  stubs.o ABSOLUTE
    _printf_wctomb                           0x00000000   Number         0  stubs.o ABSOLUTE
    _printf_widthprec                        0x00000000   Number         0  stubs.o ABSOLUTE
    _printf_x                                0x00000000   Number         0  stubs.o ABSOLUTE
    __cpp_initialize__aeabi_                  - Undefined Weak Reference
    __cxa_finalize                            - Undefined Weak Reference
    _clock_init                               - Undefined Weak Reference
    _microlib_exit                            - Undefined Weak Reference
    __Vectors_Size                           0x00000130   Number         0  startup_stm32f10x_hd.o ABSOLUTE
    __Vectors                                0x08000000   Data           4  startup_stm32f10x_hd.o(RESET)
    __Vectors_End                            0x08000130   Data           0  startup_stm32f10x_hd.o(RESET)
    __main                                   0x08000131   Thumb Code     0  entry.o(.ARM.Collect$$$$00000000)
    _main_stk                                0x08000131   Thumb Code     0  entry2.o(.ARM.Collect$$$$00000001)
    _main_scatterload                        0x08000135   Thumb Code     0  entry5.o(.ARM.Collect$$$$00000004)
    __main_after_scatterload                 0x08000139   Thumb Code     0  entry5.o(.ARM.Collect$$$$00000004)
    _main_clock                              0x08000139   Thumb Code     0  entry7b.o(.ARM.Collect$$$$00000008)
    _main_cpp_init                           0x08000139   Thumb Code     0  entry8b.o(.ARM.Collect$$$$0000000A)
    _main_init                               0x08000139   Thumb Code     0  entry9a.o(.ARM.Collect$$$$0000000B)
    __rt_final_cpp                           0x08000141   Thumb Code     0  entry10a.o(.ARM.Collect$$$$0000000D)
    __rt_final_exit                          0x08000141   Thumb Code     0  entry11a.o(.ARM.Collect$$$$0000000F)
    NMI_Handler                              0x08000145   Thumb Code     2  stm32f10x_it.o(.text)
    HardFault_Handler                        0x08000147   Thumb Code    36  stm32f10x_it.o(.text)
    MemManage_Handler                        0x0800016b   Thumb Code     4  stm32f10x_it.o(.text)
    BusFault_Handler                         0x0800016f   Thumb Code     4  stm32f10x_it.o(.text)
    UsageFault_Handler                       0x08000173   Thumb Code     4  stm32f10x_it.o(.text)
    SVC_Handler                              0x08000177   Thumb Code     2  stm32f10x_it.o(.text)
    DebugMon_Handler                         0x08000179   Thumb Code     2  stm32f10x_it.o(.text)
    PendSV_Handler                           0x0800017b   Thumb Code     2  stm32f10x_it.o(.text)
    ch395_socket_tcp_server_init             0x08000185   Thumb Code    38  main.o(.text)
    ch395_socket_tcp_client_interrupt        0x080001ab   Thumb Code   410  main.o(.text)
    main                                     0x08000345   Thumb Code   414  main.o(.text)
    delay_init                               0x08000721   Thumb Code    50  delay.o(.text)
    delay_us                                 0x08000753   Thumb Code    72  delay.o(.text)
    delay_ms                                 0x0800079b   Thumb Code    72  delay.o(.text)
    uart_init                                0x080007f5   Thumb Code   198  usart.o(.text)
    UsartOutStrIT                            0x080008bb   Thumb Code    38  usart.o(.text)
    UsartOutStr                              0x080008e1   Thumb Code    44  usart.o(.text)
    UsartOutChar                             0x0800090d   Thumb Code    30  usart.o(.text)
    USART1_IRQHandler                        0x0800092b   Thumb Code   186  usart.o(.text)
    fputc                                    0x080009e5   Thumb Code    58  usart.o(.text)
    IWDG_Init                                0x08000a49   Thumb Code    36  iwdg.o(.text)
    IWDG_Feed                                0x08000a6d   Thumb Code     8  iwdg.o(.text)
    timer2_config                            0x08000a75   Thumb Code   108  timer.o(.text)
    TIM2_IRQHandler                          0x08000ae1   Thumb Code    34  timer.o(.text)
    NVIC_Configuration                       0x08000b09   Thumb Code    12  mcu_api.o(.text)
    Reset_MCU                                0x08000b15   Thumb Code    32  mcu_api.o(.text)
    GetSTM32MCUID                            0x08000b35   Thumb Code    50  mcu_api.o(.text)
    MakeHttpResponse                         0x08000b91   Thumb Code   108  http_help.o(.text)
    ParseUriType                             0x08000bfd   Thumb Code   232  http_help.o(.text)
    ParseHttpRequest                         0x08000ce5   Thumb Code   168  http_help.o(.text)
    DataLocate                               0x08000d8d   Thumb Code    34  http_help.o(.text)
    GetUriName                               0x08000daf   Thumb Code    52  http_help.o(.text)
    SystemInit                               0x080010d3   Thumb Code    78  system_stm32f10x.o(.text)
    SystemCoreClockUpdate                    0x08001121   Thumb Code   142  system_stm32f10x.o(.text)
    NVIC_PriorityGroupConfig                 0x080011d5   Thumb Code    10  misc.o(.text)
    NVIC_Init                                0x080011df   Thumb Code   100  misc.o(.text)
    NVIC_SetVectorTable                      0x08001243   Thumb Code    14  misc.o(.text)
    NVIC_SystemLPConfig                      0x08001251   Thumb Code    34  misc.o(.text)
    SysTick_CLKSourceConfig                  0x08001273   Thumb Code    40  misc.o(.text)
    RCC_DeInit                               0x080012b1   Thumb Code    64  stm32f10x_rcc.o(.text)
    RCC_HSEConfig                            0x080012f1   Thumb Code    70  stm32f10x_rcc.o(.text)
    RCC_GetFlagStatus                        0x08001337   Thumb Code    56  stm32f10x_rcc.o(.text)
    RCC_WaitForHSEStartUp                    0x0800136f   Thumb Code    56  stm32f10x_rcc.o(.text)
    RCC_AdjustHSICalibrationValue            0x080013a7   Thumb Code    20  stm32f10x_rcc.o(.text)
    RCC_HSICmd                               0x080013bb   Thumb Code     6  stm32f10x_rcc.o(.text)
    RCC_PLLConfig                            0x080013c1   Thumb Code    24  stm32f10x_rcc.o(.text)
    RCC_PLLCmd                               0x080013d9   Thumb Code     6  stm32f10x_rcc.o(.text)
    RCC_SYSCLKConfig                         0x080013df   Thumb Code    18  stm32f10x_rcc.o(.text)
    RCC_GetSYSCLKSource                      0x080013f1   Thumb Code    10  stm32f10x_rcc.o(.text)
    RCC_HCLKConfig                           0x080013fb   Thumb Code    18  stm32f10x_rcc.o(.text)
    RCC_PCLK1Config                          0x0800140d   Thumb Code    18  stm32f10x_rcc.o(.text)
    RCC_PCLK2Config                          0x0800141f   Thumb Code    20  stm32f10x_rcc.o(.text)
    RCC_ITConfig                             0x08001433   Thumb Code    26  stm32f10x_rcc.o(.text)
    RCC_USBCLKConfig                         0x0800144d   Thumb Code     8  stm32f10x_rcc.o(.text)
    RCC_ADCCLKConfig                         0x08001455   Thumb Code    18  stm32f10x_rcc.o(.text)
    RCC_LSEConfig                            0x08001467   Thumb Code    50  stm32f10x_rcc.o(.text)
    RCC_LSICmd                               0x08001499   Thumb Code     6  stm32f10x_rcc.o(.text)
    RCC_RTCCLKConfig                         0x0800149f   Thumb Code    12  stm32f10x_rcc.o(.text)
    RCC_RTCCLKCmd                            0x080014ab   Thumb Code     8  stm32f10x_rcc.o(.text)
    RCC_GetClocksFreq                        0x080014b3   Thumb Code   192  stm32f10x_rcc.o(.text)
    RCC_AHBPeriphClockCmd                    0x08001573   Thumb Code    26  stm32f10x_rcc.o(.text)
    RCC_APB2PeriphClockCmd                   0x0800158d   Thumb Code    26  stm32f10x_rcc.o(.text)
    RCC_APB1PeriphClockCmd                   0x080015a7   Thumb Code    26  stm32f10x_rcc.o(.text)
    RCC_APB2PeriphResetCmd                   0x080015c1   Thumb Code    26  stm32f10x_rcc.o(.text)
    RCC_APB1PeriphResetCmd                   0x080015db   Thumb Code    26  stm32f10x_rcc.o(.text)
    RCC_BackupResetCmd                       0x080015f5   Thumb Code     8  stm32f10x_rcc.o(.text)
    RCC_ClockSecuritySystemCmd               0x080015fd   Thumb Code     6  stm32f10x_rcc.o(.text)
    RCC_MCOConfig                            0x08001603   Thumb Code     6  stm32f10x_rcc.o(.text)
    RCC_ClearFlag                            0x08001609   Thumb Code    14  stm32f10x_rcc.o(.text)
    RCC_GetITStatus                          0x08001617   Thumb Code    20  stm32f10x_rcc.o(.text)
    RCC_ClearITPendingBit                    0x0800162b   Thumb Code     6  stm32f10x_rcc.o(.text)
    USART_DeInit                             0x08001655   Thumb Code   134  stm32f10x_usart.o(.text)
    USART_Init                               0x080016db   Thumb Code   210  stm32f10x_usart.o(.text)
    USART_StructInit                         0x080017ad   Thumb Code    24  stm32f10x_usart.o(.text)
    USART_ClockInit                          0x080017c5   Thumb Code    34  stm32f10x_usart.o(.text)
    USART_ClockStructInit                    0x080017e7   Thumb Code    12  stm32f10x_usart.o(.text)
    USART_Cmd                                0x080017f3   Thumb Code    24  stm32f10x_usart.o(.text)
    USART_ITConfig                           0x0800180b   Thumb Code    74  stm32f10x_usart.o(.text)
    USART_DMACmd                             0x08001855   Thumb Code    18  stm32f10x_usart.o(.text)
    USART_SetAddress                         0x08001867   Thumb Code    18  stm32f10x_usart.o(.text)
    USART_WakeUpConfig                       0x08001879   Thumb Code    18  stm32f10x_usart.o(.text)
    USART_ReceiverWakeUpCmd                  0x0800188b   Thumb Code    24  stm32f10x_usart.o(.text)
    USART_LINBreakDetectLengthConfig         0x080018a3   Thumb Code    18  stm32f10x_usart.o(.text)
    USART_LINCmd                             0x080018b5   Thumb Code    24  stm32f10x_usart.o(.text)
    USART_SendData                           0x080018cd   Thumb Code     8  stm32f10x_usart.o(.text)
    USART_ReceiveData                        0x080018d5   Thumb Code    10  stm32f10x_usart.o(.text)
    USART_SendBreak                          0x080018df   Thumb Code    10  stm32f10x_usart.o(.text)
    USART_SetGuardTime                       0x080018e9   Thumb Code    16  stm32f10x_usart.o(.text)
    USART_SetPrescaler                       0x080018f9   Thumb Code    16  stm32f10x_usart.o(.text)
    USART_SmartCardCmd                       0x08001909   Thumb Code    24  stm32f10x_usart.o(.text)
    USART_SmartCardNACKCmd                   0x08001921   Thumb Code    24  stm32f10x_usart.o(.text)
    USART_HalfDuplexCmd                      0x08001939   Thumb Code    24  stm32f10x_usart.o(.text)
    USART_OverSampling8Cmd                   0x08001951   Thumb Code    22  stm32f10x_usart.o(.text)
    USART_OneBitMethodCmd                    0x08001967   Thumb Code    24  stm32f10x_usart.o(.text)
    USART_IrDAConfig                         0x0800197f   Thumb Code    18  stm32f10x_usart.o(.text)
    USART_IrDACmd                            0x08001991   Thumb Code    24  stm32f10x_usart.o(.text)
    USART_GetFlagStatus                      0x080019a9   Thumb Code    26  stm32f10x_usart.o(.text)
    USART_ClearFlag                          0x080019c3   Thumb Code    18  stm32f10x_usart.o(.text)
    USART_GetITStatus                        0x080019d5   Thumb Code    84  stm32f10x_usart.o(.text)
    USART_ClearITPendingBit                  0x08001a29   Thumb Code    52  stm32f10x_usart.o(.text)
    GPIO_DeInit                              0x08001a5d   Thumb Code   172  stm32f10x_gpio.o(.text)
    GPIO_AFIODeInit                          0x08001b09   Thumb Code    20  stm32f10x_gpio.o(.text)
    GPIO_Init                                0x08001b1d   Thumb Code   278  stm32f10x_gpio.o(.text)
    GPIO_StructInit                          0x08001c33   Thumb Code    16  stm32f10x_gpio.o(.text)
    GPIO_ReadInputDataBit                    0x08001c43   Thumb Code    18  stm32f10x_gpio.o(.text)
    GPIO_ReadInputData                       0x08001c55   Thumb Code     8  stm32f10x_gpio.o(.text)
    GPIO_ReadOutputDataBit                   0x08001c5d   Thumb Code    18  stm32f10x_gpio.o(.text)
    GPIO_ReadOutputData                      0x08001c6f   Thumb Code     8  stm32f10x_gpio.o(.text)
    GPIO_SetBits                             0x08001c77   Thumb Code     4  stm32f10x_gpio.o(.text)
    GPIO_ResetBits                           0x08001c7b   Thumb Code     4  stm32f10x_gpio.o(.text)
    GPIO_WriteBit                            0x08001c7f   Thumb Code    10  stm32f10x_gpio.o(.text)
    GPIO_Write                               0x08001c89   Thumb Code     4  stm32f10x_gpio.o(.text)
    GPIO_PinLockConfig                       0x08001c8d   Thumb Code    18  stm32f10x_gpio.o(.text)
    GPIO_EventOutputConfig                   0x08001c9f   Thumb Code    26  stm32f10x_gpio.o(.text)
    GPIO_EventOutputCmd                      0x08001cb9   Thumb Code     6  stm32f10x_gpio.o(.text)
    GPIO_PinRemapConfig                      0x08001cbf   Thumb Code   138  stm32f10x_gpio.o(.text)
    GPIO_EXTILineConfig                      0x08001d49   Thumb Code    66  stm32f10x_gpio.o(.text)
    GPIO_ETH_MediaInterfaceConfig            0x08001d8b   Thumb Code     8  stm32f10x_gpio.o(.text)
    TIM_DeInit                               0x08001db9   Thumb Code   424  stm32f10x_tim.o(.text)
    TIM_TimeBaseInit                         0x08001f61   Thumb Code   122  stm32f10x_tim.o(.text)
    TIM_OC1Init                              0x08001fdb   Thumb Code   132  stm32f10x_tim.o(.text)
    TIM_OC2Init                              0x0800205f   Thumb Code   154  stm32f10x_tim.o(.text)
    TIM_OC3Init                              0x080020f9   Thumb Code   150  stm32f10x_tim.o(.text)
    TIM_OC4Init                              0x0800218f   Thumb Code   182  stm32f10x_tim.o(.text)
    TIM_SetIC4Prescaler                      0x08002245   Thumb Code    26  stm32f10x_tim.o(.text)
    TIM_SetIC3Prescaler                      0x080022e1   Thumb Code    18  stm32f10x_tim.o(.text)
    TIM_SetIC2Prescaler                      0x0800236d   Thumb Code    26  stm32f10x_tim.o(.text)
    TIM_SetIC1Prescaler                      0x08002409   Thumb Code    18  stm32f10x_tim.o(.text)
    TIM_ICInit                               0x08002487   Thumb Code   150  stm32f10x_tim.o(.text)
    TIM_PWMIConfig                           0x0800251d   Thumb Code   124  stm32f10x_tim.o(.text)
    TIM_BDTRConfig                           0x08002599   Thumb Code    32  stm32f10x_tim.o(.text)
    TIM_TimeBaseStructInit                   0x080025b9   Thumb Code    18  stm32f10x_tim.o(.text)
    TIM_OCStructInit                         0x080025cb   Thumb Code    20  stm32f10x_tim.o(.text)
    TIM_ICStructInit                         0x080025df   Thumb Code    18  stm32f10x_tim.o(.text)
    TIM_BDTRStructInit                       0x080025f1   Thumb Code    40  stm32f10x_tim.o(.text)
    TIM_Cmd                                  0x08002619   Thumb Code    24  stm32f10x_tim.o(.text)
    TIM_CtrlPWMOutputs                       0x08002631   Thumb Code    30  stm32f10x_tim.o(.text)
    TIM_ITConfig                             0x0800264f   Thumb Code    18  stm32f10x_tim.o(.text)
    TIM_GenerateEvent                        0x08002661   Thumb Code     4  stm32f10x_tim.o(.text)
    TIM_DMAConfig                            0x08002665   Thumb Code    10  stm32f10x_tim.o(.text)
    TIM_DMACmd                               0x0800266f   Thumb Code    18  stm32f10x_tim.o(.text)
    TIM_InternalClockConfig                  0x08002681   Thumb Code    12  stm32f10x_tim.o(.text)
    TIM_SelectInputTrigger                   0x0800268d   Thumb Code    18  stm32f10x_tim.o(.text)
    TIM_ITRxExternalClockConfig              0x0800269f   Thumb Code    24  stm32f10x_tim.o(.text)
    TIM_TIxExternalClockConfig               0x080026b7   Thumb Code    62  stm32f10x_tim.o(.text)
    TIM_ETRConfig                            0x080026f5   Thumb Code    28  stm32f10x_tim.o(.text)
    TIM_ETRClockMode1Config                  0x08002711   Thumb Code    54  stm32f10x_tim.o(.text)
    TIM_ETRClockMode2Config                  0x08002747   Thumb Code    32  stm32f10x_tim.o(.text)
    TIM_PrescalerConfig                      0x08002767   Thumb Code     6  stm32f10x_tim.o(.text)
    TIM_CounterModeConfig                    0x0800276d   Thumb Code    18  stm32f10x_tim.o(.text)
    TIM_EncoderInterfaceConfig               0x0800277f   Thumb Code    66  stm32f10x_tim.o(.text)
    TIM_ForcedOC1Config                      0x080027c1   Thumb Code    18  stm32f10x_tim.o(.text)
    TIM_ForcedOC2Config                      0x080027d3   Thumb Code    26  stm32f10x_tim.o(.text)
    TIM_ForcedOC3Config                      0x080027ed   Thumb Code    18  stm32f10x_tim.o(.text)
    TIM_ForcedOC4Config                      0x080027ff   Thumb Code    26  stm32f10x_tim.o(.text)
    TIM_ARRPreloadConfig                     0x08002819   Thumb Code    24  stm32f10x_tim.o(.text)
    TIM_SelectCOM                            0x08002831   Thumb Code    24  stm32f10x_tim.o(.text)
    TIM_SelectCCDMA                          0x08002849   Thumb Code    24  stm32f10x_tim.o(.text)
    TIM_CCPreloadControl                     0x08002861   Thumb Code    24  stm32f10x_tim.o(.text)
    TIM_OC1PreloadConfig                     0x08002879   Thumb Code    18  stm32f10x_tim.o(.text)
    TIM_OC2PreloadConfig                     0x0800288b   Thumb Code    26  stm32f10x_tim.o(.text)
    TIM_OC3PreloadConfig                     0x080028a5   Thumb Code    18  stm32f10x_tim.o(.text)
    TIM_OC4PreloadConfig                     0x080028b7   Thumb Code    26  stm32f10x_tim.o(.text)
    TIM_OC1FastConfig                        0x080028d1   Thumb Code    18  stm32f10x_tim.o(.text)
    TIM_OC2FastConfig                        0x080028e3   Thumb Code    26  stm32f10x_tim.o(.text)
    TIM_OC3FastConfig                        0x080028fd   Thumb Code    18  stm32f10x_tim.o(.text)
    TIM_OC4FastConfig                        0x0800290f   Thumb Code    26  stm32f10x_tim.o(.text)
    TIM_ClearOC1Ref                          0x08002929   Thumb Code    18  stm32f10x_tim.o(.text)
    TIM_ClearOC2Ref                          0x0800293b   Thumb Code    24  stm32f10x_tim.o(.text)
    TIM_ClearOC3Ref                          0x08002953   Thumb Code    18  stm32f10x_tim.o(.text)
    TIM_ClearOC4Ref                          0x08002965   Thumb Code    24  stm32f10x_tim.o(.text)
    TIM_OC1PolarityConfig                    0x0800297d   Thumb Code    18  stm32f10x_tim.o(.text)
    TIM_OC1NPolarityConfig                   0x0800298f   Thumb Code    18  stm32f10x_tim.o(.text)
    TIM_OC2PolarityConfig                    0x080029a1   Thumb Code    26  stm32f10x_tim.o(.text)
    TIM_OC2NPolarityConfig                   0x080029bb   Thumb Code    26  stm32f10x_tim.o(.text)
    TIM_OC3PolarityConfig                    0x080029d5   Thumb Code    26  stm32f10x_tim.o(.text)
    TIM_OC3NPolarityConfig                   0x080029ef   Thumb Code    26  stm32f10x_tim.o(.text)
    TIM_OC4PolarityConfig                    0x08002a09   Thumb Code    26  stm32f10x_tim.o(.text)
    TIM_CCxCmd                               0x08002a23   Thumb Code    30  stm32f10x_tim.o(.text)
    TIM_CCxNCmd                              0x08002a41   Thumb Code    30  stm32f10x_tim.o(.text)
    TIM_SelectOCxM                           0x08002a5f   Thumb Code    82  stm32f10x_tim.o(.text)
    TIM_UpdateDisableConfig                  0x08002ab1   Thumb Code    24  stm32f10x_tim.o(.text)
    TIM_UpdateRequestConfig                  0x08002ac9   Thumb Code    24  stm32f10x_tim.o(.text)
    TIM_SelectHallSensor                     0x08002ae1   Thumb Code    24  stm32f10x_tim.o(.text)
    TIM_SelectOnePulseMode                   0x08002af9   Thumb Code    18  stm32f10x_tim.o(.text)
    TIM_SelectOutputTrigger                  0x08002b0b   Thumb Code    18  stm32f10x_tim.o(.text)
    TIM_SelectSlaveMode                      0x08002b1d   Thumb Code    18  stm32f10x_tim.o(.text)
    TIM_SelectMasterSlaveMode                0x08002b2f   Thumb Code    18  stm32f10x_tim.o(.text)
    TIM_SetCounter                           0x08002b41   Thumb Code     4  stm32f10x_tim.o(.text)
    TIM_SetAutoreload                        0x08002b45   Thumb Code     4  stm32f10x_tim.o(.text)
    TIM_SetCompare1                          0x08002b49   Thumb Code     4  stm32f10x_tim.o(.text)
    TIM_SetCompare2                          0x08002b4d   Thumb Code     4  stm32f10x_tim.o(.text)
    TIM_SetCompare3                          0x08002b51   Thumb Code     4  stm32f10x_tim.o(.text)
    TIM_SetCompare4                          0x08002b55   Thumb Code     6  stm32f10x_tim.o(.text)
    TIM_SetClockDivision                     0x08002b5b   Thumb Code    18  stm32f10x_tim.o(.text)
    TIM_GetCapture1                          0x08002b6d   Thumb Code     6  stm32f10x_tim.o(.text)
    TIM_GetCapture2                          0x08002b73   Thumb Code     6  stm32f10x_tim.o(.text)
    TIM_GetCapture3                          0x08002b79   Thumb Code     6  stm32f10x_tim.o(.text)
    TIM_GetCapture4                          0x08002b7f   Thumb Code     8  stm32f10x_tim.o(.text)
    TIM_GetCounter                           0x08002b87   Thumb Code     6  stm32f10x_tim.o(.text)
    TIM_GetPrescaler                         0x08002b8d   Thumb Code     6  stm32f10x_tim.o(.text)
    TIM_GetFlagStatus                        0x08002b93   Thumb Code    18  stm32f10x_tim.o(.text)
    TIM_ClearFlag                            0x08002ba5   Thumb Code     6  stm32f10x_tim.o(.text)
    TIM_GetITStatus                          0x08002bab   Thumb Code    34  stm32f10x_tim.o(.text)
    TIM_ClearITPendingBit                    0x08002bcd   Thumb Code     6  stm32f10x_tim.o(.text)
    IWDG_WriteAccessCmd                      0x08002bd5   Thumb Code     6  stm32f10x_iwdg.o(.text)
    IWDG_SetPrescaler                        0x08002bdb   Thumb Code     6  stm32f10x_iwdg.o(.text)
    IWDG_SetReload                           0x08002be1   Thumb Code     6  stm32f10x_iwdg.o(.text)
    IWDG_ReloadCounter                       0x08002be7   Thumb Code    10  stm32f10x_iwdg.o(.text)
    IWDG_Enable                              0x08002bf1   Thumb Code    10  stm32f10x_iwdg.o(.text)
    IWDG_GetFlagStatus                       0x08002bfb   Thumb Code    20  stm32f10x_iwdg.o(.text)
    SPI_I2S_DeInit                           0x08002c15   Thumb Code    76  stm32f10x_spi.o(.text)
    SPI_Init                                 0x08002c61   Thumb Code    60  stm32f10x_spi.o(.text)
    I2S_Init                                 0x08002c9d   Thumb Code   226  stm32f10x_spi.o(.text)
    SPI_StructInit                           0x08002d7f   Thumb Code    24  stm32f10x_spi.o(.text)
    I2S_StructInit                           0x08002d97   Thumb Code    20  stm32f10x_spi.o(.text)
    SPI_Cmd                                  0x08002dab   Thumb Code    24  stm32f10x_spi.o(.text)
    I2S_Cmd                                  0x08002dc3   Thumb Code    24  stm32f10x_spi.o(.text)
    SPI_I2S_ITConfig                         0x08002ddb   Thumb Code    32  stm32f10x_spi.o(.text)
    SPI_I2S_DMACmd                           0x08002dfb   Thumb Code    18  stm32f10x_spi.o(.text)
    SPI_I2S_SendData                         0x08002e0d   Thumb Code     4  stm32f10x_spi.o(.text)
    SPI_I2S_ReceiveData                      0x08002e11   Thumb Code     6  stm32f10x_spi.o(.text)
    SPI_NSSInternalSoftwareConfig            0x08002e17   Thumb Code    30  stm32f10x_spi.o(.text)
    SPI_SSOutputCmd                          0x08002e35   Thumb Code    24  stm32f10x_spi.o(.text)
    SPI_DataSizeConfig                       0x08002e4d   Thumb Code    18  stm32f10x_spi.o(.text)
    SPI_TransmitCRC                          0x08002e5f   Thumb Code    10  stm32f10x_spi.o(.text)
    SPI_CalculateCRC                         0x08002e69   Thumb Code    24  stm32f10x_spi.o(.text)
    SPI_GetCRC                               0x08002e81   Thumb Code    16  stm32f10x_spi.o(.text)
    SPI_GetCRCPolynomial                     0x08002e91   Thumb Code     6  stm32f10x_spi.o(.text)
    SPI_BiDirectionalLineConfig              0x08002e97   Thumb Code    28  stm32f10x_spi.o(.text)
    SPI_I2S_GetFlagStatus                    0x08002eb3   Thumb Code    18  stm32f10x_spi.o(.text)
    SPI_I2S_ClearFlag                        0x08002ec5   Thumb Code     6  stm32f10x_spi.o(.text)
    SPI_I2S_GetITStatus                      0x08002ecb   Thumb Code    52  stm32f10x_spi.o(.text)
    SPI_I2S_ClearITPendingBit                0x08002eff   Thumb Code    20  stm32f10x_spi.o(.text)
    Reset_Handler                            0x08002f21   Thumb Code     8  startup_stm32f10x_hd.o(.text)
    SysTick_Handler                          0x08002f39   Thumb Code     2  startup_stm32f10x_hd.o(.text)
    ADC1_2_IRQHandler                        0x08002f3b   Thumb Code     0  startup_stm32f10x_hd.o(.text)
    ADC3_IRQHandler                          0x08002f3b   Thumb Code     0  startup_stm32f10x_hd.o(.text)
    CAN1_RX1_IRQHandler                      0x08002f3b   Thumb Code     0  startup_stm32f10x_hd.o(.text)
    CAN1_SCE_IRQHandler                      0x08002f3b   Thumb Code     0  startup_stm32f10x_hd.o(.text)
    DMA1_Channel1_IRQHandler                 0x08002f3b   Thumb Code     0  startup_stm32f10x_hd.o(.text)
    DMA1_Channel2_IRQHandler                 0x08002f3b   Thumb Code     0  startup_stm32f10x_hd.o(.text)
    DMA1_Channel3_IRQHandler                 0x08002f3b   Thumb Code     0  startup_stm32f10x_hd.o(.text)
    DMA1_Channel4_IRQHandler                 0x08002f3b   Thumb Code     0  startup_stm32f10x_hd.o(.text)
    DMA1_Channel5_IRQHandler                 0x08002f3b   Thumb Code     0  startup_stm32f10x_hd.o(.text)
    DMA1_Channel6_IRQHandler                 0x08002f3b   Thumb Code     0  startup_stm32f10x_hd.o(.text)
    DMA1_Channel7_IRQHandler                 0x08002f3b   Thumb Code     0  startup_stm32f10x_hd.o(.text)
    DMA2_Channel1_IRQHandler                 0x08002f3b   Thumb Code     0  startup_stm32f10x_hd.o(.text)
    DMA2_Channel2_IRQHandler                 0x08002f3b   Thumb Code     0  startup_stm32f10x_hd.o(.text)
    DMA2_Channel3_IRQHandler                 0x08002f3b   Thumb Code     0  startup_stm32f10x_hd.o(.text)
    DMA2_Channel4_5_IRQHandler               0x08002f3b   Thumb Code     0  startup_stm32f10x_hd.o(.text)
    EXTI0_IRQHandler                         0x08002f3b   Thumb Code     0  startup_stm32f10x_hd.o(.text)
    EXTI15_10_IRQHandler                     0x08002f3b   Thumb Code     0  startup_stm32f10x_hd.o(.text)
    EXTI1_IRQHandler                         0x08002f3b   Thumb Code     0  startup_stm32f10x_hd.o(.text)
    EXTI2_IRQHandler                         0x08002f3b   Thumb Code     0  startup_stm32f10x_hd.o(.text)
    EXTI3_IRQHandler                         0x08002f3b   Thumb Code     0  startup_stm32f10x_hd.o(.text)
    EXTI4_IRQHandler                         0x08002f3b   Thumb Code     0  startup_stm32f10x_hd.o(.text)
    EXTI9_5_IRQHandler                       0x08002f3b   Thumb Code     0  startup_stm32f10x_hd.o(.text)
    FLASH_IRQHandler                         0x08002f3b   Thumb Code     0  startup_stm32f10x_hd.o(.text)
    FSMC_IRQHandler                          0x08002f3b   Thumb Code     0  startup_stm32f10x_hd.o(.text)
    I2C1_ER_IRQHandler                       0x08002f3b   Thumb Code     0  startup_stm32f10x_hd.o(.text)
    I2C1_EV_IRQHandler                       0x08002f3b   Thumb Code     0  startup_stm32f10x_hd.o(.text)
    I2C2_ER_IRQHandler                       0x08002f3b   Thumb Code     0  startup_stm32f10x_hd.o(.text)
    I2C2_EV_IRQHandler                       0x08002f3b   Thumb Code     0  startup_stm32f10x_hd.o(.text)
    PVD_IRQHandler                           0x08002f3b   Thumb Code     0  startup_stm32f10x_hd.o(.text)
    RCC_IRQHandler                           0x08002f3b   Thumb Code     0  startup_stm32f10x_hd.o(.text)
    RTCAlarm_IRQHandler                      0x08002f3b   Thumb Code     0  startup_stm32f10x_hd.o(.text)
    RTC_IRQHandler                           0x08002f3b   Thumb Code     0  startup_stm32f10x_hd.o(.text)
    SDIO_IRQHandler                          0x08002f3b   Thumb Code     0  startup_stm32f10x_hd.o(.text)
    SPI1_IRQHandler                          0x08002f3b   Thumb Code     0  startup_stm32f10x_hd.o(.text)
    SPI2_IRQHandler                          0x08002f3b   Thumb Code     0  startup_stm32f10x_hd.o(.text)
    SPI3_IRQHandler                          0x08002f3b   Thumb Code     0  startup_stm32f10x_hd.o(.text)
    TAMPER_IRQHandler                        0x08002f3b   Thumb Code     0  startup_stm32f10x_hd.o(.text)
    TIM1_BRK_IRQHandler                      0x08002f3b   Thumb Code     0  startup_stm32f10x_hd.o(.text)
    TIM1_CC_IRQHandler                       0x08002f3b   Thumb Code     0  startup_stm32f10x_hd.o(.text)
    TIM1_TRG_COM_IRQHandler                  0x08002f3b   Thumb Code     0  startup_stm32f10x_hd.o(.text)
    TIM1_UP_IRQHandler                       0x08002f3b   Thumb Code     0  startup_stm32f10x_hd.o(.text)
    TIM3_IRQHandler                          0x08002f3b   Thumb Code     0  startup_stm32f10x_hd.o(.text)
    TIM4_IRQHandler                          0x08002f3b   Thumb Code     0  startup_stm32f10x_hd.o(.text)
    TIM5_IRQHandler                          0x08002f3b   Thumb Code     0  startup_stm32f10x_hd.o(.text)
    TIM6_IRQHandler                          0x08002f3b   Thumb Code     0  startup_stm32f10x_hd.o(.text)
    TIM7_IRQHandler                          0x08002f3b   Thumb Code     0  startup_stm32f10x_hd.o(.text)
    TIM8_BRK_IRQHandler                      0x08002f3b   Thumb Code     0  startup_stm32f10x_hd.o(.text)
    TIM8_CC_IRQHandler                       0x08002f3b   Thumb Code     0  startup_stm32f10x_hd.o(.text)
    TIM8_TRG_COM_IRQHandler                  0x08002f3b   Thumb Code     0  startup_stm32f10x_hd.o(.text)
    TIM8_UP_IRQHandler                       0x08002f3b   Thumb Code     0  startup_stm32f10x_hd.o(.text)
    UART4_IRQHandler                         0x08002f3b   Thumb Code     0  startup_stm32f10x_hd.o(.text)
    UART5_IRQHandler                         0x08002f3b   Thumb Code     0  startup_stm32f10x_hd.o(.text)
    USART2_IRQHandler                        0x08002f3b   Thumb Code     0  startup_stm32f10x_hd.o(.text)
    USART3_IRQHandler                        0x08002f3b   Thumb Code     0  startup_stm32f10x_hd.o(.text)
    USBWakeUp_IRQHandler                     0x08002f3b   Thumb Code     0  startup_stm32f10x_hd.o(.text)
    USB_HP_CAN1_TX_IRQHandler                0x08002f3b   Thumb Code     0  startup_stm32f10x_hd.o(.text)
    USB_LP_CAN1_RX0_IRQHandler               0x08002f3b   Thumb Code     0  startup_stm32f10x_hd.o(.text)
    WWDG_IRQHandler                          0x08002f3b   Thumb Code     0  startup_stm32f10x_hd.o(.text)
    rbCreate                                 0x08002f45   Thumb Code    20  looplist.o(.text)
    rbDelete                                 0x08002f59   Thumb Code    18  looplist.o(.text)
    rbCapacity                               0x08002f6b   Thumb Code    14  looplist.o(.text)
    rbCanRead                                0x08002f79   Thumb Code    56  looplist.o(.text)
    rbCanWrite                               0x08002fb1   Thumb Code    30  looplist.o(.text)
    rbRead                                   0x08002fcf   Thumb Code   164  looplist.o(.text)
    rbWrite                                  0x08003073   Thumb Code   160  looplist.o(.text)
    PutData                                  0x08003113   Thumb Code    46  looplist.o(.text)
    mDelayuS                                 0x08003141   Thumb Code    12  ch395spi.o(.text)
    mDelaymS                                 0x0800314d   Thumb Code    12  ch395spi.o(.text)
    CH395_PORT_INIT                          0x08003159   Thumb Code   282  ch395spi.o(.text)
    Spi395Exchange                           0x08003273   Thumb Code    50  ch395spi.o(.text)
    xWriteCH395Cmd                           0x080032a5   Thumb Code    34  ch395spi.o(.text)
    xWriteCH395Data                          0x080032c7   Thumb Code    12  ch395spi.o(.text)
    xReadCH395Data                           0x080032d3   Thumb Code    10  ch395spi.o(.text)
    Query395Interrupt                        0x080032dd   Thumb Code    16  ch395spi.o(.text)
    CH395_RST                                0x080032ed   Thumb Code    36  ch395spi.o(.text)
    CH395CMDReset                            0x0800331d   Thumb Code    10  ch395cmd.o(.text)
    CH395CMDSleep                            0x08003327   Thumb Code    10  ch395cmd.o(.text)
    CH395CMDGetVer                           0x08003331   Thumb Code    18  ch395cmd.o(.text)
    CH395CMDCheckExist                       0x08003343   Thumb Code    26  ch395cmd.o(.text)
    CH395CMDSetPHY                           0x0800335d   Thumb Code    18  ch395cmd.o(.text)
    CH395CMDGetPHYStatus                     0x0800336f   Thumb Code    18  ch395cmd.o(.text)
    CH395CMDGetGlobIntStatus                 0x08003381   Thumb Code    18  ch395cmd.o(.text)
    CH395GetCmdStatus                        0x08003393   Thumb Code    18  ch395cmd.o(.text)
    CH395CMDInitCH395                        0x080033a5   Thumb Code    54  ch395cmd.o(.text)
    CH395CMDSetUartBaudRate                  0x080033db   Thumb Code    34  ch395cmd.o(.text)
    CH395CMDSetIPAddr                        0x080033fd   Thumb Code    32  ch395cmd.o(.text)
    CH395CMDSetGWIPAddr                      0x0800341d   Thumb Code    32  ch395cmd.o(.text)
    CH395CMDSetMASKAddr                      0x0800343d   Thumb Code    32  ch395cmd.o(.text)
    CH395CMDSetMACAddr                       0x0800345d   Thumb Code    38  ch395cmd.o(.text)
    CH395CMDGetMACAddr                       0x08003483   Thumb Code    32  ch395cmd.o(.text)
    CH395CMDSetMACFilt                       0x080034a3   Thumb Code    78  ch395cmd.o(.text)
    CH395CMDGetUnreachIPPT                   0x080034f1   Thumb Code    32  ch395cmd.o(.text)
    CH395CMDGetRemoteIPP                     0x08003511   Thumb Code    40  ch395cmd.o(.text)
    CH395SetSocketDesIP                      0x08003539   Thumb Code    52  ch395cmd.o(.text)
    CH395SetSocketProtType                   0x0800356d   Thumb Code    26  ch395cmd.o(.text)
    CH395SetSocketDesPort                    0x08003587   Thumb Code    32  ch395cmd.o(.text)
    CH395SetSocketSourPort                   0x080035a7   Thumb Code    32  ch395cmd.o(.text)
    CH395SetSocketIPRAWProto                 0x080035c7   Thumb Code    26  ch395cmd.o(.text)
    CH395EnablePing                          0x080035e1   Thumb Code    18  ch395cmd.o(.text)
    CH395SendData                            0x080035f3   Thumb Code    58  ch395cmd.o(.text)
    CH395GetRecvLength                       0x0800362d   Thumb Code    36  ch395cmd.o(.text)
    CH395ClearRecvBuf                        0x08003651   Thumb Code    18  ch395cmd.o(.text)
    CH395GetRecvData                         0x08003663   Thumb Code    70  ch395cmd.o(.text)
    CH395CMDSetRetryCount                    0x080036a9   Thumb Code    18  ch395cmd.o(.text)
    CH395CMDSetRetryPeriod                   0x080036bb   Thumb Code    24  ch395cmd.o(.text)
    CH395CMDGetSocketStatus                  0x080036d3   Thumb Code    36  ch395cmd.o(.text)
    CH395OpenSocket                          0x080036f7   Thumb Code    62  ch395cmd.o(.text)
    CH395CloseSocket                         0x08003735   Thumb Code    62  ch395cmd.o(.text)
    CH395TCPConnect                          0x08003773   Thumb Code    62  ch395cmd.o(.text)
    CH395TCPListen                           0x080037b1   Thumb Code    62  ch395cmd.o(.text)
    CH395TCPDisconnect                       0x080037ef   Thumb Code    62  ch395cmd.o(.text)
    CH395GetSocketInt                        0x0800382d   Thumb Code    32  ch395cmd.o(.text)
    CH395CRCRet6Bit                          0x0800384d   Thumb Code    62  ch395cmd.o(.text)
    CH395DHCPEnable                          0x0800388b   Thumb Code    60  ch395cmd.o(.text)
    CH395GetDHCPStatus                       0x080038c7   Thumb Code    18  ch395cmd.o(.text)
    CH395GetIPInf                            0x080038d9   Thumb Code    32  ch395cmd.o(.text)
    CH395WriteGPIOAddr                       0x080038f9   Thumb Code    26  ch395cmd.o(.text)
    CH395ReadGPIOAddr                        0x08003913   Thumb Code    32  ch395cmd.o(.text)
    CH395EEPROMErase                         0x08003933   Thumb Code    38  ch395cmd.o(.text)
    CH395EEPROMWrite                         0x08003959   Thumb Code    86  ch395cmd.o(.text)
    CH395EEPROMRead                          0x080039af   Thumb Code    60  ch395cmd.o(.text)
    CH395SetTCPMss                           0x080039eb   Thumb Code    24  ch395cmd.o(.text)
    CH395SetSocketRecvBuf                    0x08003a03   Thumb Code    34  ch395cmd.o(.text)
    CH395SetSocketSendBuf                    0x08003a25   Thumb Code    34  ch395cmd.o(.text)
    CH395UDPSendTo                           0x08003a47   Thumb Code    46  ch395cmd.o(.text)
    CH395SetStartPara                        0x08003a75   Thumb Code    40  ch395cmd.o(.text)
    CH395CMDGetGlobIntStatus_ALL             0x08003a9d   Thumb Code    34  ch395cmd.o(.text)
    __aeabi_memcpy                           0x08003ac5   Thumb Code    36  memcpya.o(.text)
    __aeabi_memcpy4                          0x08003ac5   Thumb Code     0  memcpya.o(.text)
    __aeabi_memcpy8                          0x08003ac5   Thumb Code     0  memcpya.o(.text)
    __aeabi_memset                           0x08003ae9   Thumb Code    14  memseta.o(.text)
    __aeabi_memset4                          0x08003ae9   Thumb Code     0  memseta.o(.text)
    __aeabi_memset8                          0x08003ae9   Thumb Code     0  memseta.o(.text)
    __aeabi_memclr                           0x08003af7   Thumb Code     4  memseta.o(.text)
    __aeabi_memclr4                          0x08003af7   Thumb Code     0  memseta.o(.text)
    __aeabi_memclr8                          0x08003af7   Thumb Code     0  memseta.o(.text)
    _memset$wrapper                          0x08003afb   Thumb Code    18  memseta.o(.text)
    strcat                                   0x08003b0d   Thumb Code    24  strcat.o(.text)
    strstr                                   0x08003b25   Thumb Code    36  strstr.o(.text)
    strlen                                   0x08003b49   Thumb Code    14  strlen.o(.text)
    strcmp                                   0x08003b57   Thumb Code    28  strcmp.o(.text)
    strcpy                                   0x08003b73   Thumb Code    18  strcpy.o(.text)
    strtok                                   0x08003b85   Thumb Code    62  strtok.o(.text)
    __aeabi_uldivmod                         0x08003bc9   Thumb Code    98  uldiv.o(.text)
    __scatterload                            0x08003c2d   Thumb Code    28  init.o(.text)
    __scatterload_rt2                        0x08003c2d   Thumb Code     0  init.o(.text)
    __aeabi_llsl                             0x08003c51   Thumb Code    30  llshl.o(.text)
    _ll_shift_l                              0x08003c51   Thumb Code     0  llshl.o(.text)
    __aeabi_llsr                             0x08003c6f   Thumb Code    32  llushr.o(.text)
    _ll_ushift_r                             0x08003c6f   Thumb Code     0  llushr.o(.text)
    __decompress                             0x08003c8f   Thumb Code     0  __dclz77c.o(.text)
    __decompress2                            0x08003c8f   Thumb Code    94  __dclz77c.o(.text)
    __0printf$8                              0x08003ced   Thumb Code    22  printf8.o(i.__0printf$8)
    __1printf$8                              0x08003ced   Thumb Code     0  printf8.o(i.__0printf$8)
    __2printf                                0x08003ced   Thumb Code     0  printf8.o(i.__0printf$8)
    __0sprintf$8                             0x08003d0d   Thumb Code    34  printf8.o(i.__0sprintf$8)
    __1sprintf$8                             0x08003d0d   Thumb Code     0  printf8.o(i.__0sprintf$8)
    __2sprintf                               0x08003d0d   Thumb Code     0  printf8.o(i.__0sprintf$8)
    __scatterload_copy                       0x08003d35   Thumb Code    14  handlers.o(i.__scatterload_copy)
    __scatterload_null                       0x08003d43   Thumb Code     2  handlers.o(i.__scatterload_null)
    __scatterload_zeroinit                   0x08003d45   Thumb Code    14  handlers.o(i.__scatterload_zeroinit)
    Region$$Table$$Base                      0x080044cc   Number         0  anon$$obj.o(Region$$Table)
    Region$$Table$$Limit                     0x080044ec   Number         0  anon$$obj.o(Region$$Table)
    HtmlBuffer                               0x20000000   Data        2716  main.o(.data)
    ch395_version                            0x20000a9c   Data           1  main.o(.data)
    ch395_status                             0x20000aa0   Data           4  main.o(.data)
    SocketServerPort                         0x20000aa4   Data           2  main.o(.data)
    SocketServerStatus                       0x20000aa6   Data           1  main.o(.data)
    rb_t_usart1_send_byte                    0x20000aac   Data           1  usart.o(.data)
    usart1_read_count                        0x20000ab0   Data           4  usart.o(.data)
    usart1_idle_flag                         0x20000ab4   Data           1  usart.o(.data)
    Timer2Cnt                                0x20000ab8   Data           4  timer.o(.data)
    idAddr                                   0x20000abc   Data          40  mcu_api.o(.data)
    SystemCoreClock                          0x20000ae4   Data           4  system_stm32f10x.o(.data)
    AHBPrescTable                            0x20000ae8   Data          16  system_stm32f10x.o(.data)
    __stdout                                 0x20000b10   Data           4  stdout.o(.data)
    http_request                             0x20000b14   Data         130  main.o(.bss)
    recv_buff                                0x20000b96   Data         500  main.o(.bss)
    buf                                      0x20000d8a   Data          20  main.o(.bss)
    http_response_data                       0x20000d9e   Data        1024  main.o(.bss)
    rb_t_usart1_read                         0x200011a0   Data          16  usart.o(.bss)
    rb_t_usart1_read_buff                    0x200011b0   Data        1024  usart.o(.bss)
    usart1_read_buff_copy                    0x200015b0   Data        1024  usart.o(.bss)
    rb_t_usart1_send                         0x200019b0   Data          16  usart.o(.bss)
    rb_t_usart1_send_buff                    0x200019c0   Data        1500  usart.o(.bss)
    tempURI                                  0x20001f9c   Data         128  http_help.o(.bss)
    __initial_sp                             0x20002420   Data           0  startup_stm32f10x_hd.o(STACK)



==============================================================================

Memory Map of the image

  Image Entry point : 0x08000131

  Load Region LR_IROM1 (Base: 0x08000000, Size: 0x00005000, Max: 0x00020000, ABSOLUTE, COMPRESSED[0x00004970])

    Execution Region ER_IROM1 (Base: 0x08000000, Size: 0x000044ec, Max: 0x00020000, ABSOLUTE)

    Base Addr    Size         Type   Attr      Idx    E Section Name        Object

    0x08000000   0x00000130   Data   RO          419    RESET               startup_stm32f10x_hd.o
    0x08000130   0x00000000   Code   RO          484  * .ARM.Collect$$$$00000000  mc_w.l(entry.o)
    0x08000130   0x00000004   Code   RO          770    .ARM.Collect$$$$00000001  mc_w.l(entry2.o)
    0x08000134   0x00000004   Code   RO          773    .ARM.Collect$$$$00000004  mc_w.l(entry5.o)
    0x08000138   0x00000000   Code   RO          775    .ARM.Collect$$$$00000008  mc_w.l(entry7b.o)
    0x08000138   0x00000000   Code   RO          777    .ARM.Collect$$$$0000000A  mc_w.l(entry8b.o)
    0x08000138   0x00000008   Code   RO          778    .ARM.Collect$$$$0000000B  mc_w.l(entry9a.o)
    0x08000140   0x00000000   Code   RO          780    .ARM.Collect$$$$0000000D  mc_w.l(entry10a.o)
    0x08000140   0x00000000   Code   RO          782    .ARM.Collect$$$$0000000F  mc_w.l(entry11a.o)
    0x08000140   0x00000004   Code   RO          771    .ARM.Collect$$$$00002712  mc_w.l(entry2.o)
    0x08000144   0x00000040   Code   RO            1    .text               stm32f10x_it.o
    0x08000184   0x0000059c   Code   RO          104    .text               main.o
    0x08000720   0x000000d4   Code   RO          170    .text               delay.o
    0x080007f4   0x00000254   Code   RO          187    .text               usart.o
    0x08000a48   0x0000002c   Code   RO          210    .text               iwdg.o
    0x08000a74   0x00000094   Code   RO          225    .text               timer.o
    0x08000b08   0x00000088   Code   RO          243    .text               mcu_api.o
    0x08000b90   0x00000464   Code   RO          265    .text               http_help.o
    0x08000ff4   0x000001e0   Code   RO          301    .text               system_stm32f10x.o
    0x080011d4   0x000000dc   Code   RO          319    .text               misc.o
    0x080012b0   0x000003a4   Code   RO          331    .text               stm32f10x_rcc.o
    0x08001654   0x00000408   Code   RO          345    .text               stm32f10x_usart.o
    0x08001a5c   0x0000035c   Code   RO          369    .text               stm32f10x_gpio.o
    0x08001db8   0x00000e1a   Code   RO          381    .text               stm32f10x_tim.o
    0x08002bd2   0x00000002   PAD
    0x08002bd4   0x00000040   Code   RO          393    .text               stm32f10x_iwdg.o
    0x08002c14   0x0000030c   Code   RO          405    .text               stm32f10x_spi.o
    0x08002f20   0x00000024   Code   RO          420    .text               startup_stm32f10x_hd.o
    0x08002f44   0x000001fc   Code   RO          439    .text               looplist.o
    0x08003140   0x000001dc   Code   RO          454    .text               ch395spi.o
    0x0800331c   0x000007a8   Code   RO          469    .text               ch395cmd.o
    0x08003ac4   0x00000024   Code   RO          487    .text               mc_w.l(memcpya.o)
    0x08003ae8   0x00000024   Code   RO          489    .text               mc_w.l(memseta.o)
    0x08003b0c   0x00000018   Code   RO          491    .text               mc_w.l(strcat.o)
    0x08003b24   0x00000024   Code   RO          493    .text               mc_w.l(strstr.o)
    0x08003b48   0x0000000e   Code   RO          495    .text               mc_w.l(strlen.o)
    0x08003b56   0x0000001c   Code   RO          497    .text               mc_w.l(strcmp.o)
    0x08003b72   0x00000012   Code   RO          499    .text               mc_w.l(strcpy.o)
    0x08003b84   0x00000044   Code   RO          501    .text               mc_w.l(strtok.o)
    0x08003bc8   0x00000062   Code   RO          787    .text               mc_w.l(uldiv.o)
    0x08003c2a   0x00000002   PAD
    0x08003c2c   0x00000024   Code   RO          800    .text               mc_w.l(init.o)
    0x08003c50   0x0000001e   Code   RO          802    .text               mc_w.l(llshl.o)
    0x08003c6e   0x00000020   Code   RO          804    .text               mc_w.l(llushr.o)
    0x08003c8e   0x0000005e   Code   RO          818    .text               mc_w.l(__dclz77c.o)
    0x08003cec   0x00000020   Code   RO          716    i.__0printf$8       mc_w.l(printf8.o)
    0x08003d0c   0x00000028   Code   RO          718    i.__0sprintf$8      mc_w.l(printf8.o)
    0x08003d34   0x0000000e   Code   RO          812    i.__scatterload_copy  mc_w.l(handlers.o)
    0x08003d42   0x00000002   Code   RO          813    i.__scatterload_null  mc_w.l(handlers.o)
    0x08003d44   0x0000000e   Code   RO          814    i.__scatterload_zeroinit  mc_w.l(handlers.o)
    0x08003d52   0x00000002   PAD
    0x08003d54   0x00000410   Code   RO          723    i._printf_core      mc_w.l(printf8.o)
    0x08004164   0x00000024   Code   RO          724    i._printf_post_padding  mc_w.l(printf8.o)
    0x08004188   0x0000002e   Code   RO          725    i._printf_pre_padding  mc_w.l(printf8.o)
    0x080041b6   0x0000000a   Code   RO          727    i._sputc            mc_w.l(printf8.o)
    0x080041c0   0x00000275   Data   RO          106    .conststring        main.o
    0x08004435   0x00000003   PAD
    0x08004438   0x00000093   Data   RO          267    .conststring        http_help.o
    0x080044cb   0x00000001   PAD
    0x080044cc   0x00000020   Data   RO          810    Region$$Table       anon$$obj.o


    Execution Region RW_IRAM1 (Base: 0x20000000, Size: 0x00002420, Max: 0x00005000, ABSOLUTE, COMPRESSED[0x00000484])

    Base Addr    Size         Type   Attr      Idx    E Section Name        Object

    0x20000000   0x00000aa7   Data   RW          107    .data               main.o
    0x20000aa7   0x00000001   PAD
    0x20000aa8   0x00000004   Data   RW          171    .data               delay.o
    0x20000aac   0x0000000a   Data   RW          189    .data               usart.o
    0x20000ab6   0x00000002   PAD
    0x20000ab8   0x00000004   Data   RW          226    .data               timer.o
    0x20000abc   0x00000028   Data   RW          244    .data               mcu_api.o
    0x20000ae4   0x00000014   Data   RW          302    .data               system_stm32f10x.o
    0x20000af8   0x00000014   Data   RW          332    .data               stm32f10x_rcc.o
    0x20000b0c   0x00000004   Data   RW          502    .data               mc_w.l(strtok.o)
    0x20000b10   0x00000004   Data   RW          784    .data               mc_w.l(stdout.o)
    0x20000b14   0x0000068a   Zero   RW          105    .bss                main.o
    0x2000119e   0x00000002   PAD
    0x200011a0   0x00000dfc   Zero   RW          188    .bss                usart.o
    0x20001f9c   0x00000080   Zero   RW          266    .bss                http_help.o
    0x2000201c   0x00000004   PAD
    0x20002020   0x00000400   Zero   RW          417    STACK               startup_stm32f10x_hd.o


==============================================================================

Image component sizes


      Code (inc. data)   RO Data    RW Data    ZI Data      Debug   Object Name

      1960          6          0          0          0      12944   ch395cmd.o
       476         12          0          0          0       6429   ch395spi.o
         0          0          0          0          0         32   core_cm3.o
       212         18          0          4          0       1147   delay.o
      1124        530        147          0        128       4605   http_help.o
        44          0          0          0          0        710   iwdg.o
       508          0          0          0          0       3495   looplist.o
      1436        574        629       2727       1674      10588   main.o
       136         42          0         40          0       1690   mcu_api.o
       220         22          0          0          0       1929   misc.o
        36          8        304          0       1024        852   startup_stm32f10x_hd.o
       860         38          0          0          0       5777   stm32f10x_gpio.o
        64          8          0          0          0     275241   stm32f10x_it.o
        64          6          0          0          0       1337   stm32f10x_iwdg.o
       932         36          0         20          0       9024   stm32f10x_rcc.o
       780         14          0          0          0       6658   stm32f10x_spi.o
      3610         88          0          0          0      22264   stm32f10x_tim.o
      1032         22          0          0          0       8500   stm32f10x_usart.o
       480         38          0         20          0       2031   system_stm32f10x.o
       148          6          0          4          0       1072   timer.o
       596         42          0         10       3580       4902   usart.o

    ----------------------------------------------------------------------
     14720       1510       1116       2828       6412     381227   Object Totals
         0          0         32          0          0          0   (incl. Generated)
         2          0          4          3          6          0   (incl. Padding)

    ----------------------------------------------------------------------

      Code (inc. data)   RO Data    RW Data    ZI Data      Debug   Library Member Name

        94          0          0          0          0          0   __dclz77c.o
         0          0          0          0          0          0   entry.o
         0          0          0          0          0          0   entry10a.o
         0          0          0          0          0          0   entry11a.o
         8          4          0          0          0          0   entry2.o
         4          0          0          0          0          0   entry5.o
         0          0          0          0          0          0   entry7b.o
         0          0          0          0          0          0   entry8b.o
         8          4          0          0          0          0   entry9a.o
        30          0          0          0          0          0   handlers.o
        36          8          0          0          0         68   init.o
        30          0          0          0          0         68   llshl.o
        32          0          0          0          0         68   llushr.o
        36          0          0          0          0         68   memcpya.o
        36          0          0          0          0        108   memseta.o
      1204         60          0          0          0        504   printf8.o
         0          0          0          4          0          0   stdout.o
        24          0          0          0          0         68   strcat.o
        28          0          0          0          0         76   strcmp.o
        18          0          0          0          0         68   strcpy.o
        14          0          0          0          0         68   strlen.o
        36          0          0          0          0         80   strstr.o
        68          6          0          4          0         80   strtok.o
        98          0          0          0          0         92   uldiv.o

    ----------------------------------------------------------------------
      1808         82          0          8          0       1416   Library Totals
         4          0          0          0          0          0   (incl. Padding)

    ----------------------------------------------------------------------

      Code (inc. data)   RO Data    RW Data    ZI Data      Debug   Library Name

      1804         82          0          8          0       1416   mc_w.l

    ----------------------------------------------------------------------
      1808         82          0          8          0       1416   Library Totals

    ----------------------------------------------------------------------

==============================================================================


      Code (inc. data)   RO Data    RW Data    ZI Data      Debug   

     16528       1592       1116       2836       6412     380379   Grand Totals
     16528       1592       1116       1156       6412     380379   ELF Image Totals (compressed)
     16528       1592       1116       1156          0          0   ROM Totals

==============================================================================

    Total RO  Size (Code + RO Data)                17644 (  17.23kB)
    Total RW  Size (RW Data + ZI Data)              9248 (   9.03kB)
    Total ROM Size (Code + RO Data + RW Data)      18800 (  18.36kB)

==============================================================================

