:020000040800F2
:1000000090160020812900084501000847010008DA
:100010006B0100086F010008730100080000000078
:100020000000000000000000000000007701000850
:1000300079010008000000007B01000899290008F0
:100040009B2900089B2900089B2900089B29000880
:100050009B2900089B2900089B2900089B29000870
:100060009B2900089B2900089B2900089B29000860
:100070009B2900089B2900089B2900089B29000850
:100080009B2900089B2900089B2900089B29000840
:100090009B2900089B2900089B2900089B29000830
:1000A0009B2900089B2900089B2900089B29000820
:1000B000A50900089B2900089B2900089B29000826
:1000C0009B2900089B2900089B2900089B29000800
:1000D0009B290008EF0700089B2900089B290008BE
:1000E0009B2900089B2900089B2900089B290008E0
:1000F0009B2900089B2900089B2900089B290008D0
:100100009B2900089B2900089B2900089B290008BF
:100110009B2900089B2900089B2900089B290008AF
:100120009B2900089B2900089B2900089B2900089F
:10013000DFF80CD003F03AFA004800477F020008CD
:100140009016002070470FE071B600BF0B480068A2
:1001500000F4E0600A490843001D08490860BFF345
:10016000408F00BF00BFFEE7EEE700BFFEE700BF25
:10017000FEE700BFFEE77047704770470CED00E0F8
:100180000000FA05B5480088401CB44908800846BC
:100190000088B0F5803F02DB4FF47A700880AF48EA
:1001A000008870472DE9F04106460F4614461D466B
:1001B0003946304602F0F0FE0321304602F006FFD9
:1001C0002146304602F00FFF2946304602F01BFF61
:1001D000304602F0C0FF10B10120BDE8F0810020E0
:1001E000FBE770B50446204603F050F8064606F0DB
:1001F000040020B3204602F049FF05462A46214666
:1002000097A003F005FA05B970BD40F2DC508542B5
:1002100000DD05469A4A2946204602F052FF2A464A
:100220009749204602F015FF2A469549954802F065
:10023000A0FC012240F22771934801F016F806F065
:10024000080030B1012091490855214690A003F0E3
:10025000DFF906F0100030B1214695A003F0D8F97F
:1002600000208A49085506F0400030B1214699A087
:1002700003F0CEF900208549085500BFC4E700F01F
:10028000A5FB4FF4E13000F017FA00F0ABF900F0F5
:1002900053FB02F091FC02F059FD4FF4C3610620BC
:1002A00000F034FB05E092A003F0B2F9642000F006
:1002B000D6F902F06DFD944908704028F3DB05E0A3
:1002C00092A003F0A5F9642000F0C9F9552002F0CE
:1002D00068FDAA28F4D105E092A003F099F9642002
:1002E00000F0BDF902F08EFD0028F5D194A003F0D6
:1002F0008FF9B1E000F01CFB94480068B0F5FA5F9C
:1003000052D90020914908606048007880B9FFF711
:1003100039FF044623468E4802888E490020FFF7A5
:1003200041FF28B98CA003F073F9002002F051FFBF
:100330005648407880B9FFF725FF04462346844895
:10034000028884490120FFF72DFF28B988A003F017
:100350005FF9012002F03DFF4C48807880B9FFF73B
:1003600011FF044623467A4802887A490220FFF7A3
:1003700019FF28B984A003F04BF9022002F029FFED
:100380004248C07880B9FFF7FDFE04462346704816
:10039000028870490320FFF705FF28B980A003F009
:1003A00037F9032002F015FF02F0C8FC002853D0F3
:1003B00055480078442804DB03F0A0F87E49086023
:1003C00003E002F00DFD7C4908607B48007800F0F6
:1003D000040068B102F0FBFC012803D177A003F010
:1003E00017F905E079A003F013F9012002F07DFF71
:1003F0007148007800F0080008B102F094FF6E48E0
:10040000007800F0010010B1754802F0A1FD6A48C3
:10041000007800F0100010B10020FFF7E2FE6648FF
:10042000007800F0200010B10120FFF7DAFE6248EA
:10043000007800F0400010B10220FFF7D2FE5E48C5
:10044000007800F0800010B10320FFF7CAFE2E48AC
:100450000078442800DB00BF4CE7000012000020B9
:100460000D0A736F636B657425642072656365693B
:100470007665206C656E203D2025640D0A00000025
:100480007C0000207C0E0020003801400E0000207F
:10049000736F636B657425642053494E545F5354E6
:1004A00041545F434F4E4E4543540D0A0000000037
:1004B000736F636B657425642053494E545F5354C6
:1004C00041545F444953434F4E4E454354200D0A17
:1004D00000000000736F636B657425642053494E00
:1004E000545F535441545F54494D5F4F55540A0073
:1004F0004348333935434D4447657456657220454A
:1005000052520D0A00000000000000200D0A43486E
:10051000333935434D44436865636B204552520D72
:100520000A0000000D0A4348333935434D44496EF3
:1005300069744348333935204552520D0A00000092
:100540000D0A73746172740D0A000000240000200B
:100550000C00002008000020434833393554435034
:10056000436F6E6E65637430202E2E2E200D0A00B0
:100570004348333935544350436F6E6E656374316D
:10058000202E2E2E200D0A00434833393554435077
:10059000436F6E6E65637432202E2E2E200D0A007E
:1005A0004348333935544350436F6E6E656374333B
:1005B000202E2E2E200D0A00040000200D0A504887
:1005C000595F444953434F4E4E0D0A000D0A50489F
:1005D000595F434F4E4E45435445440D0A000000B9
:1005E0005806002010B56FF0040000F072FB2E4892
:1005F00000682E49B0FBF1F02D49087008460078DC
:1006000000EB4001C1EBC0104FF6FF7101EAC000E2
:100610002849088010BD0146254A12784A434FF008
:10062000E0235A6100229A611A46126942F00102DF
:100630001A6100BF4FF0E022106900F001021AB108
:1006400000F48032002AF5D04FF0E022126922F047
:1006500001024FF0E0231A6100229A6170470146BF
:10066000144A12884A434FF0E0235A6100229A61EB
:100670001A46126942F001021A6100BF4FF0E022EF
:10068000106900F001021AB100F48032002AF5D09E
:100690004FF0E022126922F001024FF0E0231A61CC
:1006A00000229A61704700005000002000127A007A
:1006B000140000201600002010B586B004464FF448
:1006C00080628849884802F06DF94FF4806287495A
:1006D000874802F067F901214FF4C02000F093FC35
:1006E000012144F20D0000F081FC4FF40070ADF8E0
:1006F000140003208DF8160018208DF8170005A9A6
:100700007C4800F03BFF4FF48060ADF814004820B7
:100710008DF8170005A9774800F030FF0020ADF8EC
:100720000800ADF80A00ADF80C00ADF810000C2080
:10073000ADF80E00019401A96F4800F0FEFC2520E1
:100740008DF8000003208DF801008DF802000120D3
:100750008DF80300684600F072FA012240F225513C
:10076000654800F082FD012240F22441624800F019
:100770007CFD0121604800F06CFD06B010BD70B535
:1007800004460D4616465C4884420AD13246294644
:10079000574802F0EEF9012240F22771204600F09E
:1007A00064FD70BD70B506460C4615460BE014F8A6
:1007B000011B304600F0BAFD00BF8021304600F03A
:1007C00023FE0028F9D02800A5F10105EFD170BD66
:1007D00070B504460D462946204600F0A7FD00BF2F
:1007E0008021204600F010FE0028F9D070BD08B529
:1007F00040F22551404800F01DFE78B13E4800F01F
:1008000099FDC0B2009001226946374802F0B1F963
:100810003A480068401C394908600CE040F2244125
:10082000354800F007FE012805D13348001D008837
:1008300001203349087040F227712F4800F0FAFD7B
:1008400000B32B4802F0C8F800280ADD01222D4928
:10085000274802F0ECF82B480178274800F066FDA5
:1008600010E040F22771244800F00EFE002240F212
:100870002771214800F0F9FC012240F226611E4850
:1008800000F0F3FC40F226611B4800F0D3FD50B1AC
:1008900040F22661184800F0F7FD002240F2266180
:1008A000154800F0E2FC08BD38B504460D46E0B23C
:1008B00000901548007838B901201349087040F2BB
:1008C00026610D4800F0E0FD01226946084802F06B
:1008D00050F9012240F22771074800F0C6FC20467B
:1008E00038BD00007C0600206C0600208C0E002025
:1008F0007C0E002000080140003801401C00002050
:1009000020000020180000202100002070B50546BE
:100910000C4645F2555001F08DFE284601F08DFE43
:10092000204601F08DFE01F08EFE01F091FE70BDBB
:1009300010B501F088FE10BD1FB50121084600F07A
:1009400062FB1C208DF8000001208DF803000220BE
:100950008DF801008DF80200684600F070F94FF044
:10096000804000F059FF0020ADF80A00ADF8060005
:100970000A20ADF8080041F61F40ADF8040001A9B7
:100980004FF0804001F01CF80121880701F04EFE75
:100990000121880701F070FB01221146900701F048
:1009A00086FB1FBD10B50121880701F02EFE01282E
:1009B00008D10121800701F039FE03480068401C7E
:1009C0000149086010BD00002400002010B54FF45C
:1009D000A06000F02FF910BD71B600BF1348006889
:1009E00000F4E06012490843001D10490860BFF39D
:1009F000408F00BF00BFFEE770B504460D469CB1B6
:100A00000C4850F82500006820600A4850F825007E
:100A100040686060074850F825008068A06006A024
:100A200094E80E0002F0F4FD70BD00000CED00E053
:100A30000000FA05280000200D0A20D0BEC6ACCE6A
:100A4000A8D2BB49443A2025582D25582D25580DAC
:100A50000A0000000CB50020019000906C4800686E
:100A600040F480306A49086000BF6948006800F4BB
:100A7000003000900198401C0190009818B901982E
:100A8000B0F5A06FF1D16248006800F4003010B1F9
:100A90000120009001E0002000900098012843D13F
:100AA0005C48006840F010005A4908600846006839
:100AB00020F0030008600846006840F0020008606B
:100AC00053484068524948600846406848600846B4
:100AD000406840F4806048600846406820F47C101C
:100AE00048600846406840F4E810486008460068DE
:100AF00040F08070086000BF4548006800F000705A
:100B00000028F9D04248406820F00300404948607E
:100B10000846406840F00200486000BF3C4840681A
:100B200000F00C000828F9D10CBD10B5FFF792FFBA
:100B300010BD10B53648006840F001003449086027
:100B40000846406834490840314948600846006812
:100B5000324908402E4908600846006820F4802089
:100B600008600846406820F4FE0048604FF41F000B
:100B70008860FFF7DAFF4FF000602949086010BD78
:100B800010B5002100200022214B5B6803F00C010E
:100B900021B1042906D0082928D107E0214B224C95
:100BA000236027E01F4B204C236023E0184B5B6839
:100BB00003F47010164B5B6803F48032022303EBDE
:100BC000904022B9194B4343174C23600DE0104B62
:100BD0005B6803F4003323B1144B4343124C23608E
:100BE00003E0104B4343104C236003E00D4B0E4CCD
:100BF000236000BF00BF064B5B68C3F303130C4CBC
:100C0000E15C094B1B68CB40074C236010BD000022
:100C100000100240002002400000FFF8FFFFF6FE37
:100C200008ED00E000127A005000002000093D00AD
:100C30005400002031490143314A1160704770B5BA
:100C4000002100230F22C47804B32D4C246804F43F
:100C5000E064C4F5E064210AC1F10403CA404478A9
:100C600004FA03F18478144021430901254C0678E5
:100C7000A155047804F01F050124AC4005786D11DE
:100C8000AD0005F1E025C5F8004109E0047804F065
:100C90001F050124AC401C4D0678761145F826400E
:100CA00070BD1A4A0A400243154B1B1F1A60704759
:100CB00039B1134A121D12680243114B1B1D1A60F1
:100CC00006E00F4A121D126882430D4B1B1D1A606D
:100CD0007047042808D14FF0E021096941F0040170
:100CE0004FF0E022116107E04FF0E021096921F0A7
:100CF00004014FF0E0221161704700000000FA0586
:100D00000CED00E000E400E080E100E080FFFF1F68
:100D1000DF48006840F00100DD490860084640688F
:100D2000DC490840DA49486008460068DA4908406A
:100D3000D74908600846006820F48020086008460B
:100D4000406820F4FE0048604FF41F008860704740
:100D5000CF49096821F48031CD4A116011460968F4
:100D600021F480211160B0F5803F03D0B0F5802FD1
:100D70000ED106E0C649096841F48031C44A1160C9
:100D800007E0C349096841F4A021C14A116000E0AD
:100D900000BF00BF704710B50146002200230020AD
:100DA0004A11012A02D1BA4C236806E0022A02D174
:100DB000B74C236A01E0B64C636A01F01F020124BC
:100DC00094401C400CB1012000E0002010BD38B55B
:100DD000002000900024002500BF3120FFF7DBFF3A
:100DE00005460098401C00900098B0F5A06F01D017
:100DF000002DF2D03120FFF7CEFF08B1012400E032
:100E00000024204638BD01460020A14A106820F089
:100E1000F80040EAC10010607047A04908607047C0
:100E2000024600209A4B586820F47C1042EA0103E5
:100E30001843974B586070479849086670470146B9
:100E40000020934A506820F0030008435060704728
:100E50008F48406800F00C007047014600208C4A23
:100E6000506820F0F00008435060704701460020B1
:100E7000874A506820F4E06008435060704701469C
:100E80000020834A506820F4605040EAC10050605E
:100E9000704729B17E4A527A02437D4B5A7204E070
:100EA0007B4A527A82437A4B5A7270477B49D831D7
:100EB0000860704701460020754A506820F44040A1
:100EC0000843506070470021714A20321170704A07
:100ED00082F82010012802D004280AD104E0012160
:100EE0006B4A2032117005E00521694A20321170E9
:100EF00000E000BF00BF704769490860704764495F
:100F0000096A0143624A11627047654944390860C1
:100F1000704730B500210022002400235C4D6D682D
:100F200005F00C0121B1042905D0082923D105E0E1
:100F30005C4D056022E05B4D05601FE0544D6D681F
:100F400005F47012524D6D6805F48034022505EBEE
:100F500092421CB9544D554305600BE04C4D6D68F1
:100F600005F400351DB1504D5543056002E04D4D6F
:100F70005543056002E04B4D056000BF00BF444D86
:100F80006D6805F0F0010909484D6B5C0568DD40AE
:100F900045603F4D6D6805F4E061090A434D6B5CA7
:100FA0004568DD4085603A4D6D6805F46051C90AB9
:100FB0003E4D6B5C4568DD40C560354D6D6805F4A0
:100FC0004041890B3A4D6B5CC568B5FBF3F5056193
:100FD00030BD29B12E4A526902432D4B5A6104E0BB
:100FE0002B4A526982432A4B5A61704729B1284AD9
:100FF00092690243264B9A6104E0254A9269824332
:10100000234B9A61704729B1214AD2690243204B90
:10101000DA6104E01E4AD26982431D4BDA617047EF
:1010200029B11B4AD2680243194BDA6004E0184A1E
:10103000D2688243164BDA60704729B1144A1269AC
:101040000243134B1A6104E0114A12698243104BA8
:101050001A61704712494039086070470F49C864E7
:1010600070470B49C87170470948406A40F080706A
:1010700007494862704701460020054A92680A40C5
:101080000AB1012000E000207047014988727047D2
:10109000001002400000FFF8FFFFF6FE0000424291
:1010A0008004424200127A0000093D0064000020E2
:1010B0007400002010B50446FB48844209D1012188
:1010C0008803FFF7ADFF00214FF48040FFF7A8FF32
:1010D00032E0F648844209D101214804FFF7ADFF10
:1010E00000214FF40030FFF7A8FF25E0F0488442CC
:1010F00009D101218804FFF7A0FF00214FF48020CF
:10110000FFF79BFF18E0EB48844209D10121C80496
:10111000FFF793FF00214FF40020FFF78EFF0BE055
:10112000E548844208D101210805FFF786FF002128
:101130004FF48010FFF781FF10BD2DE9F04786B016
:1011400005460E460024A24600BFA1460027B089EE
:1011500000B100BF2F462C8A4CF6FF700440F08887
:1011600004432C82AC894EF6F3100440B0883189D8
:101170000843718908430443AC81AC8A4FF6FF40B1
:101180000440B0890443AC8201A8FFF7C2FEC64800
:10119000874202D1DDF810A001E0DDF80CA0A8899B
:1011A00000F4004040B10AEBCA0000EB0A103168BD
:1011B0004900B0FBF1F807E00AEBCA0000EB0A10A7
:1011C00031688900B0FBF1F86420B8FBF0F004014D
:1011D0002009642101FB1089A88900F4004040B176
:1011E000322000EBC900B0FBF1F000F0070004432F
:1011F00008E0322000EB09106421B0FBF1F000F0B0
:101200000F0004432C8106B0BDE8F0874FF416515F
:10121000016000218180C18001810C214181002178
:101220008181704710B502460020108A4FF2FF03FB
:1012300018400B884C8823438C882343CC88234355
:101240001843108210BD0021018041808180C1803F
:10125000704721B1828942F40052828104E0828980
:101260004DF6FF731A4082817047F0B503460024A3
:1012700000260025002040F66A17B94200D100BFC1
:101280001846C1F3421401F01F06012707FA06F5BC
:10129000012C01D10C3004E0022C01D1103000E00F
:1012A00014301AB107682F43076002E00768AF43A4
:1012B0000760F0BD1AB1838A0B43838202E0838A00
:1012C0008B4383827047028A4FF6F0731A40028282
:1012D000028A0A430282704782894FF2FF731A40E2
:1012E000828182890A438281704721B1828942F0DA
:1012F0000202828104E082894FF6FD731A408281E6
:101300007047028A4FF6DF731A400282028A0A434C
:101310000282704721B1028A42F48042028204E0D4
:10132000028A4BF6FF731A4002827047C1F308022B
:101330008280704701468888C0F308007047818921
:1013400041F0010181817047028BD2B20283028B8E
:1013500042EA012202837047028B02F47F42028339
:10136000028B0A430283704721B1828A42F0200235
:10137000828204E0828A4FF6DF731A4082827047CD
:1013800021B1828A42F01002828204E0828A4FF602
:10139000EF731A408282704721B1828A42F00802BC
:1013A000828204E0828A4FF6F7731A408282704785
:1013B00021B1828942F40042828103E08289C2F332
:1013C0000E028281704721B1828A42F400628282D9
:1013D00004E0828A4FF2FF731A4082827047828A49
:1013E0004FF6FB731A408282828A0A4382827047D8
:1013F00021B1828A42F00202828204E0828A4FF6A0
:10140000FD731A408282704702460020B1F5007FCA
:1014100000D100BF13880B400BB1012000E0002079
:10142000704701F40072B2F5007F00D100BFCA43DB
:101430000280704770B5024600240023002500207A
:1014400040F66A16B14200D100BFC1F3421501F067
:101450001F03012606FA03F3012D02D196893340BA
:1014600006E0022D02D1168A334001E0968A33400D
:101470000C12012606FA04F41688344013B10CB19C
:10148000012000E0002070BD10B50022002340F6CE
:101490006A14A14200D100BF0A1201249440A3B2F1
:1014A000DC43048010BD00000038014000440040CF
:1014B00000480040004C00400050004010B5044679
:1014C000CC48844208D101210420FFF7A9FD002166
:1014D0000420FFF7A5FD46E0C748844208D101215A
:1014E0000820FFF79DFD00210820FFF799FD3AE055
:1014F000C248844208D101211020FFF791FD00214C
:101500001020FFF78DFD2EE0BD48844208D1012157
:101510002020FFF785FD00212020FFF781FD22E03C
:10152000B848844208D101214020FFF779FD00210D
:101530004020FFF775FD16E0B348844208D1012131
:101540008020FFF76DFD00218020FFF769FD0AE094
:10155000AE48844207D101218015FFF761FD0021CB
:10156000A015FFF75DFD10BD10B501210846FFF77E
:1015700057FD00210120FFF753FD10BD2DE9F0417B
:10158000024600250026002000230024002791F8B1
:1015900003C00CF00F0591F803C00CF0100CBCF167
:1015A000000F03D091F802C04CEA050591F800C085
:1015B000BCF1000F31D0146800202BE04FF0010C7B
:1015C0000CFA00F3B1F800C00CEA03069E4220D1E9
:1015D00083004FF00F0C0CFA03F7BC4305FA03FC31
:1015E0004CEA040491F803C0BCF1280F06D14FF077
:1015F000010C0CFA00FCC2F814C00AE091F803C018
:10160000BCF1480F05D14FF0010C0CFA00FCC2F8F8
:1016100010C0401C0828D1D31460B1F800C0BCF140
:10162000FF0F34DD546800202EE000F1080C4FF06D
:10163000010808FA0CF3B1F800C00CEA03069E4258
:1016400021D183004FF00F0C0CFA03F7BC4305FACD
:1016500003FC4CEA040491F803C0BCF1280F05D147
:1016600000F1080C08FA0CF8C2F8148091F803C0D5
:10167000BCF1480F07D100F1080C4FF0010808FA3F
:101680000CF8C2F81080401C0828CED35460BDE886
:10169000F0814FF6FF710180022181700421C17039
:1016A00070470246002093680B400BB1012000E018
:1016B000002070470146886880B2704702460020CB
:1016C000D3680B400BB1012000E0002070470146B9
:1016D000C86880B2704701617047416170470AB1C4
:1016E000016100E041617047C16070474FF4803292
:1016F0000A43826181618261826982697047024620
:101700000020434B18684FF68073184040EA0210DF
:1017100008433F4B186070473E49C8617047F0B5B9
:101720000A46002300240021002500F00046B6F1FF
:10173000004F02D1364EF16901E0354E7168C0F3B9
:10174000034583B200F44016B6F5401F08D121F0DE
:1017500070612F4E766826F070662D4F7E6012E025
:1017600000F48016B6F5801F06D1032606FA05F4AC
:10177000A14341F0706106E0460D360103FA06F61A
:10178000B14341F0706122B1460D360103FA06F60D
:10179000314300F00046B6F1004F02D11C4EF1611A
:1017A00001E01B4E7160F0BD30B500228B071C0FAD
:1017B0000F2303FA04F2164B08338C1053F824302D
:1017C0009343134C08348D1044F8253023468C1075
:1017D00053F824308C07240F00FA04F423430C4CF4
:1017E00008348D1044F8253030BD0A49DC310860DA
:1017F0007047000000080140000C0140001001404B
:101800000014014000180140001C0140002001406C
:10181000000001400000204210B50446FE4884420A
:1018200008D10121C014FFF7FBFB0021E014FFF7F2
:10183000F7FBC4E0B4F1804F08D101210846FFF75F
:10184000FCFB00210120FFF7F8FBB8E0F3488442DD
:1018500008D101210220FFF7F0FB00210220FFF751
:10186000ECFBACE0EE48844208D101210420FFF7F4
:10187000E4FB00210420FFF7E0FBA0E0E9488442FC
:1018800008D101210820FFF7D8FB00210820FFF72D
:10189000D4FB94E0E448844208D101211020FFF7F2
:1018A000CCFB00211020FFF7C8FB88E0DF48844212
:1018B00008D101212020FFF7C0FB00212020FFF7E5
:1018C000BCFB7CE0DA48844208D101214014FFF7D8
:1018D000A7FB00216014FFF7A3FB70E0D54884420A
:1018E00009D10121C804FFF79BFB00214FF4002020
:1018F000FFF796FB63E0D048844209D10121080537
:10190000FFF78EFB00214FF48010FFF789FB56E0B4
:10191000CA48844209D101214805FFF781FB002113
:101920004FF40010FFF77CFB49E0C548844208D122
:1019300001214020FFF781FB00214020FFF77DFBC4
:101940003DE0C048844208D101218020FFF775FBAB
:1019500000218020FFF771FB31E0BB48844208D1B1
:1019600001218015FFF769FB0021A015FFF765FB3A
:1019700025E0B648844209D101210804FFF750FB55
:1019800000214FF48030FFF74BFB18E0B048844251
:1019900009D101214804FFF743FB00214FF4003037
:1019A000FFF73EFB0BE0AB48844208D101218804DD
:1019B000FFF736FB00214FF48020FFF731FB10BD0D
:1019C00000220288944B98420ED0994B98420BD03B
:1019D000B0F1804F08D0914B984205D0904B98427F
:1019E00002D0904B984204D14FF68F731A404B8827
:1019F0001A438D4B984207D08C4B984204D04FF637
:101A0000FF431A40CB881A4302808B8883850B885A
:101A10000385814B98420BD0854B984208D08B4B65
:101A2000984205D08A4B984202D08A4B984201D105
:101A30000B7A038601238382704770B5002400224D
:101A40000023058C4FF6FE7635400584028C838892
:101A5000048B4FF68F752C40B51E2C400D882C43FF
:101A6000751E2A400D892A434D882A436A4DA84293
:101A70000BD06F4DA84208D0744DA84205D0744DCC
:101A8000A84202D0734DA84213D14FF6F7752A40F1
:101A90004D892A434FF6FB752A408D882A434FF61D
:101AA000FF652B404FF6FF552B408D892B43CD8989
:101AB0002B4383800483CD888586028470BD70B5F6
:101AC000002400220023058C4FF6EF763540058474
:101AD000028C8388048B48F6FF752C404FF6FF4537
:101AE0002C400D884FF6FF7606EA05252C434FF66D
:101AF000DF752A400D8906EA05152A434D8806EA56
:101B000005152A43444DA84202D0494DA8421DD193
:101B10004FF67F752A404D894FF6FF7606EA051588
:101B20002A434FF6BF752A408D8806EA05152A43D9
:101B30004FF6FF352B404FF2FF752B408D8906EA9B
:101B400085052B43CD8906EA85052B4383800483D5
:101B5000CD880587028470BD70B500240022002363
:101B6000058C4FF6FF6635400584028C8388848B94
:101B70004FF68F752C404FF6FC752C400D882C438A
:101B80004FF6FF552A400D894FF6FF7606EA0525E8
:101B90002A434D8806EA05252A431F4DA84202D054
:101BA000234DA8421DD14FF2FF752A404D894FF6B3
:101BB000FF7606EA05252A434FF6FF352A408D8831
:101BC00006EA05252A434EF6FF752B404DF6FF75B4
:101BD0002B408D8906EA05152B43CD8906EA0515AC
:101BE0002B4383808483CD888587028470BD70B544
:101BF000002200230024058C4EF6FF763540058434
:101C0000038C8488828B48F6FF752A404FF6FF4587
:101C10002A400D8820E00000002C01400004004014
:101C200000080040000C004000100040001400407C
:101C300000340140004C014000500140005401407C
:101C400000180040001C00400020004000400140FF
:101C500000440140004801404FF6FF7606EA0525A2
:101C60002A434DF6FF752B400D8906EA05352B43B7
:101C70004D8806EA05352B43FA4DA84202D0FA4DAD
:101C8000A84208D14BF6FF752C408D894FF6FF76A0
:101C900006EA85152C4384808283CD88A0F84050C5
:101CA000038470BD828B4FF2FF331A408283828B94
:101CB0004FF6FF7303EA01231A4382837047F0B59E
:101CC0000C461546002200210026078C4EF6FF7CAC
:101CD00007EA0C070784828B018C4FF6FF7707EA2F
:101CE000043640F6FF473A404FF6FF7707EA0527EC
:101CF0003A434FF6FF7707EA03373A43D94FB842E2
:101D00000ED0D94FB8420BD0B0F1804F08D0D74F8A
:101D1000B84205D0D64FB84202D0D64FB84206D10D
:101D20004DF6FF77394046F48057394305E047F6D2
:101D3000FF57394044F48057394382830184F0BD12
:101D4000828B4FF6F3731A408283828B0A4382831D
:101D50007047F0B50C461546002200210026078C7E
:101D60004FF6FF6C07EA0C070784828B018C4FF655
:101D7000FF7707EA04264FF60C773A404FF6FF77D5
:101D800007EA03172F433A43B64FB8420ED0B64F77
:101D9000B8420BD0B0F1804F08D0B44FB84205D054
:101DA000B34FB84202D0B34FB84206D14FF6FF57F7
:101DB000394046F48077394305E04FF2FF57394008
:101DC00044F48077394382830184F0BD028B4FF263
:101DD000FF331A400283028B4FF6FF7303EA01239D
:101DE0001A4302837047F0B50C46154600220021C5
:101DF0000026078C4FF6EF7C07EA0C070784028B5E
:101E0000018C4FF6FF7707EA041640F6FF473A4089
:101E10004FF6FF7707EA03373A434FF6FF7707EAB3
:101E200005273A438F4FB8420ED08F4FB8420BD0A0
:101E3000B0F1804F08D08D4FB84205D08C4FB842DA
:101E400002D08C4FB84206D14FF6DF77394046F0CA
:101E50001007394305E04FF65F77394044F010072B
:101E6000394302830184F0BD028B4FF6F3731A40AD
:101E70000283028B0A4302837047F0B50C46154675
:101E800000220021068C4FF6FE773E400684028B2E
:101E9000018C4FF60C7632407E1C06EA03162E4368
:101EA0003243704EB0420ED06F4EB0420BD0B0F104
:101EB000804F08D06D4EB04205D06D4EB04202D07A
:101EC0006C4EB04206D14FF6FD76314044F001062B
:101ED000314305E04FF6F576314044F001063143D9
:101EE00002830184F0BD70B505460C465D4885420D
:101EF0000ED05D4885420BD0B5F1804F08D05B48CD
:101F0000854205D05A48854202D05A48854200D1C0
:101F100000E000BF208850B92389A2886188284644
:101F2000FFF7ABFFE1882846FFF79EFF25E02088FA
:101F300004280AD12389A28861882846FFF753FF25
:101F4000E1882846FFF742FF17E0208808280AD1D9
:101F50002389A28861882846FFF7FBFEE18828468E
:101F6000FFF7EEFE09E02389A28861882846FFF783
:101F7000A6FEE1882846FFF795FE70BD2DE9F041E9
:101F800005460C4600260127608808B9022600E0B5
:101F90000026A088012801D1022700E0012720881F
:101FA000A0B92389A28861882846FFF766FFE188E7
:101FB0002846FFF759FF23893A4631462846FFF75E
:101FC00012FFE1882846FFF701FF13E02389A2886A
:101FD00061882846FFF707FFE1882846FFF7F6FEED
:101FE00023893A4631462846FFF747FFE1882846CD
:101FF000FFF73AFFBDE8F0810A884B881A438B88C7
:102000001A43CB881A430B891A434B891A438B898D
:102010001A43A0F8442070474FF6FF7181800021D9
:102020000180C180418001727047002101804180A0
:102030008180C180018141818181C18170470021FE
:1020400001804180012181800021C1800181704790
:102050000021018041808180C18001814181818195
:1020600070470000002C0140003401400004004093
:1020700000080040000C004021B1028842F001023B
:10208000028004E002884FF6FE731A400280704717
:1020900031B1B0F8442042F40042A0F8442005E0F9
:1020A000B0F84420C2F30E02A0F8442070471AB1E1
:1020B00083890B43838102E083898B43838170474B
:1020C0008182704741EA0203A0F8483070471AB194
:1020D00083890B43838102E083898B43838170472B
:1020E00001894FF6F8721140018170470A460021BC
:1020F00001894FF68F73194011430181704730B544
:1021000004460D4629462046FFF7F0FF208940F09F
:102110000700208130BD2DE9F04104460D461646EA
:102120001F46602D06D13B46012231462046FFF76F
:102130005AFE05E03B46012231462046FFF79DFE50
:1021400029462046FFF7D2FF208940F00700208172
:10215000BDE8F08130B50C4600210189C9B24FF6C7
:10216000FF7505EA0325154325432943018130BD49
:102170002DE9F04105460E46174698460024434691
:102180003A4631462846FFF7E5FF2C894FF6F870AE
:10219000044044F007044FF68F70044044F070048C
:1021A0002C81BDE8F081F0B504460D4616461F4669
:1021B0003B46324629462046FFF7CCFF208940F4B3
:1021C00080402081F0BD0185828270470A4600214F
:1021D00001884FF68F731940114301807047F0B5A5
:1021E0000C4615461E460021002200230189028B61
:1021F000038C4FF6F877394021434FF6FC473A40BD
:1022000040F201173A434FF6DD773B404FF6FF7738
:1022100007EA06172F433B43018102830384F0BD85
:102220000A460021018B4FF68F7319401143018339
:1022300070470A460021018B48F6FF7319404FF69C
:10224000FF7303EA02231943018370470A46002102
:10225000818B4FF68F7319401143818370470A4673
:102260000021818B48F6FF7319404FF6FF7303EA94
:10227000022319438183704721B1028842F0800212
:10228000028004E002884FF67F731A400280704794
:1022900021B1828842F00402828004E082884FF6F5
:1022A000FB731A408280704721B1828842F0080295
:1022B000828004E082884FF6F7731A40828070476C
:1022C00021B1828842F00102828004E082884FF6C8
:1022D000FE731A40828070470A460021018B4FF638
:1022E000F77319401143018370470A460021018B9F
:1022F0004FF2FF7319404FF6FF7303EA02231943AD
:10230000018370470A460021818B4FF6F77319400D
:102310001143818370470A460021818B4FF2FF737E
:1023200019404FF6FF7303EA022319438183704774
:102330000A460021018B4FF6FB73194011430183BC
:1023400070470A460021018B4FF6FF3319404FF6C4
:10235000FF7303EA02231943018370470A460021F1
:10236000818B4FF6FB7319401143818370470A46F6
:102370000021818B4FF6FF3319404FF6FF7303EABC
:1023800002231943818370470A460021018B4FF6CF
:102390007F7319401143018370470A460021018B66
:1023A000C1F30E014FF6FF7303EA022319430183C1
:1023B00070470A460021818B4FF67F731940114305
:1023C000818370470A460021818BC1F30E014FF6CD
:1023D000FF7303EA02231943818370470A460021F1
:1023E000018C4FF6FD7319401143018470470A4672
:1023F0000021018C4FF6F773194011430184704797
:102400000A460021018C4FF6DF7319404FF6FF7327
:1024100003EA02131943018470470A460021018C24
:102420004FF67F7319404FF6FF7303EA0213194307
:10243000018470470A460021018C4FF6FF53194072
:102440004FF6FF7303EA02231943018470470A46DB
:102450000021018C4FF2FF7319404FF6FF7303EA1E
:1024600002231943018470470A460021018C4DF66E
:10247000FF7319404FF6FF7303EA023319430184D7
:10248000704730B5002301248C40A3B2048C9C43D8
:102490000484048C02FA01F5ADB22C43048430BDEF
:1024A00030B5002304248C40A3B2048C9C430484E4
:1024B000048C02FA01F5ADB22C43048430BD70B532
:1024C0000346002000241846183001258D40ACB288
:1024D0001D8CA5431D8409B1082909D100EB6100B9
:1024E000056825F0700505600568154305600EE078
:1024F0000D1FC5F34E052844056825F4E045056029
:1025000005684FF6FF7606EA02263543056070BD82
:1025100021B1028842F00202028004E002884FF6F4
:10252000FD731A400280704721B1028842F0040214
:10253000028004E002884FF6FB731A400280704765
:1025400021B1828842F08002828004E082884FF6C6
:102550007F731A408280704702884FF6F7731A40E3
:10256000028002880A430280704782884FF68F7388
:102570001A40828082880A438280704702894FF61F
:10258000F8731A40028102890A4302817047028966
:102590004FF67F731A40028102890A430281704715
:1025A00081847047818570478186704701877047B5
:1025B00081877047A0F84010704702884FF6FF43AC
:1025C0001A40028002880A43028070470146888EC2
:1025D00070470146088F70470146888F7047014653
:1025E000B1F8400070470146888C70470146088D5D
:1025F000704702460020138A0B400BB1012000E017
:1026000000207047CA430282704730B5024600205E
:1026100000230024158A05EA0103958905EA0104CF
:1026200013B10CB1012000E0002030BDCA4302828A
:10263000704700000E49086070470D4948607047B8
:102640000B49886070474AF6AA200949086070471C
:102650004CF6CC4006490860704701460020044A09
:10266000D2680A400AB1012000E000207047000053
:102670000030004010B50446BE48844208D1012114
:102680008014FEF7CDFC0021A014FEF7C9FC16E073
:10269000B948844208D101210014FEF7CEFC002184
:1026A0002014FEF7CAFC0AE0B448844207D1012195
:1026B000C013FEF7C2FC0021E013FEF7BEFC10BD04
:1026C00010B50022028802F441520B884C88234343
:1026D0008C882343CC8823430C8923434C89234390
:1026E0008C892343CC8923431A430280838B4FF286
:1026F000FF74234083830B8A038210BD2DE9F04FC2
:1027000085B005460C464FF0000902274FF000083F
:102710004FF0010B0026B246A88B4FF24001084053
:10272000A88302202884B5F81C90A068022801D153
:1027300000BF38E0A08810B94FF0010B01E04FF066
:10274000020B8D48854200D100E000BF6846FEF7CD
:10275000E0FBDDF800A0E088B0F5007F0AD14FEA89
:102760001A2000EB80004000A168B0FBF1F0401D92
:1027700086B20BE04FEA4B10BAFBF0F000EB8000A2
:102780004000A168B0FBF1F0401D86B20A20B6FB04
:10279000F0F606F00108A6EB0800C0F34F074FF66D
:1027A000FF7000EA0828022F01DBFF2F02DD02275D
:1027B0004FF00008E08840EA080038432884A088E9
:1027C000A1890843618808432188084340F40060D8
:1027D00040EA0909A5F81C9005B0BDE8F08F00217A
:1027E000018041808180C180018141818181C181DD
:1027F0000721018270470021018041808180C180D2
:102800000221816000218181704721B1028842F05C
:102810004002028004E002884FF6BF731A40028033
:10282000704721B1828B42F48062828304E0828B04
:102830004FF6FF331A408283704730B500240023DF
:102840000C110125A540ABB21AB185881D438580C6
:1028500002E085889D43858030BD1AB183880B4393
:10286000838002E083888B43838070478181704737
:102870000146888970474FF6FF62914204D0028872
:1028800042F48072028004E002884FF6FF631A402F
:102890000280704721B1828842F00402828004E005
:1028A00082884FF6FB731A408280704702884FF28D
:1028B000FF731A40028002880A4302807047018831
:1028C00041F480510180704721B1028842F40052E6
:1028D000028004E002884DF6FF731A4002807047C0
:1028E00002460020012901D0108B00E0908A704739
:1028F0000146088A7047B1F5804F04D1028842F43E
:102900008042028004E002884BF6FF731A40028086
:1029100070470246002013890B400BB1012000E0F4
:1029200000207047CA4302817047F0B5024600207C
:1029300000240023002501F00F070126BE40B4B299
:102940000B1101269E40B3B2968806EA030516894C
:10295000264016B10DB1012000E00020F0BD10B5F9
:10296000002201F00F040123A3409AB2D343038154
:1029700010BD00000030014000380040003C004025
:102980000648804706480047FEE7FEE7FEE7FEE709
:10299000FEE7FEE7FEE7FEE7FEE7FEE7330B000893
:1029A0003101000800B970470260C160C36843602C
:1029B000C368836000BFF6E700B970470021C160BB
:1029C00041608160016000BFF7E7014611B96FF017
:1029D000320070470868FCE700B5024612B96FF094
:1029E0001E0000BDD2E90101884201D10020F8E7B4
:1029F000D2E90101884203D2D2E90110401AF0E77E
:102A00001046FFF7E2FFD2E90113C91A401AE8E7BE
:102A100030B5044614B96FF0280030BD2046FFF7EA
:102A2000D4FF05462046FFF7D7FF281AF5E72DE922
:102A3000F04104460F46164600251CB96FF01400FD
:102A4000BDE8F08117B96FF01500F9E7D4E901018D
:102A5000884214D22046FFF7BFFFB04201D930466A
:102A600002E02046FFF7B8FF05462A46384661686F
:102A700000F058FD6068284460602846E0E7204682
:102A8000FFF7A3FFE2686168891A401AB0420AD9C9
:102A900035462A463846616800F044FD606828449F
:102AA00060602846CCE72046FFF78FFFE268616848
:102AB000891A451A2A463846616800F033FDE068F5
:102AC0006060721B79192046FFF7B1FF0544284664
:102AD000B6E72DE9F04104460F46154600261CB91D
:102AE0006FF00A00BDE8F08117B96FF00B00F9E74D
:102AF0002046FFF78DFFA84202D86FF00C00F1E7E7
:102B0000D4E9010188422AD82046FFF75EFFD4E9C4
:102B10000212891A461AB54213D82A463946A068C5
:102B200000F000FDA0682844A0602046FFF74DFF9C
:102B3000E1680844A168884201D1E068A0602846A5
:102B4000D0E732463946A06800F0ECFCE068A060AF
:102B5000AA1BB9192046FFF7BCFF3044C2E72A463A
:102B60003946A06800F0DEFCA0682844A060284632
:102B7000B8E72DE9F04107460C461546002614B982
:102B8000701EBDE8F0812A4621463846FFF7A1FFB6
:102B90000646AE4202D06FF00100F2E73046F0E7A1
:102BA00010B504462046FDF736FD10BD10B50446AD
:102BB0002046FDF754FD10BD00B587B00121880304
:102BC000FEF721FA01210C20FEF710FA4FF4005015
:102BD000ADF8040003208DF8060018208DF80700DA
:102BE00001A96348FEF7CAFC4FF48040ADF8040029
:102BF00048208DF8070001A95D48FEF7BFFC4FF49F
:102C00000040ADF8040018208DF8070001A95848CD
:102C1000FEF7B4FC4FF48050ADF8040003208DF8AB
:102C2000060010208DF8070001A95148FEF7A6FC08
:102C30000820ADF8040003208DF8060010208DF860
:102C4000070001A94B48FEF799FC4FF48070ADF8DE
:102C5000040003208DF8060010208DF8070001A95C
:102C60004448FEF78BFC08204249143108604002BA
:102C70003F49103108600020ADF808004FF4827021
:102C8000ADF80A000020ADF80C00ADF80E00ADF86C
:102C900010004815ADF812000820ADF8140000200F
:102CA000ADF816000720ADF8180002A93248FFF76A
:102CB00007FD01213048FFF7A8FD0120ADF8040011
:102CC00048208DF8070001A92A48FEF757FC07B0F5
:102CD00000BD014600BF28480830008800F002000F
:102CE0000028F8D024480C30018000BF224808306A
:102CF000008800F001000028F8D01F480C30008840
:102D0000C0B2704710B504464FF4805018491031D6
:102D100008600860091D08602046FFF7DAFF0220FE
:102D2000FFF73EFF10BD00B502461046FFF7D1FF8A
:102D300000BD00B5FF20FFF7CCFF00BD0D480830F7
:102D4000006800F0010080F00100704710B54FF4FA
:102D50008070084914310860FA20FFF727FF4FF40C
:102D60008070044910310860FA20FFF71FFF10BD82
:102D7000000C0140000801400038004010B505205B
:102D8000FFF7C0FF10BD10B50320FFF7BBFF10BD5C
:102D900010B50120FFF7B6FFFFF7CBFF0446204632
:102DA00010BD70B504460620FFF7ACFF2046FFF7C4
:102DB000BAFFFFF7BEFF0546284670BD10B50446B2
:102DC0002020FFF79FFF2046FFF7ADFF10BD10B595
:102DD0002620FFF797FFFFF7ACFF0446204610BD03
:102DE00010B52920FFF78EFFFFF7A3FF044620460A
:102DF00010BD10B52C20FFF785FFFFF79AFF0446A2
:102E0000204610BD70B5002500242720FFF77AFF6B
:102E10000FE00A20FFF7CAFEFFF7EBFF0446102C75
:102E200000D007E02846691CCDB2C82801DDFA2091
:102E300070BDEEE700BF2046FAE710B50446022059
:102E4000FFF760FFE0B2FFF76EFFC4F30720FFF764
:102E50006AFFC4F30740FFF766FF10BD70B5044674
:102E60002220FFF74FFF002505E014F8010BFFF7C4
:102E70005AFF681CC5B2042DF7DB70BD70B504465F
:102E80002320FFF73FFF002505E014F8010BFFF7B3
:102E90004AFF681CC5B2042DF7DB70BD70B504464F
:102EA0002420FFF72FFF002505E014F8010BFFF7A2
:102EB0003AFF681CC5B2042DF7DB70BD70B504463F
:102EC0002120FFF71FFF002505E014F8010BFFF795
:102ED0002AFF681CC5B2062DF7DB6420FFF766FEEB
:102EE00070BD70B504464020FFF70CFF002505E0DB
:102EF000FFF71FFF04F8010B681CC5B2062DF7DBB6
:102F000070BD70B506460C4615462520FFF7FAFE43
:102F10003046FFF708FFE0B2FFF705FFC4F30720D4
:102F2000FFF701FFC4F30740FFF7FDFE200EFFF798
:102F3000FAFEE8B2FFF7F7FEC5F30720FFF7F3FE4E
:102F4000C5F30740FFF7EFFE280EFFF7ECFE70BD5C
:102F500070B504462820FFF7D5FE002505E0FFF7F1
:102F6000E8FE04F8010B681CC5B2082DF7DB70BD44
:102F700070B506460C462D20FFF7C4FE3046FFF71D
:102F8000D2FE002505E0FFF7D4FE04F8010B681C13
:102F9000C5B2062DF7DB70BD70B505460C46312075
:102FA000FFF7B0FE2846FFF7BEFE14F8010BFFF74F
:102FB000BAFE14F8010BFFF7B6FE14F8010BFFF789
:102FC000B2FE14F8010BFFF7AEFE70BD70B50546FA
:102FD0000C463420FFF796FE2846FFF7A4FE204655
:102FE000FFF7A1FE70BD70B505460C463220FFF715
:102FF00089FE2846FFF797FEE0B2FFF794FE201205
:10300000FFF791FE70BD70B505460C463320FFF703
:1030100079FE2846FFF787FEE0B2FFF784FE201214
:10302000FFF781FE70BD70B505460C463E20FFF7E8
:1030300069FE2846FFF777FE2046FFF774FE70BD55
:1030400010B504463F20FFF75DFE2046FFF76BFEFC
:1030500010BD2DE9F04107460D4614463920FFF713
:1030600051FE3846FFF75FFEE0B2FFF75CFE20122C
:10307000FFF759FE002605E015F8010BFFF753FE98
:10308000701C86B2A642F7DBBDE8F08170B505463C
:103090003B20FFF737FE2846FFF745FEFFF749FEC6
:1030A0000446FFF746FE04EB002084B2204670BDC4
:1030B00010B504462E20FFF725FE2046FFF733FE0D
:1030C00010BD2DE9F04107460C4615460CB9BDE888
:1030D000F0813C20FFF716FE3846FFF724FEE0B2F1
:1030E000FFF721FE2012FFF71EFE0120FFF758FD1B
:1030F000002605E0FFF71DFE28706D1C701C86B2CF
:10310000A642F7DB00BFE2E710B504462A20FFF72E
:10311000F9FD2046FFF707FE10BD10B504462A2032
:10312000FFF7F0FDE0B2FFF7FEFD2012FFF7FBFD19
:1031300010BD70B505460C462F20FFF7E3FD28466D
:10314000FFF7F1FDFFF7F5FD04F8010BFFF7F1FDC7
:1031500004F8010B70BD70B505460026002435202B
:10316000FFF7D0FD2846FFF7DEFD0FE00520FFF753
:103170001DFDFFF73EFE0446102C00D007E0304650
:10318000711CCEB2C82801DDFA2070BDEEE700BF89
:103190002046FAE770B50546002600243D20FFF7DB
:1031A000B1FD2846FFF7BFFD0FE00520FFF7FEFC4D
:1031B000FFF71FFE0446102C00D007E03046711CBC
:1031C000CEB2C82801DDFA2070BDEEE700BF204670
:1031D000FAE770B50546002600243720FFF792FD78
:1031E0002846FFF7A0FD0FE00520FFF7DFFCFFF703
:1031F00000FE0446102C00D007E03046711CCEB211
:10320000C82801DDFA2070BDEEE700BF2046FAE7CE
:1032100070B50546002600243620FFF773FD2846CA
:10322000FFF781FD0FE00520FFF7C0FCFFF7E1FD90
:103230000446102C00D007E03046711CCEB2C828DE
:1032400001DDFA2070BDEEE700BF2046FAE770B559
:103250000546002600243820FFF754FD2846FFF7D6
:1032600062FD0FE00520FFF7A1FCFFF7C2FD044659
:10327000102C00D007E03046711CCEB2C82801DD0A
:10328000FA2070BDEEE700BF2046FAE770B50446AD
:103290003020FFF737FD2046FFF745FD0220FFF7FE
:1032A0007FFCFFF746FD0546284670BD70B5024617
:1032B0009B4E4FF0FF31002312E012F8015B002417
:1032C0000BE085EAD17000F0010008B1944800E0FD
:1032D000002080EA41016D10641C082CF1DB5B1CAE
:1032E000062BEADB890E084670BD70B50546002640
:1032F0004120FFF707FD2846FFF715FD0FE01420DA
:10330000FFF754FCFFF775FD0446102C00D007E0D2
:103310003046711CCEB2C82801DDFA2070BDEEE740
:1033200000BF2046FAE710B54220FFF7EBFCFFF79D
:1033300000FD0446204610BD70B504464320FFF74B
:10334000E1FC002505E0FFF7F4FC04F8010B681C24
:10335000C5B2142DF7DB70BD70B505460C46ED20E7
:10336000FFF7D0FC2846FFF7DEFC2046FFF7DBFC2A
:1033700070BD70B50446EC20FFF7C4FC2046FFF793
:10338000D2FC0120FFF712FCFFF7D3FC05462846CC
:1033900070BD10B5E920FFF7B5FC09E01420FFF778
:1033A00005FCFFF726FD0446102C00D100E000E0EC
:1033B000F4E700BF204610BD2DE9F04104460D465C
:1033C0001646EA20FFF79EFCE0B2FFF7ACFC2012A5
:1033D000FFF7A9FC3046FFF7A6FC03E015F8010B48
:1033E000FFF7A1FC3000A6F10101CEB2F6D109E051
:1033F0001420FFF7DBFBFFF7FCFC0746102F00D182
:1034000000E000E0F4E700BF3846BDE8F08170B5A9
:1034100004460D461646EB20FFF774FCE0B2FFF7BA
:1034200082FC2012FFF77FFC3046FFF77CFC012076
:10343000FFF7BCFB03E0FFF77CFC05F8010B300055
:10344000A6F10101CEB2F6D170BD10B504465020F0
:10345000FFF758FCE0B2FFF766FC2012FFF763FCB1
:1034600010BD70B506460C4615465220FFF74AFCC3
:103470003046FFF758FC2046FFF755FC2846FFF77B
:1034800052FC70BD70B506460C4615465320FFF73A
:1034900039FC3046FFF747FC2046FFF744FC28463E
:1034A000FFF741FC70BD2DE9F04104460D4616467C
:1034B0001F46DDF8188031464046FFF76DFD39465E
:1034C0004046FFF790FDAAB221464046FFF7C1FDF6
:1034D000BDE8F08110B504465520FFF713FCE0B2BB
:1034E000FFF721FCC4F30720FFF71DFCC4F30740DE
:1034F000FFF719FC200EFFF716FC10BD10B51920C0
:10350000FFF700FC0220FFF74BFBFFF712FC04461D
:10351000FFF70FFC04EB002084B2204610BD000032
:10352000B71DC10440EA01039B0703D009E008C9A5
:10353000121F08C0042AFAD203E011F8013B00F878
:10354000013B521EF9D270472DE9F05F054600207D
:1035500092469B4688460646814640241BE0284604
:1035600041464746224600F042F853465A46C01AA2
:10357000914110D311461846224600F029F82D1A21
:1035800067EB01084F4622460120002100F020F899
:1035900017EB00094E41201EA4F10104DFDC484670
:1035A00031462A464346BDE8F09F0000064C074DD1
:1035B00006E0E06840F0010394E807009847103403
:1035C000AC42F6D3FCF7B8FD1039000830390008DA
:1035D000202A04DB203A00FA02F1002070479140D3
:1035E000C2F1200320FA03F3194390407047202AC8
:1035F00004DB203A21FA02F00021704721FA02F39D
:10360000D040C2F1200291400843194670470000A3
:103610000FB4054B10B503A9044A029800F018F83E
:1036200010BC5DF814FB0000A90800087800002019
:1036300002E008C8121F08C1002AFAD1704770477B
:10364000002001E001C1121F002AFBD170470000D9
:103650002DE9FF4F8DB09B460F460446002606E03D
:1036600025280BD05A460F999047641C761C207869
:103670000028F5D111B03046BDE8F08F0025A846EE
:103680000122984900E0054314F8013F203B02FA6B
:1036900003F00842F7D120782E2817D114F8010F33
:1036A00045F004052A280ED06FF02F022078A0F1F3
:1036B000300109290AD808EB880102EB410100EB2F
:1036C0000108641CF2E757F8048B641C20786C280E
:1036D0000DD004DC4C2812D06A2811D104E07428E3
:1036E0000DD07A280CD10AE045F4001507E0617886
:1036F00045F48015814202D1641C05F58015641CD7
:103700002278692A45D008DC002AB3D0582A69D02B
:10371000632A10D0642A08D13BE0702A67D0732A4C
:1037200013D0752A5CD0782A5CD010465A460F997F
:103730009047761CD3E017F8040B8DF800000020AA
:103740008DF80100E946012003E057F8049B4FF093
:10375000FF3069074FF0000501D40AE06D1C4545B4
:103760000DDA8542FADB19F805100029F6D106E0DA
:103770006D1C8542FCDB19F805100029F8D12E4498
:1037800004E019F8010B5A460F9990476D1EF8D2C4
:10379000A5E00A200021CDE90801C5F30250022866
:1037A0000DD001CFC117031E71F100030DDA4FF0E8
:1037B000000CD0EB0C006CEB01012D2308E0FF1D89
:1037C00027F00707F7E80201EDE72B0504D52B23C7
:1037D0008DF8283001233BE0EB0739D02023F7E7B1
:1037E0000A2000E010200021CDE9080107E01020A8
:1037F000002145F00405CDE908014FF00808C5F3A4
:10380000025002280FD001CF00214FF0000A2B07F1
:103810001FD5702A0DD0DDE908C38CF0100C5CEACE
:10382000030C0CD015E0FF1D27F00707F7E8020195
:10383000EBE740228DF828204FF0010A0BE050EA18
:10384000010306D030238DF828308DF8292002237B
:103850009A46582A04D024A20DF120090B9209E0BF
:1038600026A2F9E7DDE90823FFF76EFE0B9B9B5CC0
:1038700009F8013D50EA0102F4D1ADEB0900203016
:103880000890680701D44FF001080899884502DDC7
:10389000A8EB010000E000208046002506E00AA811
:1038A0005A46405D0F9990476D1C761C5545F6DBD6
:1038B00004E030205A460F999047761CB8F1000179
:1038C000A8F10108F5DC05E019F8010B5A460F993B
:1038D0009047761C0899481E08900029F4DC641C67
:1038E000C5E600000928010030313233343536375F
:1038F000383961626364656600000000303132333C
:1039000034353637383941424344454600000000DB
:1039100030390008000000207C000000303600082C
:10392000AC3900087C000020141600004036000866
:103930000000000000000000C0A80067B8220000DE
:103940000000E8030000000000000000000000008C
:103950000000000000000000ACF7FF1FE8F7FF1FA9
:10396000107AFF1FACF7FF1F107AFF1F20F4F01F23
:103970005000F81F5000F81F9075FF1F20F4F01F33
:1039800000A24A040000000000000000010203043D
:1039900006070809000000000102030401020304F5
:0C39A000060708090204060800000000E9
:0400000508000131BD
:00000001FF
